Frame 1: 163 bytes on wire (1304 bits), 163 bytes captured (1304 bits)
    Encapsulation type: Ethernet (1)
    Arrival Time: Oct  1, 2009 20:04:06.607667000 CEST
    [Time shift for this packet: 0.000000000 seconds]
    Epoch Time: 1254420246.607667000 seconds
    [Time delta from previous captured frame: 0.000000000 seconds]
    [Time delta from previous displayed frame: 0.000000000 seconds]
    [Time since reference or first frame: 0.000000000 seconds]
    Frame Number: 1
    Frame Length: 163 bytes (1304 bits)
    Capture Length: 163 bytes (1304 bits)
    [Frame is marked: False]
    [Frame is ignored: False]
    [Protocols in frame: eth:ethertype:ip:udp:zep:wpan:6lowpan:ipv6:udp:data]
Ethernet II, Src: ExeginTe_00:00:01 (00:1c:da:00:00:01), Dst: Dell_10:30:e5 (00:22:19:10:30:e5)
    Destination: Dell_10:30:e5 (00:22:19:10:30:e5)
        Address: Dell_10:30:e5 (00:22:19:10:30:e5)
        .... ..0. .... .... .... .... = LG bit: Globally unique address (factory default)
        .... ...0 .... .... .... .... = IG bit: Individual address (unicast)
    Source: ExeginTe_00:00:01 (00:1c:da:00:00:01)
        Address: ExeginTe_00:00:01 (00:1c:da:00:00:01)
        .... ..0. .... .... .... .... = LG bit: Globally unique address (factory default)
        .... ...0 .... .... .... .... = IG bit: Individual address (unicast)
    Type: IPv4 (0x0800)
Internet Protocol Version 4, Src: 172.16.2.41, Dst: 172.16.1.52
    0100 .... = Version: 4
    .... 0101 = Header Length: 20 bytes (5)
    Differentiated Services Field: 0x00 (DSCP: CS0, ECN: Not-ECT)
        0000 00.. = Differentiated Services Codepoint: Default (0)
        .... ..00 = Explicit Congestion Notification: Not ECN-Capable Transport (0)
    Total Length: 149
    Identification: 0xc7f1 (51185)
    Flags: 0x0000
        0... .... .... .... = Reserved bit: Not set
        .0.. .... .... .... = Don't fragment: Not set
        ..0. .... .... .... = More fragments: Not set
        ...0 0000 0000 0000 = Fragment offset: 0
    Time to live: 64
    Protocol: UDP (17)
    Header checksum: 0x56e9 [validation disabled]
    [Header checksum status: Unverified]
    Source: 172.16.2.41
    Destination: 172.16.1.52
User Datagram Protocol, Src Port: 17754, Dst Port: 17754
    Source Port: 17754
    Destination Port: 17754
    Length: 129
    Checksum: 0xbbcf [unverified]
    [Checksum Status: Unverified]
    [Stream index: 0]
ZigBee Encapsulation Protocol, Channel: 0, Length: 89
    Protocol ID String: EX
    Protocol Version: 2
    Type: Data (1)
    Channel ID: 0
    Device ID: 1
    LQI/CRC Mode: CRC
    Link Quality Indication: 255
    Timestamp: Feb 17, 2036 00:48:00.434366999 CET
    Sequence Number: 378422
    .101 1001 = Length: 89 bytes
IEEE 802.15.4 Data, Dst: ExeginTe_ff:ff:00:18:8a, Src: ExeginTe_ff:ff:00:18:88
    Frame Control Field: 0xcc41, Frame Type: Data, PAN ID Compression, Destination Addressing Mode: Long/64-bit, Frame Version: IEEE Std 802.15.4-2003, Source Addressing Mode: Long/64-bit
        .... .... .... .001 = Frame Type: Data (0x1)
        .... .... .... 0... = Security Enabled: False
        .... .... ...0 .... = Frame Pending: False
        .... .... ..0. .... = Acknowledge Request: False
        .... .... .1.. .... = PAN ID Compression: True
        .... ...0 .... .... = Sequence Number Suppression: False
        .... ..0. .... .... = Information Elements Present: False
        .... 11.. .... .... = Destination Addressing Mode: Long/64-bit (0x3)
        ..00 .... .... .... = Frame Version: IEEE Std 802.15.4-2003 (0)
        11.. .... .... .... = Source Addressing Mode: Long/64-bit (0x3)
    Sequence Number: 164
    Destination PAN: 0xffff
    Destination: ExeginTe_ff:ff:00:18:8a (00:1c:da:ff:ff:00:18:8a)
    Extended Source: ExeginTe_ff:ff:00:18:88 (00:1c:da:ff:ff:00:18:88)
    FCS: 0x31f9 (Correct)
6LoWPAN
    0100 0001 = Pattern: Uncompressed IPv6 (0x41)
Internet Protocol Version 6, Src: fe80::1c:daff:ff00:1888, Dst: fe80::1c:daff:ff00:188a
    0110 .... = Version: 6
    .... 0000 0000 .... .... .... .... .... = Traffic Class: 0x00 (DSCP: CS0, ECN: Not-ECT)
        .... 0000 00.. .... .... .... .... .... = Differentiated Services Codepoint: Default (0)
        .... .... ..00 .... .... .... .... .... = Explicit Congestion Notification: Not ECN-Capable Transport (0)
    .... .... .... 0000 0000 0000 0000 0000 = Flow Label: 0x00000
    Payload Length: 25
    Next Header: UDP (17)
    Hop Limit: 64
    Source: fe80::1c:daff:ff00:1888
    Destination: fe80::1c:daff:ff00:188a
User Datagram Protocol, Src Port: 1025, Dst Port: 61617
    Source Port: 1025
    Destination Port: 61617
    Length: 25
    Checksum: 0xea8a [unverified]
    [Checksum Status: Unverified]
    [Stream index: 1]
Data (17 bytes)
    Data: 48656c6c6f20303033203078433539410a
    [Length: 17]

0000  00 22 19 10 30 e5 00 1c da 00 00 01 08 00 45 00   ."..0.........E.
0010  00 95 c7 f1 00 00 40 11 56 e9 ac 10 02 29 ac 10   ......@.V....)..
0020  01 34 45 5a 45 5a 00 81 bb cf 45 58 02 01 00 00   .4EZEZ....EX....
0030  01 01 ff 00 0c d1 30 6f 32 ac fb 00 05 c6 36 00   ......0o2.....6.
0040  00 00 00 00 00 00 00 00 00 59 41 cc a4 ff ff 8a   .........YA.....
0050  18 00 ff ff da 1c 00 88 18 00 ff ff da 1c 00 41   ...............A
0060  60 00 00 00 00 19 11 40 fe 80 00 00 00 00 00 00   `......@........
0070  00 1c da ff ff 00 18 88 fe 80 00 00 00 00 00 00   ................
0080  00 1c da ff ff 00 18 8a 04 01 f0 b1 00 19 ea 8a   ................
0090  48 65 6c 6c 6f 20 30 30 33 20 30 78 43 35 39 41   Hello 003 0xC59A
00a0  0a f9 31                                          ..1

Frame 2: 163 bytes on wire (1304 bits), 163 bytes captured (1304 bits)
    Encapsulation type: Ethernet (1)
    Arrival Time: Oct  1, 2009 20:04:06.653171000 CEST
    [Time shift for this packet: 0.000000000 seconds]
    Epoch Time: 1254420246.653171000 seconds
    [Time delta from previous captured frame: 0.045504000 seconds]
    [Time delta from previous displayed frame: 0.045504000 seconds]
    [Time since reference or first frame: 0.045504000 seconds]
    Frame Number: 2
    Frame Length: 163 bytes (1304 bits)
    Capture Length: 163 bytes (1304 bits)
    [Frame is marked: False]
    [Frame is ignored: False]
    [Protocols in frame: eth:ethertype:ip:udp:zep:wpan:6lowpan:ipv6:udp:data]
Ethernet II, Src: ExeginTe_00:00:01 (00:1c:da:00:00:01), Dst: Dell_10:30:e5 (00:22:19:10:30:e5)
    Destination: Dell_10:30:e5 (00:22:19:10:30:e5)
        Address: Dell_10:30:e5 (00:22:19:10:30:e5)
        .... ..0. .... .... .... .... = LG bit: Globally unique address (factory default)
        .... ...0 .... .... .... .... = IG bit: Individual address (unicast)
    Source: ExeginTe_00:00:01 (00:1c:da:00:00:01)
        Address: ExeginTe_00:00:01 (00:1c:da:00:00:01)
        .... ..0. .... .... .... .... = LG bit: Globally unique address (factory default)
        .... ...0 .... .... .... .... = IG bit: Individual address (unicast)
    Type: IPv4 (0x0800)
Internet Protocol Version 4, Src: 172.16.2.41, Dst: 172.16.1.52
    0100 .... = Version: 4
    .... 0101 = Header Length: 20 bytes (5)
    Differentiated Services Field: 0x00 (DSCP: CS0, ECN: Not-ECT)
        0000 00.. = Differentiated Services Codepoint: Default (0)
        .... ..00 = Explicit Congestion Notification: Not ECN-Capable Transport (0)
    Total Length: 149
    Identification: 0xc7f2 (51186)
    Flags: 0x0000
        0... .... .... .... = Reserved bit: Not set
        .0.. .... .... .... = Don't fragment: Not set
        ..0. .... .... .... = More fragments: Not set
        ...0 0000 0000 0000 = Fragment offset: 0
    Time to live: 64
    Protocol: UDP (17)
    Header checksum: 0x56e8 [validation disabled]
    [Header checksum status: Unverified]
    Source: 172.16.2.41
    Destination: 172.16.1.52
User Datagram Protocol, Src Port: 17754, Dst Port: 17754
    Source Port: 17754
    Destination Port: 17754
    Length: 129
    Checksum: 0x6e52 [unverified]
    [Checksum Status: Unverified]
    [Stream index: 0]
ZigBee Encapsulation Protocol, Channel: 0, Length: 89
    Protocol ID String: EX
    Protocol Version: 2
    Type: Data (1)
    Channel ID: 0
    Device ID: 1
    LQI/CRC Mode: CRC
    Link Quality Indication: 255
    Timestamp: Feb 17, 2036 00:48:00.479905999 CET
    Sequence Number: 378423
    .101 1001 = Length: 89 bytes
IEEE 802.15.4 Data, Dst: ExeginTe_ff:ff:00:18:8a, Src: ExeginTe_ff:ff:00:18:88
    Frame Control Field: 0xcc41, Frame Type: Data, PAN ID Compression, Destination Addressing Mode: Long/64-bit, Frame Version: IEEE Std 802.15.4-2003, Source Addressing Mode: Long/64-bit
        .... .... .... .001 = Frame Type: Data (0x1)
        .... .... .... 0... = Security Enabled: False
        .... .... ...0 .... = Frame Pending: False
        .... .... ..0. .... = Acknowledge Request: False
        .... .... .1.. .... = PAN ID Compression: True
        .... ...0 .... .... = Sequence Number Suppression: False
        .... ..0. .... .... = Information Elements Present: False
        .... 11.. .... .... = Destination Addressing Mode: Long/64-bit (0x3)
        ..00 .... .... .... = Frame Version: IEEE Std 802.15.4-2003 (0)
        11.. .... .... .... = Source Addressing Mode: Long/64-bit (0x3)
    Sequence Number: 164
    Destination PAN: 0xffff
    Destination: ExeginTe_ff:ff:00:18:8a (00:1c:da:ff:ff:00:18:8a)
    Extended Source: ExeginTe_ff:ff:00:18:88 (00:1c:da:ff:ff:00:18:88)
    FCS: 0x31f9 (Correct)
6LoWPAN
    0100 0001 = Pattern: Uncompressed IPv6 (0x41)
Internet Protocol Version 6, Src: fe80::1c:daff:ff00:1888, Dst: fe80::1c:daff:ff00:188a
    0110 .... = Version: 6
    .... 0000 0000 .... .... .... .... .... = Traffic Class: 0x00 (DSCP: CS0, ECN: Not-ECT)
        .... 0000 00.. .... .... .... .... .... = Differentiated Services Codepoint: Default (0)
        .... .... ..00 .... .... .... .... .... = Explicit Congestion Notification: Not ECN-Capable Transport (0)
    .... .... .... 0000 0000 0000 0000 0000 = Flow Label: 0x00000
    Payload Length: 25
    Next Header: UDP (17)
    Hop Limit: 64
    Source: fe80::1c:daff:ff00:1888
    Destination: fe80::1c:daff:ff00:188a
User Datagram Protocol, Src Port: 1025, Dst Port: 61617
    Source Port: 1025
    Destination Port: 61617
    Length: 25
    Checksum: 0xea8a [unverified]
    [Checksum Status: Unverified]
    [Stream index: 1]
Data (17 bytes)
    Data: 48656c6c6f20303033203078433539410a
    [Length: 17]

0000  00 22 19 10 30 e5 00 1c da 00 00 01 08 00 45 00   ."..0.........E.
0010  00 95 c7 f2 00 00 40 11 56 e8 ac 10 02 29 ac 10   ......@.V....)..
0020  01 34 45 5a 45 5a 00 81 6e 52 45 58 02 01 00 00   .4EZEZ..nREX....
0030  01 01 ff 00 0c d1 30 7a db 1e 9f 00 05 c6 37 00   ......0z......7.
0040  00 00 00 00 00 00 00 00 00 59 41 cc a4 ff ff 8a   .........YA.....
0050  18 00 ff ff da 1c 00 88 18 00 ff ff da 1c 00 41   ...............A
0060  60 00 00 00 00 19 11 40 fe 80 00 00 00 00 00 00   `......@........
0070  00 1c da ff ff 00 18 88 fe 80 00 00 00 00 00 00   ................
0080  00 1c da ff ff 00 18 8a 04 01 f0 b1 00 19 ea 8a   ................
0090  48 65 6c 6c 6f 20 30 30 33 20 30 78 43 35 39 41   Hello 003 0xC59A
00a0  0a f9 31                                          ..1

Frame 3: 123 bytes on wire (984 bits), 123 bytes captured (984 bits)
    Encapsulation type: Ethernet (1)
    Arrival Time: Oct  1, 2009 20:04:10.672274000 CEST
    [Time shift for this packet: 0.000000000 seconds]
    Epoch Time: 1254420250.672274000 seconds
    [Time delta from previous captured frame: 4.019103000 seconds]
    [Time delta from previous displayed frame: 4.019103000 seconds]
    [Time since reference or first frame: 4.064607000 seconds]
    Frame Number: 3
    Frame Length: 123 bytes (984 bits)
    Capture Length: 123 bytes (984 bits)
    [Frame is marked: False]
    [Frame is ignored: False]
    [Protocols in frame: eth:ethertype:ip:udp:zep:wpan:6lowpan:ipv6:udp:data]
Ethernet II, Src: ExeginTe_00:00:01 (00:1c:da:00:00:01), Dst: Dell_10:30:e5 (00:22:19:10:30:e5)
    Destination: Dell_10:30:e5 (00:22:19:10:30:e5)
        Address: Dell_10:30:e5 (00:22:19:10:30:e5)
        .... ..0. .... .... .... .... = LG bit: Globally unique address (factory default)
        .... ...0 .... .... .... .... = IG bit: Individual address (unicast)
    Source: ExeginTe_00:00:01 (00:1c:da:00:00:01)
        Address: ExeginTe_00:00:01 (00:1c:da:00:00:01)
        .... ..0. .... .... .... .... = LG bit: Globally unique address (factory default)
        .... ...0 .... .... .... .... = IG bit: Individual address (unicast)
    Type: IPv4 (0x0800)
Internet Protocol Version 4, Src: 172.16.2.41, Dst: 172.16.1.52
    0100 .... = Version: 4
    .... 0101 = Header Length: 20 bytes (5)
    Differentiated Services Field: 0x00 (DSCP: CS0, ECN: Not-ECT)
        0000 00.. = Differentiated Services Codepoint: Default (0)
        .... ..00 = Explicit Congestion Notification: Not ECN-Capable Transport (0)
    Total Length: 109
    Identification: 0xc7f3 (51187)
    Flags: 0x0000
        0... .... .... .... = Reserved bit: Not set
        .0.. .... .... .... = Don't fragment: Not set
        ..0. .... .... .... = More fragments: Not set
        ...0 0000 0000 0000 = Fragment offset: 0
    Time to live: 64
    Protocol: UDP (17)
    Header checksum: 0x570f [validation disabled]
    [Header checksum status: Unverified]
    Source: 172.16.2.41
    Destination: 172.16.1.52
User Datagram Protocol, Src Port: 17754, Dst Port: 17754
    Source Port: 17754
    Destination Port: 17754
    Length: 89
    Checksum: 0x8faa [unverified]
    [Checksum Status: Unverified]
    [Stream index: 0]
ZigBee Encapsulation Protocol, Channel: 0, Length: 49
    Protocol ID String: EX
    Protocol Version: 2
    Type: Data (1)
    Channel ID: 0
    Device ID: 1
    LQI/CRC Mode: CRC
    Link Quality Indication: 255
    Timestamp: Feb 17, 2036 00:48:04.499042999 CET
    Sequence Number: 378424
    .011 0001 = Length: 49 bytes
IEEE 802.15.4 Data, Dst: ExeginTe_ff:ff:00:18:8a, Src: ExeginTe_ff:ff:00:18:88
    Frame Control Field: 0xcc41, Frame Type: Data, PAN ID Compression, Destination Addressing Mode: Long/64-bit, Frame Version: IEEE Std 802.15.4-2003, Source Addressing Mode: Long/64-bit
        .... .... .... .001 = Frame Type: Data (0x1)
        .... .... .... 0... = Security Enabled: False
        .... .... ...0 .... = Frame Pending: False
        .... .... ..0. .... = Acknowledge Request: False
        .... .... .1.. .... = PAN ID Compression: True
        .... ...0 .... .... = Sequence Number Suppression: False
        .... ..0. .... .... = Information Elements Present: False
        .... 11.. .... .... = Destination Addressing Mode: Long/64-bit (0x3)
        ..00 .... .... .... = Frame Version: IEEE Std 802.15.4-2003 (0)
        11.. .... .... .... = Source Addressing Mode: Long/64-bit (0x3)
    Sequence Number: 165
    Destination PAN: 0xffff
    Destination: ExeginTe_ff:ff:00:18:8a (00:1c:da:ff:ff:00:18:8a)
    Extended Source: ExeginTe_ff:ff:00:18:88 (00:1c:da:ff:ff:00:18:88)
    FCS: 0x0ba5 (Correct)
6LoWPAN
    HC1 Encoding
        0100 0010 = Pattern: Header compression (0x42)
        HC1 Encoding: 0xfb, Source prefix, Source interface, Destination prefix, Destination interface, Traffic class and flow label, Next header: UDP, More HC bits
            1... .... = Source prefix: Compressed
            .1.. .... = Source interface: Compressed
            ..1. .... = Destination prefix: Compressed
            ...1 .... = Destination interface: Compressed
            .... 1... = Traffic class and flow label: Compressed
            .... .01. = Next header: UDP (0x1)
            .... ...1 = More HC bits: True
    HC_UDP Encoding: 0x60, Destination port, Length
        0... .... = Source port: Inline
        .1.. .... = Destination port: Compressed
        ..1. .... = Length: Compressed
    Hop limit: 64
    Source: fe80::21c:daff:ff00:1888
    Destination: fe80::21c:daff:ff00:188a
    Source port: 1025
    Destination port: 61617
    UDP checksum: 0xf88c
Internet Protocol Version 6, Src: fe80::21c:daff:ff00:1888, Dst: fe80::21c:daff:ff00:188a
    0110 .... = Version: 6
    .... 0000 0000 .... .... .... .... .... = Traffic Class: 0x00 (DSCP: CS0, ECN: Not-ECT)
        .... 0000 00.. .... .... .... .... .... = Differentiated Services Codepoint: Default (0)
        .... .... ..00 .... .... .... .... .... = Explicit Congestion Notification: Not ECN-Capable Transport (0)
    .... .... .... 0000 0000 0000 0000 0000 = Flow Label: 0x00000
    Payload Length: 25
    Next Header: UDP (17)
    Hop Limit: 64
    Source: fe80::21c:daff:ff00:1888
    Destination: fe80::21c:daff:ff00:188a
User Datagram Protocol, Src Port: 1025, Dst Port: 61617
    Source Port: 1025
    Destination Port: 61617
    Length: 25
    Checksum: 0xf88c [unverified]
    [Checksum Status: Unverified]
    [Stream index: 2]
Data (17 bytes)
    Data: 48656c6c6f20303035203078363236420a
    [Length: 17]

Frame (123 bytes):
0000  00 22 19 10 30 e5 00 1c da 00 00 01 08 00 45 00   ."..0.........E.
0010  00 6d c7 f3 00 00 40 11 57 0f ac 10 02 29 ac 10   .m....@.W....)..
0020  01 34 45 5a 45 5a 00 59 8f aa 45 58 02 01 00 00   .4EZEZ.Y..EX....
0030  01 01 ff 00 0c d1 34 7f c1 48 34 00 05 c6 38 00   ......4..H4...8.
0040  00 00 00 00 00 00 00 00 00 31 41 cc a5 ff ff 8a   .........1A.....
0050  18 00 ff ff da 1c 00 88 18 00 ff ff da 1c 00 42   ...............B
0060  fb 60 40 04 01 1f 88 c0 48 65 6c 6c 6f 20 30 30   .`@.....Hello 00
0070  35 20 30 78 36 32 36 42 0a a5 0b                  5 0x626B...
Decompressed 6LoWPAN HC1 (65 bytes):
0000  60 00 00 00 00 19 11 40 fe 80 00 00 00 00 00 00   `......@........
0010  02 1c da ff ff 00 18 88 fe 80 00 00 00 00 00 00   ................
0020  02 1c da ff ff 00 18 8a 04 01 f0 b1 00 19 f8 8c   ................
0030  48 65 6c 6c 6f 20 30 30 35 20 30 78 36 32 36 42   Hello 005 0x626B
0040  0a                                                .

Frame 4: 197 bytes on wire (1576 bits), 197 bytes captured (1576 bits)
    Encapsulation type: Ethernet (1)
    Arrival Time: Oct  1, 2009 20:04:12.719087000 CEST
    [Time shift for this packet: 0.000000000 seconds]
    Epoch Time: 1254420252.719087000 seconds
    [Time delta from previous captured frame: 2.046813000 seconds]
    [Time delta from previous displayed frame: 2.046813000 seconds]
    [Time since reference or first frame: 6.111420000 seconds]
    Frame Number: 4
    Frame Length: 197 bytes (1576 bits)
    Capture Length: 197 bytes (1576 bits)
    [Frame is marked: False]
    [Frame is ignored: False]
    [Protocols in frame: eth:ethertype:ip:udp:zep:wpan:6lowpan:data]
Ethernet II, Src: ExeginTe_00:00:01 (00:1c:da:00:00:01), Dst: Dell_10:30:e5 (00:22:19:10:30:e5)
    Destination: Dell_10:30:e5 (00:22:19:10:30:e5)
        Address: Dell_10:30:e5 (00:22:19:10:30:e5)
        .... ..0. .... .... .... .... = LG bit: Globally unique address (factory default)
        .... ...0 .... .... .... .... = IG bit: Individual address (unicast)
    Source: ExeginTe_00:00:01 (00:1c:da:00:00:01)
        Address: ExeginTe_00:00:01 (00:1c:da:00:00:01)
        .... ..0. .... .... .... .... = LG bit: Globally unique address (factory default)
        .... ...0 .... .... .... .... = IG bit: Individual address (unicast)
    Type: IPv4 (0x0800)
Internet Protocol Version 4, Src: 172.16.2.41, Dst: 172.16.1.52
    0100 .... = Version: 4
    .... 0101 = Header Length: 20 bytes (5)
    Differentiated Services Field: 0x00 (DSCP: CS0, ECN: Not-ECT)
        0000 00.. = Differentiated Services Codepoint: Default (0)
        .... ..00 = Explicit Congestion Notification: Not ECN-Capable Transport (0)
    Total Length: 183
    Identification: 0xc7f4 (51188)
    Flags: 0x0000
        0... .... .... .... = Reserved bit: Not set
        .0.. .... .... .... = Don't fragment: Not set
        ..0. .... .... .... = More fragments: Not set
        ...0 0000 0000 0000 = Fragment offset: 0
    Time to live: 64
    Protocol: UDP (17)
    Header checksum: 0x56c4 [validation disabled]
    [Header checksum status: Unverified]
    Source: 172.16.2.41
    Destination: 172.16.1.52
User Datagram Protocol, Src Port: 17754, Dst Port: 17754
    Source Port: 17754
    Destination Port: 17754
    Length: 163
    Checksum: 0x9749 [unverified]
    [Checksum Status: Unverified]
    [Stream index: 0]
ZigBee Encapsulation Protocol, Channel: 0, Length: 123
    Protocol ID String: EX
    Protocol Version: 2
    Type: Data (1)
    Channel ID: 0
    Device ID: 1
    LQI/CRC Mode: CRC
    Link Quality Indication: 255
    Timestamp: Feb 17, 2036 00:48:06.545854999 CET
    Sequence Number: 378425
    .111 1011 = Length: 123 bytes
IEEE 802.15.4 Data, Dst: ExeginTe_ff:ff:00:18:8a, Src: ExeginTe_ff:ff:00:18:88
    Frame Control Field: 0xcc41, Frame Type: Data, PAN ID Compression, Destination Addressing Mode: Long/64-bit, Frame Version: IEEE Std 802.15.4-2003, Source Addressing Mode: Long/64-bit
        .... .... .... .001 = Frame Type: Data (0x1)
        .... .... .... 0... = Security Enabled: False
        .... .... ...0 .... = Frame Pending: False
        .... .... ..0. .... = Acknowledge Request: False
        .... .... .1.. .... = PAN ID Compression: True
        .... ...0 .... .... = Sequence Number Suppression: False
        .... ..0. .... .... = Information Elements Present: False
        .... 11.. .... .... = Destination Addressing Mode: Long/64-bit (0x3)
        ..00 .... .... .... = Frame Version: IEEE Std 802.15.4-2003 (0)
        11.. .... .... .... = Source Addressing Mode: Long/64-bit (0x3)
    Sequence Number: 166
    Destination PAN: 0xffff
    Destination: ExeginTe_ff:ff:00:18:8a (00:1c:da:ff:ff:00:18:8a)
    Extended Source: ExeginTe_ff:ff:00:18:88 (00:1c:da:ff:ff:00:18:88)
    FCS: 0x7968 (Correct)
6LoWPAN
    Fragmentation Header
        1100 0... = Pattern: First fragment (0x18)
        Datagram size: 265
        Datagram tag: 0x0002
    HC1 Encoding
        0100 0010 = Pattern: Header compression (0x42)
        HC1 Encoding: 0xfa, Source prefix, Source interface, Destination prefix, Destination interface, Traffic class and flow label, Next header: UDP
            1... .... = Source prefix: Compressed
            .1.. .... = Source interface: Compressed
            ..1. .... = Destination prefix: Compressed
            ...1 .... = Destination interface: Compressed
            .... 1... = Traffic class and flow label: Compressed
            .... .01. = Next header: UDP (0x1)
            .... ...0 = More HC bits: False
    Hop limit: 64
    Source: fe80::21c:daff:ff00:1888
    Destination: fe80::21c:daff:ff00:188a
Data (133 bytes)
    Data: 6000000000e11140fe80000000000000021cdaffff001888...
    [Length: 133]

Frame (197 bytes):
0000  00 22 19 10 30 e5 00 1c da 00 00 01 08 00 45 00   ."..0.........E.
0010  00 b7 c7 f4 00 00 40 11 56 c4 ac 10 02 29 ac 10   ......@.V....)..
0020  01 34 45 5a 45 5a 00 a3 97 49 45 58 02 01 00 00   .4EZEZ...IEX....
0030  01 01 ff 00 0c d1 36 8b bd 27 3d 00 05 c6 39 00   ......6..'=...9.
0040  00 00 00 00 00 00 00 00 00 7b 41 cc a6 ff ff 8a   .........{A.....
0050  18 00 ff ff da 1c 00 88 18 00 ff ff da 1c 00 c1   ................
0060  09 00 02 42 fa 40 04 01 f0 b1 01 06 6f af 48 65   ...B.@......o.He
0070  6c 6c 6f 20 30 30 36 20 30 78 46 46 33 43 0a 00   llo 006 0xFF3C..
0080  12 13 14 15 16 17 18 19 1a 1b 1c 1d 1e 1f 20 21   .............. !
0090  22 23 24 25 26 27 28 29 2a 2b 2c 2d 2e 2f 30 31   "#$%&'()*+,-./01
00a0  32 33 34 35 36 37 38 39 3a 3b 3c 3d 3e 3f 40 41   23456789:;<=>?@A
00b0  42 43 44 45 46 47 48 49 4a 4b 4c 4d 4e 4f 50 51   BCDEFGHIJKLMNOPQ
00c0  52 53 54 68 79                                    RSThy
Decompressed 6LoWPAN HC1 (133 bytes):
0000  60 00 00 00 00 e1 11 40 fe 80 00 00 00 00 00 00   `......@........
0010  02 1c da ff ff 00 18 88 fe 80 00 00 00 00 00 00   ................
0020  02 1c da ff ff 00 18 8a 04 01 f0 b1 01 06 6f af   ..............o.
0030  48 65 6c 6c 6f 20 30 30 36 20 30 78 46 46 33 43   Hello 006 0xFF3C
0040  0a 00 12 13 14 15 16 17 18 19 1a 1b 1c 1d 1e 1f   ................
0050  20 21 22 23 24 25 26 27 28 29 2a 2b 2c 2d 2e 2f    !"#$%&'()*+,-./
0060  30 31 32 33 34 35 36 37 38 39 3a 3b 3c 3d 3e 3f   0123456789:;<=>?
0070  40 41 42 43 44 45 46 47 48 49 4a 4b 4c 4d 4e 4f   @ABCDEFGHIJKLMNO
0080  50 51 52 53 54                                    PQRST

Frame 5: 197 bytes on wire (1576 bits), 197 bytes captured (1576 bits)
    Encapsulation type: Ethernet (1)
    Arrival Time: Oct  1, 2009 20:04:12.773323000 CEST
    [Time shift for this packet: 0.000000000 seconds]
    Epoch Time: 1254420252.773323000 seconds
    [Time delta from previous captured frame: 0.054236000 seconds]
    [Time delta from previous displayed frame: 0.054236000 seconds]
    [Time since reference or first frame: 6.165656000 seconds]
    Frame Number: 5
    Frame Length: 197 bytes (1576 bits)
    Capture Length: 197 bytes (1576 bits)
    [Frame is marked: False]
    [Frame is ignored: False]
    [Protocols in frame: eth:ethertype:ip:udp:zep:wpan:6lowpan:data]
Ethernet II, Src: ExeginTe_00:00:01 (00:1c:da:00:00:01), Dst: Dell_10:30:e5 (00:22:19:10:30:e5)
    Destination: Dell_10:30:e5 (00:22:19:10:30:e5)
        Address: Dell_10:30:e5 (00:22:19:10:30:e5)
        .... ..0. .... .... .... .... = LG bit: Globally unique address (factory default)
        .... ...0 .... .... .... .... = IG bit: Individual address (unicast)
    Source: ExeginTe_00:00:01 (00:1c:da:00:00:01)
        Address: ExeginTe_00:00:01 (00:1c:da:00:00:01)
        .... ..0. .... .... .... .... = LG bit: Globally unique address (factory default)
        .... ...0 .... .... .... .... = IG bit: Individual address (unicast)
    Type: IPv4 (0x0800)
Internet Protocol Version 4, Src: 172.16.2.41, Dst: 172.16.1.52
    0100 .... = Version: 4
    .... 0101 = Header Length: 20 bytes (5)
    Differentiated Services Field: 0x00 (DSCP: CS0, ECN: Not-ECT)
        0000 00.. = Differentiated Services Codepoint: Default (0)
        .... ..00 = Explicit Congestion Notification: Not ECN-Capable Transport (0)
    Total Length: 183
    Identification: 0xc7f5 (51189)
    Flags: 0x0000
        0... .... .... .... = Reserved bit: Not set
        .0.. .... .... .... = Don't fragment: Not set
        ..0. .... .... .... = More fragments: Not set
        ...0 0000 0000 0000 = Fragment offset: 0
    Time to live: 64
    Protocol: UDP (17)
    Header checksum: 0x56c3 [validation disabled]
    [Header checksum status: Unverified]
    Source: 172.16.2.41
    Destination: 172.16.1.52
User Datagram Protocol, Src Port: 17754, Dst Port: 17754
    Source Port: 17754
    Destination Port: 17754
    Length: 163
    Checksum: 0x306a [unverified]
    [Checksum Status: Unverified]
    [Stream index: 0]
ZigBee Encapsulation Protocol, Channel: 0, Length: 123
    Protocol ID String: EX
    Protocol Version: 2
    Type: Data (1)
    Channel ID: 0
    Device ID: 1
    LQI/CRC Mode: CRC
    Link Quality Indication: 255
    Timestamp: Feb 17, 2036 00:48:06.600142999 CET
    Sequence Number: 378426
    .111 1011 = Length: 123 bytes
IEEE 802.15.4 Data, Dst: ExeginTe_ff:ff:00:18:8a, Src: ExeginTe_ff:ff:00:18:88
    Frame Control Field: 0xcc41, Frame Type: Data, PAN ID Compression, Destination Addressing Mode: Long/64-bit, Frame Version: IEEE Std 802.15.4-2003, Source Addressing Mode: Long/64-bit
        .... .... .... .001 = Frame Type: Data (0x1)
        .... .... .... 0... = Security Enabled: False
        .... .... ...0 .... = Frame Pending: False
        .... .... ..0. .... = Acknowledge Request: False
        .... .... .1.. .... = PAN ID Compression: True
        .... ...0 .... .... = Sequence Number Suppression: False
        .... ..0. .... .... = Information Elements Present: False
        .... 11.. .... .... = Destination Addressing Mode: Long/64-bit (0x3)
        ..00 .... .... .... = Frame Version: IEEE Std 802.15.4-2003 (0)
        11.. .... .... .... = Source Addressing Mode: Long/64-bit (0x3)
    Sequence Number: 166
    Destination PAN: 0xffff
    Destination: ExeginTe_ff:ff:00:18:8a (00:1c:da:ff:ff:00:18:8a)
    Extended Source: ExeginTe_ff:ff:00:18:88 (00:1c:da:ff:ff:00:18:88)
    FCS: 0x7968 (Correct)
6LoWPAN
    Fragmentation Header
        1100 0... = Pattern: First fragment (0x18)
        Datagram size: 265
        Datagram tag: 0x0002
    HC1 Encoding
        0100 0010 = Pattern: Header compression (0x42)
        HC1 Encoding: 0xfa, Source prefix, Source interface, Destination prefix, Destination interface, Traffic class and flow label, Next header: UDP
            1... .... = Source prefix: Compressed
            .1.. .... = Source interface: Compressed
            ..1. .... = Destination prefix: Compressed
            ...1 .... = Destination interface: Compressed
            .... 1... = Traffic class and flow label: Compressed
            .... .01. = Next header: UDP (0x1)
            .... ...0 = More HC bits: False
    Hop limit: 64
    Source: fe80::21c:daff:ff00:1888
    Destination: fe80::21c:daff:ff00:188a
Data (133 bytes)
    Data: 6000000000e11140fe80000000000000021cdaffff001888...
    [Length: 133]

Frame (197 bytes):
0000  00 22 19 10 30 e5 00 1c da 00 00 01 08 00 45 00   ."..0.........E.
0010  00 b7 c7 f5 00 00 40 11 56 c3 ac 10 02 29 ac 10   ......@.V....)..
0020  01 34 45 5a 45 5a 00 a3 30 6a 45 58 02 01 00 00   .4EZEZ..0jEX....
0030  01 01 ff 00 0c d1 36 99 a2 f8 bd 00 05 c6 3a 00   ......6.......:.
0040  00 00 00 00 00 00 00 00 00 7b 41 cc a6 ff ff 8a   .........{A.....
0050  18 00 ff ff da 1c 00 88 18 00 ff ff da 1c 00 c1   ................
0060  09 00 02 42 fa 40 04 01 f0 b1 01 06 6f af 48 65   ...B.@......o.He
0070  6c 6c 6f 20 30 30 36 20 30 78 46 46 33 43 0a 00   llo 006 0xFF3C..
0080  12 13 14 15 16 17 18 19 1a 1b 1c 1d 1e 1f 20 21   .............. !
0090  22 23 24 25 26 27 28 29 2a 2b 2c 2d 2e 2f 30 31   "#$%&'()*+,-./01
00a0  32 33 34 35 36 37 38 39 3a 3b 3c 3d 3e 3f 40 41   23456789:;<=>?@A
00b0  42 43 44 45 46 47 48 49 4a 4b 4c 4d 4e 4f 50 51   BCDEFGHIJKLMNOPQ
00c0  52 53 54 68 79                                    RSThy
Decompressed 6LoWPAN HC1 (133 bytes):
0000  60 00 00 00 00 e1 11 40 fe 80 00 00 00 00 00 00   `......@........
0010  02 1c da ff ff 00 18 88 fe 80 00 00 00 00 00 00   ................
0020  02 1c da ff ff 00 18 8a 04 01 f0 b1 01 06 6f af   ..............o.
0030  48 65 6c 6c 6f 20 30 30 36 20 30 78 46 46 33 43   Hello 006 0xFF3C
0040  0a 00 12 13 14 15 16 17 18 19 1a 1b 1c 1d 1e 1f   ................
0050  20 21 22 23 24 25 26 27 28 29 2a 2b 2c 2d 2e 2f    !"#$%&'()*+,-./
0060  30 31 32 33 34 35 36 37 38 39 3a 3b 3c 3d 3e 3f   0123456789:;<=>?
0070  40 41 42 43 44 45 46 47 48 49 4a 4b 4c 4d 4e 4f   @ABCDEFGHIJKLMNO
0080  50 51 52 53 54                                    PQRST

Frame 6: 198 bytes on wire (1584 bits), 198 bytes captured (1584 bits)
    Encapsulation type: Ethernet (1)
    Arrival Time: Oct  1, 2009 20:04:12.830542000 CEST
    [Time shift for this packet: 0.000000000 seconds]
    Epoch Time: 1254420252.830542000 seconds
    [Time delta from previous captured frame: 0.057219000 seconds]
    [Time delta from previous displayed frame: 0.057219000 seconds]
    [Time since reference or first frame: 6.222875000 seconds]
    Frame Number: 6
    Frame Length: 198 bytes (1584 bits)
    Capture Length: 198 bytes (1584 bits)
    [Frame is marked: False]
    [Frame is ignored: False]
    [Protocols in frame: eth:ethertype:ip:udp:zep:wpan:6lowpan:data]
Ethernet II, Src: ExeginTe_00:00:01 (00:1c:da:00:00:01), Dst: Dell_10:30:e5 (00:22:19:10:30:e5)
    Destination: Dell_10:30:e5 (00:22:19:10:30:e5)
        Address: Dell_10:30:e5 (00:22:19:10:30:e5)
        .... ..0. .... .... .... .... = LG bit: Globally unique address (factory default)
        .... ...0 .... .... .... .... = IG bit: Individual address (unicast)
    Source: ExeginTe_00:00:01 (00:1c:da:00:00:01)
        Address: ExeginTe_00:00:01 (00:1c:da:00:00:01)
        .... ..0. .... .... .... .... = LG bit: Globally unique address (factory default)
        .... ...0 .... .... .... .... = IG bit: Individual address (unicast)
    Type: IPv4 (0x0800)
Internet Protocol Version 4, Src: 172.16.2.41, Dst: 172.16.1.52
    0100 .... = Version: 4
    .... 0101 = Header Length: 20 bytes (5)
    Differentiated Services Field: 0x00 (DSCP: CS0, ECN: Not-ECT)
        0000 00.. = Differentiated Services Codepoint: Default (0)
        .... ..00 = Explicit Congestion Notification: Not ECN-Capable Transport (0)
    Total Length: 184
    Identification: 0xc7f6 (51190)
    Flags: 0x0000
        0... .... .... .... = Reserved bit: Not set
        .0.. .... .... .... = Don't fragment: Not set
        ..0. .... .... .... = More fragments: Not set
        ...0 0000 0000 0000 = Fragment offset: 0
    Time to live: 64
    Protocol: UDP (17)
    Header checksum: 0x56c1 [validation disabled]
    [Header checksum status: Unverified]
    Source: 172.16.2.41
    Destination: 172.16.1.52
User Datagram Protocol, Src Port: 17754, Dst Port: 17754
    Source Port: 17754
    Destination Port: 17754
    Length: 164
    Checksum: 0x27f0 [unverified]
    [Checksum Status: Unverified]
    [Stream index: 0]
ZigBee Encapsulation Protocol, Channel: 0, Length: 124
    Protocol ID String: EX
    Protocol Version: 2
    Type: Data (1)
    Channel ID: 0
    Device ID: 1
    LQI/CRC Mode: CRC
    Link Quality Indication: 255
    Timestamp: Feb 17, 2036 00:48:06.657336999 CET
    Sequence Number: 378427
    .111 1100 = Length: 124 bytes
IEEE 802.15.4 Data, Dst: ExeginTe_ff:ff:00:18:8a, Src: ExeginTe_ff:ff:00:18:88
    Frame Control Field: 0xcc41, Frame Type: Data, PAN ID Compression, Destination Addressing Mode: Long/64-bit, Frame Version: IEEE Std 802.15.4-2003, Source Addressing Mode: Long/64-bit
        .... .... .... .001 = Frame Type: Data (0x1)
        .... .... .... 0... = Security Enabled: False
        .... .... ...0 .... = Frame Pending: False
        .... .... ..0. .... = Acknowledge Request: False
        .... .... .1.. .... = PAN ID Compression: True
        .... ...0 .... .... = Sequence Number Suppression: False
        .... ..0. .... .... = Information Elements Present: False
        .... 11.. .... .... = Destination Addressing Mode: Long/64-bit (0x3)
        ..00 .... .... .... = Frame Version: IEEE Std 802.15.4-2003 (0)
        11.. .... .... .... = Source Addressing Mode: Long/64-bit (0x3)
    Sequence Number: 167
    Destination PAN: 0xffff
    Destination: ExeginTe_ff:ff:00:18:8a (00:1c:da:ff:ff:00:18:8a)
    Extended Source: ExeginTe_ff:ff:00:18:88 (00:1c:da:ff:ff:00:18:88)
    FCS: 0x2155 (Correct)
6LoWPAN
    Fragmentation Header
        1110 0... = Pattern: Fragment (0x1c)
        Datagram size: 265
        Datagram tag: 0x0002
        Datagram offset: 96
Data (96 bytes)
    Data: 55565758595a5b5c5d5e5f606162636465666768696a6b6c...
    [Length: 96]

0000  00 22 19 10 30 e5 00 1c da 00 00 01 08 00 45 00   ."..0.........E.
0010  00 b8 c7 f6 00 00 40 11 56 c1 ac 10 02 29 ac 10   ......@.V....)..
0020  01 34 45 5a 45 5a 00 a4 27 f0 45 58 02 01 00 00   .4EZEZ..'.EX....
0030  01 01 ff 00 0c d1 36 a8 47 3c d5 00 05 c6 3b 00   ......6.G<....;.
0040  00 00 00 00 00 00 00 00 00 7c 41 cc a7 ff ff 8a   .........|A.....
0050  18 00 ff ff da 1c 00 88 18 00 ff ff da 1c 00 e1   ................
0060  09 00 02 0c 55 56 57 58 59 5a 5b 5c 5d 5e 5f 60   ....UVWXYZ[\]^_`
0070  61 62 63 64 65 66 67 68 69 6a 6b 6c 6d 6e 6f 70   abcdefghijklmnop
0080  71 72 73 74 75 76 77 78 79 7a 7b 7c 7d 7e 7f 80   qrstuvwxyz{|}~..
0090  81 82 83 84 85 86 87 88 89 8a 8b 8c 8d 8e 8f 90   ................
00a0  91 92 93 94 95 96 97 98 99 9a 9b 9c 9d 9e 9f a0   ................
00b0  a1 a2 a3 a4 a5 a6 a7 a8 a9 aa ab ac ad ae af b0   ................
00c0  b1 b2 b3 b4 55 21                                 ....U!

Frame 7: 198 bytes on wire (1584 bits), 198 bytes captured (1584 bits)
    Encapsulation type: Ethernet (1)
    Arrival Time: Oct  1, 2009 20:04:12.890195000 CEST
    [Time shift for this packet: 0.000000000 seconds]
    Epoch Time: 1254420252.890195000 seconds
    [Time delta from previous captured frame: 0.059653000 seconds]
    [Time delta from previous displayed frame: 0.059653000 seconds]
    [Time since reference or first frame: 6.282528000 seconds]
    Frame Number: 7
    Frame Length: 198 bytes (1584 bits)
    Capture Length: 198 bytes (1584 bits)
    [Frame is marked: False]
    [Frame is ignored: False]
    [Protocols in frame: eth:ethertype:ip:udp:zep:wpan:6lowpan:data]
Ethernet II, Src: ExeginTe_00:00:01 (00:1c:da:00:00:01), Dst: Dell_10:30:e5 (00:22:19:10:30:e5)
    Destination: Dell_10:30:e5 (00:22:19:10:30:e5)
        Address: Dell_10:30:e5 (00:22:19:10:30:e5)
        .... ..0. .... .... .... .... = LG bit: Globally unique address (factory default)
        .... ...0 .... .... .... .... = IG bit: Individual address (unicast)
    Source: ExeginTe_00:00:01 (00:1c:da:00:00:01)
        Address: ExeginTe_00:00:01 (00:1c:da:00:00:01)
        .... ..0. .... .... .... .... = LG bit: Globally unique address (factory default)
        .... ...0 .... .... .... .... = IG bit: Individual address (unicast)
    Type: IPv4 (0x0800)
Internet Protocol Version 4, Src: 172.16.2.41, Dst: 172.16.1.52
    0100 .... = Version: 4
    .... 0101 = Header Length: 20 bytes (5)
    Differentiated Services Field: 0x00 (DSCP: CS0, ECN: Not-ECT)
        0000 00.. = Differentiated Services Codepoint: Default (0)
        .... ..00 = Explicit Congestion Notification: Not ECN-Capable Transport (0)
    Total Length: 184
    Identification: 0xc7f7 (51191)
    Flags: 0x0000
        0... .... .... .... = Reserved bit: Not set
        .0.. .... .... .... = Don't fragment: Not set
        ..0. .... .... .... = More fragments: Not set
        ...0 0000 0000 0000 = Fragment offset: 0
    Time to live: 64
    Protocol: UDP (17)
    Header checksum: 0x56c0 [validation disabled]
    [Header checksum status: Unverified]
    Source: 172.16.2.41
    Destination: 172.16.1.52
User Datagram Protocol, Src Port: 17754, Dst Port: 17754
    Source Port: 17754
    Destination Port: 17754
    Length: 164
    Checksum: 0x6486 [unverified]
    [Checksum Status: Unverified]
    [Stream index: 0]
ZigBee Encapsulation Protocol, Channel: 0, Length: 124
    Protocol ID String: EX
    Protocol Version: 2
    Type: Data (1)
    Channel ID: 0
    Device ID: 1
    LQI/CRC Mode: CRC
    Link Quality Indication: 255
    Timestamp: Feb 17, 2036 00:48:06.716988999 CET
    Sequence Number: 378428
    .111 1100 = Length: 124 bytes
IEEE 802.15.4 Data, Dst: ExeginTe_ff:ff:00:18:8a, Src: ExeginTe_ff:ff:00:18:88
    Frame Control Field: 0xcc41, Frame Type: Data, PAN ID Compression, Destination Addressing Mode: Long/64-bit, Frame Version: IEEE Std 802.15.4-2003, Source Addressing Mode: Long/64-bit
        .... .... .... .001 = Frame Type: Data (0x1)
        .... .... .... 0... = Security Enabled: False
        .... .... ...0 .... = Frame Pending: False
        .... .... ..0. .... = Acknowledge Request: False
        .... .... .1.. .... = PAN ID Compression: True
        .... ...0 .... .... = Sequence Number Suppression: False
        .... ..0. .... .... = Information Elements Present: False
        .... 11.. .... .... = Destination Addressing Mode: Long/64-bit (0x3)
        ..00 .... .... .... = Frame Version: IEEE Std 802.15.4-2003 (0)
        11.. .... .... .... = Source Addressing Mode: Long/64-bit (0x3)
    Sequence Number: 167
    Destination PAN: 0xffff
    Destination: ExeginTe_ff:ff:00:18:8a (00:1c:da:ff:ff:00:18:8a)
    Extended Source: ExeginTe_ff:ff:00:18:88 (00:1c:da:ff:ff:00:18:88)
    FCS: 0x2155 (Correct)
6LoWPAN
    Fragmentation Header
        1110 0... = Pattern: Fragment (0x1c)
        Datagram size: 265
        Datagram tag: 0x0002
        Datagram offset: 96
Data (96 bytes)
    Data: 55565758595a5b5c5d5e5f606162636465666768696a6b6c...
    [Length: 96]

0000  00 22 19 10 30 e5 00 1c da 00 00 01 08 00 45 00   ."..0.........E.
0010  00 b8 c7 f7 00 00 40 11 56 c0 ac 10 02 29 ac 10   ......@.V....)..
0020  01 34 45 5a 45 5a 00 a4 64 86 45 58 02 01 00 00   .4EZEZ..d.EX....
0030  01 01 ff 00 0c d1 36 b7 8c 97 52 00 05 c6 3c 00   ......6...R...<.
0040  00 00 00 00 00 00 00 00 00 7c 41 cc a7 ff ff 8a   .........|A.....
0050  18 00 ff ff da 1c 00 88 18 00 ff ff da 1c 00 e1   ................
0060  09 00 02 0c 55 56 57 58 59 5a 5b 5c 5d 5e 5f 60   ....UVWXYZ[\]^_`
0070  61 62 63 64 65 66 67 68 69 6a 6b 6c 6d 6e 6f 70   abcdefghijklmnop
0080  71 72 73 74 75 76 77 78 79 7a 7b 7c 7d 7e 7f 80   qrstuvwxyz{|}~..
0090  81 82 83 84 85 86 87 88 89 8a 8b 8c 8d 8e 8f 90   ................
00a0  91 92 93 94 95 96 97 98 99 9a 9b 9c 9d 9e 9f a0   ................
00b0  a1 a2 a3 a4 a5 a6 a7 a8 a9 aa ab ac ad ae af b0   ................
00c0  b1 b2 b3 b4 55 21                                 ....U!

Frame 8: 175 bytes on wire (1400 bits), 175 bytes captured (1400 bits)
    Encapsulation type: Ethernet (1)
    Arrival Time: Oct  1, 2009 20:04:12.939750000 CEST
    [Time shift for this packet: 0.000000000 seconds]
    Epoch Time: 1254420252.939750000 seconds
    [Time delta from previous captured frame: 0.049555000 seconds]
    [Time delta from previous displayed frame: 0.049555000 seconds]
    [Time since reference or first frame: 6.332083000 seconds]
    Frame Number: 8
    Frame Length: 175 bytes (1400 bits)
    Capture Length: 175 bytes (1400 bits)
    [Frame is marked: False]
    [Frame is ignored: False]
    [Protocols in frame: eth:ethertype:ip:udp:zep:wpan:6lowpan:ipv6:udp:data]
Ethernet II, Src: ExeginTe_00:00:01 (00:1c:da:00:00:01), Dst: Dell_10:30:e5 (00:22:19:10:30:e5)
    Destination: Dell_10:30:e5 (00:22:19:10:30:e5)
        Address: Dell_10:30:e5 (00:22:19:10:30:e5)
        .... ..0. .... .... .... .... = LG bit: Globally unique address (factory default)
        .... ...0 .... .... .... .... = IG bit: Individual address (unicast)
    Source: ExeginTe_00:00:01 (00:1c:da:00:00:01)
        Address: ExeginTe_00:00:01 (00:1c:da:00:00:01)
        .... ..0. .... .... .... .... = LG bit: Globally unique address (factory default)
        .... ...0 .... .... .... .... = IG bit: Individual address (unicast)
    Type: IPv4 (0x0800)
Internet Protocol Version 4, Src: 172.16.2.41, Dst: 172.16.1.52
    0100 .... = Version: 4
    .... 0101 = Header Length: 20 bytes (5)
    Differentiated Services Field: 0x00 (DSCP: CS0, ECN: Not-ECT)
        0000 00.. = Differentiated Services Codepoint: Default (0)
        .... ..00 = Explicit Congestion Notification: Not ECN-Capable Transport (0)
    Total Length: 161
    Identification: 0xc7f8 (51192)
    Flags: 0x0000
        0... .... .... .... = Reserved bit: Not set
        .0.. .... .... .... = Don't fragment: Not set
        ..0. .... .... .... = More fragments: Not set
        ...0 0000 0000 0000 = Fragment offset: 0
    Time to live: 64
    Protocol: UDP (17)
    Header checksum: 0x56d6 [validation disabled]
    [Header checksum status: Unverified]
    Source: 172.16.2.41
    Destination: 172.16.1.52
User Datagram Protocol, Src Port: 17754, Dst Port: 17754
    Source Port: 17754
    Destination Port: 17754
    Length: 141
    Checksum: 0xd618 [unverified]
    [Checksum Status: Unverified]
    [Stream index: 0]
ZigBee Encapsulation Protocol, Channel: 0, Length: 101
    Protocol ID String: EX
    Protocol Version: 2
    Type: Data (1)
    Channel ID: 0
    Device ID: 1
    LQI/CRC Mode: CRC
    Link Quality Indication: 255
    Timestamp: Feb 17, 2036 00:48:06.766558999 CET
    Sequence Number: 378429
    .110 0101 = Length: 101 bytes
IEEE 802.15.4 Data, Dst: ExeginTe_ff:ff:00:18:8a, Src: ExeginTe_ff:ff:00:18:88
    Frame Control Field: 0xcc41, Frame Type: Data, PAN ID Compression, Destination Addressing Mode: Long/64-bit, Frame Version: IEEE Std 802.15.4-2003, Source Addressing Mode: Long/64-bit
        .... .... .... .001 = Frame Type: Data (0x1)
        .... .... .... 0... = Security Enabled: False
        .... .... ...0 .... = Frame Pending: False
        .... .... ..0. .... = Acknowledge Request: False
        .... .... .1.. .... = PAN ID Compression: True
        .... ...0 .... .... = Sequence Number Suppression: False
        .... ..0. .... .... = Information Elements Present: False
        .... 11.. .... .... = Destination Addressing Mode: Long/64-bit (0x3)
        ..00 .... .... .... = Frame Version: IEEE Std 802.15.4-2003 (0)
        11.. .... .... .... = Source Addressing Mode: Long/64-bit (0x3)
    Sequence Number: 168
    Destination PAN: 0xffff
    Destination: ExeginTe_ff:ff:00:18:8a (00:1c:da:ff:ff:00:18:8a)
    Extended Source: ExeginTe_ff:ff:00:18:88 (00:1c:da:ff:ff:00:18:88)
    FCS: 0xf581 (Correct)
6LoWPAN
    Fragmentation Header
        1110 0... = Pattern: Fragment (0x1c)
        Datagram size: 265
        Datagram tag: 0x0002
        Datagram offset: 192
    [5 Message fragments (265 bytes): #4(133), #5(133), #6(96), #7(96), #8(73)]
        [Frame: 4, payload: 0-132 (133 bytes)]
        [Frame: 5, payload: 0-132 (133 bytes)]
        [Frame: 6, payload: 96-191 (96 bytes)]
            [Message fragment overlap: True]
            [Message fragment overlapping with conflicting data: True]
        [Frame: 7, payload: 96-191 (96 bytes)]
        [Frame: 8, payload: 192-264 (73 bytes)]
        [Message fragment count: 5]
        [Reassembled 6LoWPAN length: 265]
Internet Protocol Version 6, Src: fe80::21c:daff:ff00:1888, Dst: fe80::21c:daff:ff00:188a
    0110 .... = Version: 6
    .... 0000 0000 .... .... .... .... .... = Traffic Class: 0x00 (DSCP: CS0, ECN: Not-ECT)
        .... 0000 00.. .... .... .... .... .... = Differentiated Services Codepoint: Default (0)
        .... .... ..00 .... .... .... .... .... = Explicit Congestion Notification: Not ECN-Capable Transport (0)
    .... .... .... 0000 0000 0000 0000 0000 = Flow Label: 0x00000
    Payload Length: 225
    Next Header: UDP (17)
    Hop Limit: 64
    Source: fe80::21c:daff:ff00:1888
    Destination: fe80::21c:daff:ff00:188a
User Datagram Protocol, Src Port: 1025, Dst Port: 61617
    Source Port: 1025
    Destination Port: 61617
    Length: 262 (bogus, payload length 225)
        [Expert Info (Error/Malformed): Bad length value 262 > IP payload length]
            [Bad length value 262 > IP payload length]
            [Severity level: Error]
            [Group: Malformed]
    Checksum: 0x6faf [unverified]
    [Checksum Status: Unverified]
    [Stream index: 2]
Data (217 bytes)
    Data: 48656c6c6f20303036203078464633430a00121314151617...
    [Length: 217]

Frame (175 bytes):
0000  00 22 19 10 30 e5 00 1c da 00 00 01 08 00 45 00   ."..0.........E.
0010  00 a1 c7 f8 00 00 40 11 56 d6 ac 10 02 29 ac 10   ......@.V....)..
0020  01 34 45 5a 45 5a 00 8d d6 18 45 58 02 01 00 00   .4EZEZ....EX....
0030  01 01 ff 00 0c d1 36 c4 3d 35 eb 00 05 c6 3d 00   ......6.=5....=.
0040  00 00 00 00 00 00 00 00 00 65 41 cc a8 ff ff 8a   .........eA.....
0050  18 00 ff ff da 1c 00 88 18 00 ff ff da 1c 00 e1   ................
0060  09 00 02 18 b5 b6 b7 b8 b9 ba bb bc bd be bf c0   ................
0070  c1 c2 c3 c4 c5 c6 c7 c8 c9 ca cb cc cd ce cf d0   ................
0080  d1 d2 d3 d4 d5 d6 d7 d8 d9 da db dc dd de df e0   ................
0090  e1 e2 e3 e4 e5 e6 e7 e8 e9 ea eb ec ed ee ef f0   ................
00a0  f1 f2 f3 f4 f5 f6 f7 f8 f9 fa fb fc fd 81 f5      ...............
Reassembled 6LoWPAN (265 bytes):
0000  60 00 00 00 00 e1 11 40 fe 80 00 00 00 00 00 00   `......@........
0010  02 1c da ff ff 00 18 88 fe 80 00 00 00 00 00 00   ................
0020  02 1c da ff ff 00 18 8a 04 01 f0 b1 01 06 6f af   ..............o.
0030  48 65 6c 6c 6f 20 30 30 36 20 30 78 46 46 33 43   Hello 006 0xFF3C
0040  0a 00 12 13 14 15 16 17 18 19 1a 1b 1c 1d 1e 1f   ................
0050  20 21 22 23 24 25 26 27 28 29 2a 2b 2c 2d 2e 2f    !"#$%&'()*+,-./
0060  30 31 32 33 34 35 36 37 38 39 3a 3b 3c 3d 3e 3f   0123456789:;<=>?
0070  40 41 42 43 44 45 46 47 48 49 4a 4b 4c 4d 4e 4f   @ABCDEFGHIJKLMNO
0080  50 51 52 53 54 7a 7b 7c 7d 7e 7f 80 81 82 83 84   PQRSTz{|}~......
0090  85 86 87 88 89 8a 8b 8c 8d 8e 8f 90 91 92 93 94   ................
00a0  95 96 97 98 99 9a 9b 9c 9d 9e 9f a0 a1 a2 a3 a4   ................
00b0  a5 a6 a7 a8 a9 aa ab ac ad ae af b0 b1 b2 b3 b4   ................
00c0  b5 b6 b7 b8 b9 ba bb bc bd be bf c0 c1 c2 c3 c4   ................
00d0  c5 c6 c7 c8 c9 ca cb cc cd ce cf d0 d1 d2 d3 d4   ................
00e0  d5 d6 d7 d8 d9 da db dc dd de df e0 e1 e2 e3 e4   ................
00f0  e5 e6 e7 e8 e9 ea eb ec ed ee ef f0 f1 f2 f3 f4   ................
0100  f5 f6 f7 f8 f9 fa fb fc fd                        .........

Frame 9: 175 bytes on wire (1400 bits), 175 bytes captured (1400 bits)
    Encapsulation type: Ethernet (1)
    Arrival Time: Oct  1, 2009 20:04:12.986198000 CEST
    [Time shift for this packet: 0.000000000 seconds]
    Epoch Time: 1254420252.986198000 seconds
    [Time delta from previous captured frame: 0.046448000 seconds]
    [Time delta from previous displayed frame: 0.046448000 seconds]
    [Time since reference or first frame: 6.378531000 seconds]
    Frame Number: 9
    Frame Length: 175 bytes (1400 bits)
    Capture Length: 175 bytes (1400 bits)
    [Frame is marked: False]
    [Frame is ignored: False]
    [Protocols in frame: eth:ethertype:ip:udp:zep:wpan:6lowpan:data]
Ethernet II, Src: ExeginTe_00:00:01 (00:1c:da:00:00:01), Dst: Dell_10:30:e5 (00:22:19:10:30:e5)
    Destination: Dell_10:30:e5 (00:22:19:10:30:e5)
        Address: Dell_10:30:e5 (00:22:19:10:30:e5)
        .... ..0. .... .... .... .... = LG bit: Globally unique address (factory default)
        .... ...0 .... .... .... .... = IG bit: Individual address (unicast)
    Source: ExeginTe_00:00:01 (00:1c:da:00:00:01)
        Address: ExeginTe_00:00:01 (00:1c:da:00:00:01)
        .... ..0. .... .... .... .... = LG bit: Globally unique address (factory default)
        .... ...0 .... .... .... .... = IG bit: Individual address (unicast)
    Type: IPv4 (0x0800)
Internet Protocol Version 4, Src: 172.16.2.41, Dst: 172.16.1.52
    0100 .... = Version: 4
    .... 0101 = Header Length: 20 bytes (5)
    Differentiated Services Field: 0x00 (DSCP: CS0, ECN: Not-ECT)
        0000 00.. = Differentiated Services Codepoint: Default (0)
        .... ..00 = Explicit Congestion Notification: Not ECN-Capable Transport (0)
    Total Length: 161
    Identification: 0xc7f9 (51193)
    Flags: 0x0000
        0... .... .... .... = Reserved bit: Not set
        .0.. .... .... .... = Don't fragment: Not set
        ..0. .... .... .... = More fragments: Not set
        ...0 0000 0000 0000 = Fragment offset: 0
    Time to live: 64
    Protocol: UDP (17)
    Header checksum: 0x56d5 [validation disabled]
    [Header checksum status: Unverified]
    Source: 172.16.2.41
    Destination: 172.16.1.52
User Datagram Protocol, Src Port: 17754, Dst Port: 17754
    Source Port: 17754
    Destination Port: 17754
    Length: 141
    Checksum: 0x01de [unverified]
    [Checksum Status: Unverified]
    [Stream index: 0]
ZigBee Encapsulation Protocol, Channel: 0, Length: 101
    Protocol ID String: EX
    Protocol Version: 2
    Type: Data (1)
    Channel ID: 0
    Device ID: 1
    LQI/CRC Mode: CRC
    Link Quality Indication: 255
    Timestamp: Feb 17, 2036 00:48:06.812917999 CET
    Sequence Number: 378430
    .110 0101 = Length: 101 bytes
IEEE 802.15.4 Data, Dst: ExeginTe_ff:ff:00:18:8a, Src: ExeginTe_ff:ff:00:18:88
    Frame Control Field: 0xcc41, Frame Type: Data, PAN ID Compression, Destination Addressing Mode: Long/64-bit, Frame Version: IEEE Std 802.15.4-2003, Source Addressing Mode: Long/64-bit
        .... .... .... .001 = Frame Type: Data (0x1)
        .... .... .... 0... = Security Enabled: False
        .... .... ...0 .... = Frame Pending: False
        .... .... ..0. .... = Acknowledge Request: False
        .... .... .1.. .... = PAN ID Compression: True
        .... ...0 .... .... = Sequence Number Suppression: False
        .... ..0. .... .... = Information Elements Present: False
        .... 11.. .... .... = Destination Addressing Mode: Long/64-bit (0x3)
        ..00 .... .... .... = Frame Version: IEEE Std 802.15.4-2003 (0)
        11.. .... .... .... = Source Addressing Mode: Long/64-bit (0x3)
    Sequence Number: 168
    Destination PAN: 0xffff
    Destination: ExeginTe_ff:ff:00:18:8a (00:1c:da:ff:ff:00:18:8a)
    Extended Source: ExeginTe_ff:ff:00:18:88 (00:1c:da:ff:ff:00:18:88)
    FCS: 0xf581 (Correct)
6LoWPAN
    Fragmentation Header
        1110 0... = Pattern: Fragment (0x1c)
        Datagram size: 265
        Datagram tag: 0x0002
        Datagram offset: 192
Data (73 bytes)
    Data: b5b6b7b8b9babbbcbdbebfc0c1c2c3c4c5c6c7c8c9cacbcc...
    [Length: 73]

0000  00 22 19 10 30 e5 00 1c da 00 00 01 08 00 45 00   ."..0.........E.
0010  00 a1 c7 f9 00 00 40 11 56 d5 ac 10 02 29 ac 10   ......@.V....)..
0020  01 34 45 5a 45 5a 00 8d 01 de 45 58 02 01 00 00   .4EZEZ....EX....
0030  01 01 ff 00 0c d1 36 d0 1b 64 e0 00 05 c6 3e 00   ......6..d....>.
0040  00 00 00 00 00 00 00 00 00 65 41 cc a8 ff ff 8a   .........eA.....
0050  18 00 ff ff da 1c 00 88 18 00 ff ff da 1c 00 e1   ................
0060  09 00 02 18 b5 b6 b7 b8 b9 ba bb bc bd be bf c0   ................
0070  c1 c2 c3 c4 c5 c6 c7 c8 c9 ca cb cc cd ce cf d0   ................
0080  d1 d2 d3 d4 d5 d6 d7 d8 d9 da db dc dd de df e0   ................
0090  e1 e2 e3 e4 e5 e6 e7 e8 e9 ea eb ec ed ee ef f0   ................
00a0  f1 f2 f3 f4 f5 f6 f7 f8 f9 fa fb fc fd 81 f5      ...............

Frame 10: 197 bytes on wire (1576 bits), 197 bytes captured (1576 bits)
    Encapsulation type: Ethernet (1)
    Arrival Time: Oct  1, 2009 20:04:15.054222000 CEST
    [Time shift for this packet: 0.000000000 seconds]
    Epoch Time: 1254420255.054222000 seconds
    [Time delta from previous captured frame: 2.068024000 seconds]
    [Time delta from previous displayed frame: 2.068024000 seconds]
    [Time since reference or first frame: 8.446555000 seconds]
    Frame Number: 10
    Frame Length: 197 bytes (1576 bits)
    Capture Length: 197 bytes (1576 bits)
    [Frame is marked: False]
    [Frame is ignored: False]
    [Protocols in frame: eth:ethertype:ip:udp:zep:wpan:6lowpan:data]
Ethernet II, Src: ExeginTe_00:00:01 (00:1c:da:00:00:01), Dst: Dell_10:30:e5 (00:22:19:10:30:e5)
    Destination: Dell_10:30:e5 (00:22:19:10:30:e5)
        Address: Dell_10:30:e5 (00:22:19:10:30:e5)
        .... ..0. .... .... .... .... = LG bit: Globally unique address (factory default)
        .... ...0 .... .... .... .... = IG bit: Individual address (unicast)
    Source: ExeginTe_00:00:01 (00:1c:da:00:00:01)
        Address: ExeginTe_00:00:01 (00:1c:da:00:00:01)
        .... ..0. .... .... .... .... = LG bit: Globally unique address (factory default)
        .... ...0 .... .... .... .... = IG bit: Individual address (unicast)
    Type: IPv4 (0x0800)
Internet Protocol Version 4, Src: 172.16.2.41, Dst: 172.16.1.52
    0100 .... = Version: 4
    .... 0101 = Header Length: 20 bytes (5)
    Differentiated Services Field: 0x00 (DSCP: CS0, ECN: Not-ECT)
        0000 00.. = Differentiated Services Codepoint: Default (0)
        .... ..00 = Explicit Congestion Notification: Not ECN-Capable Transport (0)
    Total Length: 183
    Identification: 0xc7fa (51194)
    Flags: 0x0000
        0... .... .... .... = Reserved bit: Not set
        .0.. .... .... .... = Don't fragment: Not set
        ..0. .... .... .... = More fragments: Not set
        ...0 0000 0000 0000 = Fragment offset: 0
    Time to live: 64
    Protocol: UDP (17)
    Header checksum: 0x56be [validation disabled]
    [Header checksum status: Unverified]
    Source: 172.16.2.41
    Destination: 172.16.1.52
User Datagram Protocol, Src Port: 17754, Dst Port: 17754
    Source Port: 17754
    Destination Port: 17754
    Length: 163
    Checksum: 0xa2d6 [unverified]
    [Checksum Status: Unverified]
    [Stream index: 0]
ZigBee Encapsulation Protocol, Channel: 0, Length: 123
    Protocol ID String: EX
    Protocol Version: 2
    Type: Data (1)
    Channel ID: 0
    Device ID: 1
    LQI/CRC Mode: CRC
    Link Quality Indication: 255
    Timestamp: Feb 17, 2036 00:48:08.881017999 CET
    Sequence Number: 378431
    .111 1011 = Length: 123 bytes
IEEE 802.15.4 Data, Dst: ExeginTe_ff:ff:00:18:8a, Src: ExeginTe_ff:ff:00:18:88
    Frame Control Field: 0xcc41, Frame Type: Data, PAN ID Compression, Destination Addressing Mode: Long/64-bit, Frame Version: IEEE Std 802.15.4-2003, Source Addressing Mode: Long/64-bit
        .... .... .... .001 = Frame Type: Data (0x1)
        .... .... .... 0... = Security Enabled: False
        .... .... ...0 .... = Frame Pending: False
        .... .... ..0. .... = Acknowledge Request: False
        .... .... .1.. .... = PAN ID Compression: True
        .... ...0 .... .... = Sequence Number Suppression: False
        .... ..0. .... .... = Information Elements Present: False
        .... 11.. .... .... = Destination Addressing Mode: Long/64-bit (0x3)
        ..00 .... .... .... = Frame Version: IEEE Std 802.15.4-2003 (0)
        11.. .... .... .... = Source Addressing Mode: Long/64-bit (0x3)
    Sequence Number: 169
    Destination PAN: 0xffff
    Destination: ExeginTe_ff:ff:00:18:8a (00:1c:da:ff:ff:00:18:8a)
    Extended Source: ExeginTe_ff:ff:00:18:88 (00:1c:da:ff:ff:00:18:88)
    FCS: 0xd402 (Correct)
6LoWPAN
    Fragmentation Header
        1100 0... = Pattern: First fragment (0x18)
        Datagram size: 263
        Datagram tag: 0x0003
    HC1 Encoding
        0100 0010 = Pattern: Header compression (0x42)
        HC1 Encoding: 0xfb, Source prefix, Source interface, Destination prefix, Destination interface, Traffic class and flow label, Next header: UDP, More HC bits
            1... .... = Source prefix: Compressed
            .1.. .... = Source interface: Compressed
            ..1. .... = Destination prefix: Compressed
            ...1 .... = Destination interface: Compressed
            .... 1... = Traffic class and flow label: Compressed
            .... .01. = Next header: UDP (0x1)
            .... ...1 = More HC bits: True
    HC_UDP Encoding: 0x60, Destination port, Length
        0... .... = Source port: Inline
        .1.. .... = Destination port: Compressed
        ..1. .... = Length: Compressed
    Hop limit: 64
    Source: fe80::21c:daff:ff00:1888
    Destination: fe80::21c:daff:ff00:188a
    Source port: 1025
    Destination port: 61617
    UDP checksum: 0x78c3
Data (135 bytes)
    Data: 6000000000df1140fe80000000000000021cdaffff001888...
    [Length: 135]

Frame (197 bytes):
0000  00 22 19 10 30 e5 00 1c da 00 00 01 08 00 45 00   ."..0.........E.
0010  00 b7 c7 fa 00 00 40 11 56 be ac 10 02 29 ac 10   ......@.V....)..
0020  01 34 45 5a 45 5a 00 a3 a2 d6 45 58 02 01 00 00   .4EZEZ....EX....
0030  01 01 ff 00 0c d1 38 e1 8a 65 49 00 05 c6 3f 00   ......8..eI...?.
0040  00 00 00 00 00 00 00 00 00 7b 41 cc a9 ff ff 8a   .........{A.....
0050  18 00 ff ff da 1c 00 88 18 00 ff ff da 1c 00 c1   ................
0060  07 00 03 42 fb 60 40 04 01 17 8c 30 48 65 6c 6c   ...B.`@....0Hell
0070  6f 20 30 30 37 20 30 78 36 42 39 33 0a 00 12 13   o 007 0x6B93....
0080  14 15 16 17 18 19 1a 1b 1c 1d 1e 1f 20 21 22 23   ............ !"#
0090  24 25 26 27 28 29 2a 2b 2c 2d 2e 2f 30 31 32 33   $%&'()*+,-./0123
00a0  34 35 36 37 38 39 3a 3b 3c 3d 3e 3f 40 41 42 43   456789:;<=>?@ABC
00b0  44 45 46 47 48 49 4a 4b 4c 4d 4e 4f 50 51 52 53   DEFGHIJKLMNOPQRS
00c0  54 55 56 02 d4                                    TUV..
Decompressed 6LoWPAN HC1 (135 bytes):
0000  60 00 00 00 00 df 11 40 fe 80 00 00 00 00 00 00   `......@........
0010  02 1c da ff ff 00 18 88 fe 80 00 00 00 00 00 00   ................
0020  02 1c da ff ff 00 18 8a 04 01 f0 b1 00 df 78 c3   ..............x.
0030  48 65 6c 6c 6f 20 30 30 37 20 30 78 36 42 39 33   Hello 007 0x6B93
0040  0a 00 12 13 14 15 16 17 18 19 1a 1b 1c 1d 1e 1f   ................
0050  20 21 22 23 24 25 26 27 28 29 2a 2b 2c 2d 2e 2f    !"#$%&'()*+,-./
0060  30 31 32 33 34 35 36 37 38 39 3a 3b 3c 3d 3e 3f   0123456789:;<=>?
0070  40 41 42 43 44 45 46 47 48 49 4a 4b 4c 4d 4e 4f   @ABCDEFGHIJKLMNO
0080  50 51 52 53 54 55 56                              PQRSTUV

Frame 11: 198 bytes on wire (1584 bits), 198 bytes captured (1584 bits)
    Encapsulation type: Ethernet (1)
    Arrival Time: Oct  1, 2009 20:04:15.111436000 CEST
    [Time shift for this packet: 0.000000000 seconds]
    Epoch Time: 1254420255.111436000 seconds
    [Time delta from previous captured frame: 0.057214000 seconds]
    [Time delta from previous displayed frame: 0.057214000 seconds]
    [Time since reference or first frame: 8.503769000 seconds]
    Frame Number: 11
    Frame Length: 198 bytes (1584 bits)
    Capture Length: 198 bytes (1584 bits)
    [Frame is marked: False]
    [Frame is ignored: False]
    [Protocols in frame: eth:ethertype:ip:udp:zep:wpan:6lowpan:data]
Ethernet II, Src: ExeginTe_00:00:01 (00:1c:da:00:00:01), Dst: Dell_10:30:e5 (00:22:19:10:30:e5)
    Destination: Dell_10:30:e5 (00:22:19:10:30:e5)
        Address: Dell_10:30:e5 (00:22:19:10:30:e5)
        .... ..0. .... .... .... .... = LG bit: Globally unique address (factory default)
        .... ...0 .... .... .... .... = IG bit: Individual address (unicast)
    Source: ExeginTe_00:00:01 (00:1c:da:00:00:01)
        Address: ExeginTe_00:00:01 (00:1c:da:00:00:01)
        .... ..0. .... .... .... .... = LG bit: Globally unique address (factory default)
        .... ...0 .... .... .... .... = IG bit: Individual address (unicast)
    Type: IPv4 (0x0800)
Internet Protocol Version 4, Src: 172.16.2.41, Dst: 172.16.1.52
    0100 .... = Version: 4
    .... 0101 = Header Length: 20 bytes (5)
    Differentiated Services Field: 0x00 (DSCP: CS0, ECN: Not-ECT)
        0000 00.. = Differentiated Services Codepoint: Default (0)
        .... ..00 = Explicit Congestion Notification: Not ECN-Capable Transport (0)
    Total Length: 184
    Identification: 0xc7fb (51195)
    Flags: 0x0000
        0... .... .... .... = Reserved bit: Not set
        .0.. .... .... .... = Don't fragment: Not set
        ..0. .... .... .... = More fragments: Not set
        ...0 0000 0000 0000 = Fragment offset: 0
    Time to live: 64
    Protocol: UDP (17)
    Header checksum: 0x56bc [validation disabled]
    [Header checksum status: Unverified]
    Source: 172.16.2.41
    Destination: 172.16.1.52
User Datagram Protocol, Src Port: 17754, Dst Port: 17754
    Source Port: 17754
    Destination Port: 17754
    Length: 164
    Checksum: 0x5da5 [unverified]
    [Checksum Status: Unverified]
    [Stream index: 0]
ZigBee Encapsulation Protocol, Channel: 0, Length: 124
    Protocol ID String: EX
    Protocol Version: 2
    Type: Data (1)
    Channel ID: 0
    Device ID: 1
    LQI/CRC Mode: CRC
    Link Quality Indication: 255
    Timestamp: Feb 17, 2036 00:48:08.938250999 CET
    Sequence Number: 378432
    .111 1100 = Length: 124 bytes
IEEE 802.15.4 Data, Dst: ExeginTe_ff:ff:00:18:8a, Src: ExeginTe_ff:ff:00:18:88
    Frame Control Field: 0xcc41, Frame Type: Data, PAN ID Compression, Destination Addressing Mode: Long/64-bit, Frame Version: IEEE Std 802.15.4-2003, Source Addressing Mode: Long/64-bit
        .... .... .... .001 = Frame Type: Data (0x1)
        .... .... .... 0... = Security Enabled: False
        .... .... ...0 .... = Frame Pending: False
        .... .... ..0. .... = Acknowledge Request: False
        .... .... .1.. .... = PAN ID Compression: True
        .... ...0 .... .... = Sequence Number Suppression: False
        .... ..0. .... .... = Information Elements Present: False
        .... 11.. .... .... = Destination Addressing Mode: Long/64-bit (0x3)
        ..00 .... .... .... = Frame Version: IEEE Std 802.15.4-2003 (0)
        11.. .... .... .... = Source Addressing Mode: Long/64-bit (0x3)
    Sequence Number: 170
    Destination PAN: 0xffff
    Destination: ExeginTe_ff:ff:00:18:8a (00:1c:da:ff:ff:00:18:8a)
    Extended Source: ExeginTe_ff:ff:00:18:88 (00:1c:da:ff:ff:00:18:88)
    FCS: 0xc8f0 (Correct)
6LoWPAN
    Fragmentation Header
        1110 0... = Pattern: Fragment (0x1c)
        Datagram size: 263
        Datagram tag: 0x0003
        Datagram offset: 96
Data (96 bytes)
    Data: 5758595a5b5c5d5e5f606162636465666768696a6b6c6d6e...
    [Length: 96]

0000  00 22 19 10 30 e5 00 1c da 00 00 01 08 00 45 00   ."..0.........E.
0010  00 b8 c7 fb 00 00 40 11 56 bc ac 10 02 29 ac 10   ......@.V....)..
0020  01 34 45 5a 45 5a 00 a4 5d a5 45 58 02 01 00 00   .4EZEZ..].EX....
0030  01 01 ff 00 0c d1 38 f0 31 37 b0 00 05 c6 40 00   ......8.17....@.
0040  00 00 00 00 00 00 00 00 00 7c 41 cc aa ff ff 8a   .........|A.....
0050  18 00 ff ff da 1c 00 88 18 00 ff ff da 1c 00 e1   ................
0060  07 00 03 0c 57 58 59 5a 5b 5c 5d 5e 5f 60 61 62   ....WXYZ[\]^_`ab
0070  63 64 65 66 67 68 69 6a 6b 6c 6d 6e 6f 70 71 72   cdefghijklmnopqr
0080  73 74 75 76 77 78 79 7a 7b 7c 7d 7e 7f 80 81 82   stuvwxyz{|}~....
0090  83 84 85 86 87 88 89 8a 8b 8c 8d 8e 8f 90 91 92   ................
00a0  93 94 95 96 97 98 99 9a 9b 9c 9d 9e 9f a0 a1 a2   ................
00b0  a3 a4 a5 a6 a7 a8 a9 aa ab ac ad ae af b0 b1 b2   ................
00c0  b3 b4 b5 b6 f0 c8                                 ......

Frame 12: 173 bytes on wire (1384 bits), 173 bytes captured (1384 bits)
    Encapsulation type: Ethernet (1)
    Arrival Time: Oct  1, 2009 20:04:15.162165000 CEST
    [Time shift for this packet: 0.000000000 seconds]
    Epoch Time: 1254420255.162165000 seconds
    [Time delta from previous captured frame: 0.050729000 seconds]
    [Time delta from previous displayed frame: 0.050729000 seconds]
    [Time since reference or first frame: 8.554498000 seconds]
    Frame Number: 12
    Frame Length: 173 bytes (1384 bits)
    Capture Length: 173 bytes (1384 bits)
    [Frame is marked: False]
    [Frame is ignored: False]
    [Protocols in frame: eth:ethertype:ip:udp:zep:wpan:6lowpan:ipv6:udp:data]
Ethernet II, Src: ExeginTe_00:00:01 (00:1c:da:00:00:01), Dst: Dell_10:30:e5 (00:22:19:10:30:e5)
    Destination: Dell_10:30:e5 (00:22:19:10:30:e5)
        Address: Dell_10:30:e5 (00:22:19:10:30:e5)
        .... ..0. .... .... .... .... = LG bit: Globally unique address (factory default)
        .... ...0 .... .... .... .... = IG bit: Individual address (unicast)
    Source: ExeginTe_00:00:01 (00:1c:da:00:00:01)
        Address: ExeginTe_00:00:01 (00:1c:da:00:00:01)
        .... ..0. .... .... .... .... = LG bit: Globally unique address (factory default)
        .... ...0 .... .... .... .... = IG bit: Individual address (unicast)
    Type: IPv4 (0x0800)
Internet Protocol Version 4, Src: 172.16.2.41, Dst: 172.16.1.52
    0100 .... = Version: 4
    .... 0101 = Header Length: 20 bytes (5)
    Differentiated Services Field: 0x00 (DSCP: CS0, ECN: Not-ECT)
        0000 00.. = Differentiated Services Codepoint: Default (0)
        .... ..00 = Explicit Congestion Notification: Not ECN-Capable Transport (0)
    Total Length: 159
    Identification: 0xc7fc (51196)
    Flags: 0x0000
        0... .... .... .... = Reserved bit: Not set
        .0.. .... .... .... = Don't fragment: Not set
        ..0. .... .... .... = More fragments: Not set
        ...0 0000 0000 0000 = Fragment offset: 0
    Time to live: 64
    Protocol: UDP (17)
    Header checksum: 0x56d4 [validation disabled]
    [Header checksum status: Unverified]
    Source: 172.16.2.41
    Destination: 172.16.1.52
User Datagram Protocol, Src Port: 17754, Dst Port: 17754
    Source Port: 17754
    Destination Port: 17754
    Length: 139
    Checksum: 0xa45a [unverified]
    [Checksum Status: Unverified]
    [Stream index: 0]
ZigBee Encapsulation Protocol, Channel: 0, Length: 99
    Protocol ID String: EX
    Protocol Version: 2
    Type: Data (1)
    Channel ID: 0
    Device ID: 1
    LQI/CRC Mode: CRC
    Link Quality Indication: 255
    Timestamp: Feb 17, 2036 00:48:08.989019999 CET
    Sequence Number: 378433
    .110 0011 = Length: 99 bytes
IEEE 802.15.4 Data, Dst: ExeginTe_ff:ff:00:18:8a, Src: ExeginTe_ff:ff:00:18:88
    Frame Control Field: 0xcc41, Frame Type: Data, PAN ID Compression, Destination Addressing Mode: Long/64-bit, Frame Version: IEEE Std 802.15.4-2003, Source Addressing Mode: Long/64-bit
        .... .... .... .001 = Frame Type: Data (0x1)
        .... .... .... 0... = Security Enabled: False
        .... .... ...0 .... = Frame Pending: False
        .... .... ..0. .... = Acknowledge Request: False
        .... .... .1.. .... = PAN ID Compression: True
        .... ...0 .... .... = Sequence Number Suppression: False
        .... ..0. .... .... = Information Elements Present: False
        .... 11.. .... .... = Destination Addressing Mode: Long/64-bit (0x3)
        ..00 .... .... .... = Frame Version: IEEE Std 802.15.4-2003 (0)
        11.. .... .... .... = Source Addressing Mode: Long/64-bit (0x3)
    Sequence Number: 171
    Destination PAN: 0xffff
    Destination: ExeginTe_ff:ff:00:18:8a (00:1c:da:ff:ff:00:18:8a)
    Extended Source: ExeginTe_ff:ff:00:18:88 (00:1c:da:ff:ff:00:18:88)
    FCS: 0xa18f (Correct)
6LoWPAN
    Fragmentation Header
        1110 0... = Pattern: Fragment (0x1c)
        Datagram size: 263
        Datagram tag: 0x0003
        Datagram offset: 192
    [3 Message fragments (263 bytes): #10(135), #11(96), #12(71)]
        [Frame: 10, payload: 0-134 (135 bytes)]
        [Frame: 11, payload: 96-191 (96 bytes)]
            [Message fragment overlap: True]
            [Message fragment overlapping with conflicting data: True]
        [Frame: 12, payload: 192-262 (71 bytes)]
        [Message fragment count: 3]
        [Reassembled 6LoWPAN length: 263]
Internet Protocol Version 6, Src: fe80::21c:daff:ff00:1888, Dst: fe80::21c:daff:ff00:188a
    0110 .... = Version: 6
    .... 0000 0000 .... .... .... .... .... = Traffic Class: 0x00 (DSCP: CS0, ECN: Not-ECT)
        .... 0000 00.. .... .... .... .... .... = Differentiated Services Codepoint: Default (0)
        .... .... ..00 .... .... .... .... .... = Explicit Congestion Notification: Not ECN-Capable Transport (0)
    .... .... .... 0000 0000 0000 0000 0000 = Flow Label: 0x00000
    Payload Length: 223
    Next Header: UDP (17)
    Hop Limit: 64
    Source: fe80::21c:daff:ff00:1888
    Destination: fe80::21c:daff:ff00:188a
User Datagram Protocol, Src Port: 1025, Dst Port: 61617
    Source Port: 1025
    Destination Port: 61617
    Length: 223
    Checksum: 0x78c3 [unverified]
    [Checksum Status: Unverified]
    [Stream index: 2]
Data (215 bytes)
    Data: 48656c6c6f20303037203078364239330a00121314151617...
    [Length: 215]

Frame (173 bytes):
0000  00 22 19 10 30 e5 00 1c da 00 00 01 08 00 45 00   ."..0.........E.
0010  00 9f c7 fc 00 00 40 11 56 d4 ac 10 02 29 ac 10   ......@.V....)..
0020  01 34 45 5a 45 5a 00 8b a4 5a 45 58 02 01 00 00   .4EZEZ...ZEX....
0030  01 01 ff 00 0c d1 38 fd 30 6a 2b 00 05 c6 41 00   ......8.0j+...A.
0040  00 00 00 00 00 00 00 00 00 63 41 cc ab ff ff 8a   .........cA.....
0050  18 00 ff ff da 1c 00 88 18 00 ff ff da 1c 00 e1   ................
0060  07 00 03 18 b7 b8 b9 ba bb bc bd be bf c0 c1 c2   ................
0070  c3 c4 c5 c6 c7 c8 c9 ca cb cc cd ce cf d0 d1 d2   ................
0080  d3 d4 d5 d6 d7 d8 d9 da db dc dd de df e0 e1 e2   ................
0090  e3 e4 e5 e6 e7 e8 e9 ea eb ec ed ee ef f0 f1 f2   ................
00a0  f3 f4 f5 f6 f7 f8 f9 fa fb fc fd 8f a1            .............
Reassembled 6LoWPAN (263 bytes):
0000  60 00 00 00 00 df 11 40 fe 80 00 00 00 00 00 00   `......@........
0010  02 1c da ff ff 00 18 88 fe 80 00 00 00 00 00 00   ................
0020  02 1c da ff ff 00 18 8a 04 01 f0 b1 00 df 78 c3   ..............x.
0030  48 65 6c 6c 6f 20 30 30 37 20 30 78 36 42 39 33   Hello 007 0x6B93
0040  0a 00 12 13 14 15 16 17 18 19 1a 1b 1c 1d 1e 1f   ................
0050  20 21 22 23 24 25 26 27 28 29 2a 2b 2c 2d 2e 2f    !"#$%&'()*+,-./
0060  30 31 32 33 34 35 36 37 38 39 3a 3b 3c 3d 3e 3f   0123456789:;<=>?
0070  40 41 42 43 44 45 46 47 48 49 4a 4b 4c 4d 4e 4f   @ABCDEFGHIJKLMNO
0080  50 51 52 53 54 55 56 7e 7f 80 81 82 83 84 85 86   PQRSTUV~........
0090  87 88 89 8a 8b 8c 8d 8e 8f 90 91 92 93 94 95 96   ................
00a0  97 98 99 9a 9b 9c 9d 9e 9f a0 a1 a2 a3 a4 a5 a6   ................
00b0  a7 a8 a9 aa ab ac ad ae af b0 b1 b2 b3 b4 b5 b6   ................
00c0  b7 b8 b9 ba bb bc bd be bf c0 c1 c2 c3 c4 c5 c6   ................
00d0  c7 c8 c9 ca cb cc cd ce cf d0 d1 d2 d3 d4 d5 d6   ................
00e0  d7 d8 d9 da db dc dd de df e0 e1 e2 e3 e4 e5 e6   ................
00f0  e7 e8 e9 ea eb ec ed ee ef f0 f1 f2 f3 f4 f5 f6   ................
0100  f7 f8 f9 fa fb fc fd                              .......

Frame 13: 197 bytes on wire (1576 bits), 197 bytes captured (1576 bits)
    Encapsulation type: Ethernet (1)
    Arrival Time: Oct  1, 2009 20:04:17.225065000 CEST
    [Time shift for this packet: 0.000000000 seconds]
    Epoch Time: 1254420257.225065000 seconds
    [Time delta from previous captured frame: 2.062900000 seconds]
    [Time delta from previous displayed frame: 2.062900000 seconds]
    [Time since reference or first frame: 10.617398000 seconds]
    Frame Number: 13
    Frame Length: 197 bytes (1576 bits)
    Capture Length: 197 bytes (1576 bits)
    [Frame is marked: False]
    [Frame is ignored: False]
    [Protocols in frame: eth:ethertype:ip:udp:zep:wpan:6lowpan:data]
Ethernet II, Src: ExeginTe_00:00:01 (00:1c:da:00:00:01), Dst: Dell_10:30:e5 (00:22:19:10:30:e5)
    Destination: Dell_10:30:e5 (00:22:19:10:30:e5)
        Address: Dell_10:30:e5 (00:22:19:10:30:e5)
        .... ..0. .... .... .... .... = LG bit: Globally unique address (factory default)
        .... ...0 .... .... .... .... = IG bit: Individual address (unicast)
    Source: ExeginTe_00:00:01 (00:1c:da:00:00:01)
        Address: ExeginTe_00:00:01 (00:1c:da:00:00:01)
        .... ..0. .... .... .... .... = LG bit: Globally unique address (factory default)
        .... ...0 .... .... .... .... = IG bit: Individual address (unicast)
    Type: IPv4 (0x0800)
Internet Protocol Version 4, Src: 172.16.2.41, Dst: 172.16.1.52
    0100 .... = Version: 4
    .... 0101 = Header Length: 20 bytes (5)
    Differentiated Services Field: 0x00 (DSCP: CS0, ECN: Not-ECT)
        0000 00.. = Differentiated Services Codepoint: Default (0)
        .... ..00 = Explicit Congestion Notification: Not ECN-Capable Transport (0)
    Total Length: 183
    Identification: 0xc7fd (51197)
    Flags: 0x0000
        0... .... .... .... = Reserved bit: Not set
        .0.. .... .... .... = Don't fragment: Not set
        ..0. .... .... .... = More fragments: Not set
        ...0 0000 0000 0000 = Fragment offset: 0
    Time to live: 64
    Protocol: UDP (17)
    Header checksum: 0x56bb [validation disabled]
    [Header checksum status: Unverified]
    Source: 172.16.2.41
    Destination: 172.16.1.52
User Datagram Protocol, Src Port: 17754, Dst Port: 17754
    Source Port: 17754
    Destination Port: 17754
    Length: 163
    Checksum: 0x59e7 [unverified]
    [Checksum Status: Unverified]
    [Stream index: 0]
ZigBee Encapsulation Protocol, Channel: 0, Length: 123
    Protocol ID String: EX
    Protocol Version: 2
    Type: Data (1)
    Channel ID: 0
    Device ID: 1
    LQI/CRC Mode: CRC
    Link Quality Indication: 255
    Timestamp: Feb 17, 2036 00:48:11.051889999 CET
    Sequence Number: 378434
    .111 1011 = Length: 123 bytes
IEEE 802.15.4 Data, Dst: ExeginTe_ff:ff:00:18:8a, Src: ExeginTe_ff:ff:00:18:88
    Frame Control Field: 0xcc41, Frame Type: Data, PAN ID Compression, Destination Addressing Mode: Long/64-bit, Frame Version: IEEE Std 802.15.4-2003, Source Addressing Mode: Long/64-bit
        .... .... .... .001 = Frame Type: Data (0x1)
        .... .... .... 0... = Security Enabled: False
        .... .... ...0 .... = Frame Pending: False
        .... .... ..0. .... = Acknowledge Request: False
        .... .... .1.. .... = PAN ID Compression: True
        .... ...0 .... .... = Sequence Number Suppression: False
        .... ..0. .... .... = Information Elements Present: False
        .... 11.. .... .... = Destination Addressing Mode: Long/64-bit (0x3)
        ..00 .... .... .... = Frame Version: IEEE Std 802.15.4-2003 (0)
        11.. .... .... .... = Source Addressing Mode: Long/64-bit (0x3)
    Sequence Number: 172
    Destination PAN: 0xffff
    Destination: ExeginTe_ff:ff:00:18:8a (00:1c:da:ff:ff:00:18:8a)
    Extended Source: ExeginTe_ff:ff:00:18:88 (00:1c:da:ff:ff:00:18:88)
    FCS: 0x96c6 (Correct)
6LoWPAN
    Fragmentation Header
        1100 0... = Pattern: First fragment (0x18)
        Datagram size: 265
        Datagram tag: 0x0004
    HC1 Encoding
        0100 0010 = Pattern: Header compression (0x42)
        HC1 Encoding: 0xfa, Source prefix, Source interface, Destination prefix, Destination interface, Traffic class and flow label, Next header: UDP
            1... .... = Source prefix: Compressed
            .1.. .... = Source interface: Compressed
            ..1. .... = Destination prefix: Compressed
            ...1 .... = Destination interface: Compressed
            .... 1... = Traffic class and flow label: Compressed
            .... .01. = Next header: UDP (0x1)
            .... ...0 = More HC bits: False
    Hop limit: 64
    Source: fe80::21c:daff:ff00:1888
    Destination: fe80::21c:daff:ff00:188a
Data (133 bytes)
    Data: 6000000000e11140fe80000000000000021cdaffff001888...
    [Length: 133]

Frame (197 bytes):
0000  00 22 19 10 30 e5 00 1c da 00 00 01 08 00 45 00   ."..0.........E.
0010  00 b7 c7 fd 00 00 40 11 56 bb ac 10 02 29 ac 10   ......@.V....)..
0020  01 34 45 5a 45 5a 00 a3 59 e7 45 58 02 01 00 00   .4EZEZ..Y.EX....
0030  01 01 ff 00 0c d1 3b 0d 48 a9 bc 00 05 c6 42 00   ......;.H.....B.
0040  00 00 00 00 00 00 00 00 00 7b 41 cc ac ff ff 8a   .........{A.....
0050  18 00 ff ff da 1c 00 88 18 00 ff ff da 1c 00 c1   ................
0060  09 00 04 42 fa 40 04 01 f0 b1 01 06 6d ca 48 65   ...B.@......m.He
0070  6c 6c 6f 20 30 30 38 20 30 78 42 39 37 35 0a 00   llo 008 0xB975..
0080  12 13 14 15 16 17 18 19 1a 1b 1c 1d 1e 1f 20 21   .............. !
0090  22 23 24 25 26 27 28 29 2a 2b 2c 2d 2e 2f 30 31   "#$%&'()*+,-./01
00a0  32 33 34 35 36 37 38 39 3a 3b 3c 3d 3e 3f 40 41   23456789:;<=>?@A
00b0  42 43 44 45 46 47 48 49 4a 4b 4c 4d 4e 4f 50 51   BCDEFGHIJKLMNOPQ
00c0  52 53 54 c6 96                                    RST..
Decompressed 6LoWPAN HC1 (133 bytes):
0000  60 00 00 00 00 e1 11 40 fe 80 00 00 00 00 00 00   `......@........
0010  02 1c da ff ff 00 18 88 fe 80 00 00 00 00 00 00   ................
0020  02 1c da ff ff 00 18 8a 04 01 f0 b1 01 06 6d ca   ..............m.
0030  48 65 6c 6c 6f 20 30 30 38 20 30 78 42 39 37 35   Hello 008 0xB975
0040  0a 00 12 13 14 15 16 17 18 19 1a 1b 1c 1d 1e 1f   ................
0050  20 21 22 23 24 25 26 27 28 29 2a 2b 2c 2d 2e 2f    !"#$%&'()*+,-./
0060  30 31 32 33 34 35 36 37 38 39 3a 3b 3c 3d 3e 3f   0123456789:;<=>?
0070  40 41 42 43 44 45 46 47 48 49 4a 4b 4c 4d 4e 4f   @ABCDEFGHIJKLMNO
0080  50 51 52 53 54                                    PQRST

Frame 14: 197 bytes on wire (1576 bits), 197 bytes captured (1576 bits)
    Encapsulation type: Ethernet (1)
    Arrival Time: Oct  1, 2009 20:04:17.283298000 CEST
    [Time shift for this packet: 0.000000000 seconds]
    Epoch Time: 1254420257.283298000 seconds
    [Time delta from previous captured frame: 0.058233000 seconds]
    [Time delta from previous displayed frame: 0.058233000 seconds]
    [Time since reference or first frame: 10.675631000 seconds]
    Frame Number: 14
    Frame Length: 197 bytes (1576 bits)
    Capture Length: 197 bytes (1576 bits)
    [Frame is marked: False]
    [Frame is ignored: False]
    [Protocols in frame: eth:ethertype:ip:udp:zep:wpan:6lowpan:data]
Ethernet II, Src: ExeginTe_00:00:01 (00:1c:da:00:00:01), Dst: Dell_10:30:e5 (00:22:19:10:30:e5)
    Destination: Dell_10:30:e5 (00:22:19:10:30:e5)
        Address: Dell_10:30:e5 (00:22:19:10:30:e5)
        .... ..0. .... .... .... .... = LG bit: Globally unique address (factory default)
        .... ...0 .... .... .... .... = IG bit: Individual address (unicast)
    Source: ExeginTe_00:00:01 (00:1c:da:00:00:01)
        Address: ExeginTe_00:00:01 (00:1c:da:00:00:01)
        .... ..0. .... .... .... .... = LG bit: Globally unique address (factory default)
        .... ...0 .... .... .... .... = IG bit: Individual address (unicast)
    Type: IPv4 (0x0800)
Internet Protocol Version 4, Src: 172.16.2.41, Dst: 172.16.1.52
    0100 .... = Version: 4
    .... 0101 = Header Length: 20 bytes (5)
    Differentiated Services Field: 0x00 (DSCP: CS0, ECN: Not-ECT)
        0000 00.. = Differentiated Services Codepoint: Default (0)
        .... ..00 = Explicit Congestion Notification: Not ECN-Capable Transport (0)
    Total Length: 183
    Identification: 0xc7fe (51198)
    Flags: 0x0000
        0... .... .... .... = Reserved bit: Not set
        .0.. .... .... .... = Don't fragment: Not set
        ..0. .... .... .... = More fragments: Not set
        ...0 0000 0000 0000 = Fragment offset: 0
    Time to live: 64
    Protocol: UDP (17)
    Header checksum: 0x56ba [validation disabled]
    [Header checksum status: Unverified]
    Source: 172.16.2.41
    Destination: 172.16.1.52
User Datagram Protocol, Src Port: 17754, Dst Port: 17754
    Source Port: 17754
    Destination Port: 17754
    Length: 163
    Checksum: 0x2b25 [unverified]
    [Checksum Status: Unverified]
    [Stream index: 0]
ZigBee Encapsulation Protocol, Channel: 0, Length: 123
    Protocol ID String: EX
    Protocol Version: 2
    Type: Data (1)
    Channel ID: 0
    Device ID: 1
    LQI/CRC Mode: CRC
    Link Quality Indication: 255
    Timestamp: Feb 17, 2036 00:48:11.110173999 CET
    Sequence Number: 378435
    .111 1011 = Length: 123 bytes
IEEE 802.15.4 Data, Dst: ExeginTe_ff:ff:00:18:8a, Src: ExeginTe_ff:ff:00:18:88
    Frame Control Field: 0xcc41, Frame Type: Data, PAN ID Compression, Destination Addressing Mode: Long/64-bit, Frame Version: IEEE Std 802.15.4-2003, Source Addressing Mode: Long/64-bit
        .... .... .... .001 = Frame Type: Data (0x1)
        .... .... .... 0... = Security Enabled: False
        .... .... ...0 .... = Frame Pending: False
        .... .... ..0. .... = Acknowledge Request: False
        .... .... .1.. .... = PAN ID Compression: True
        .... ...0 .... .... = Sequence Number Suppression: False
        .... ..0. .... .... = Information Elements Present: False
        .... 11.. .... .... = Destination Addressing Mode: Long/64-bit (0x3)
        ..00 .... .... .... = Frame Version: IEEE Std 802.15.4-2003 (0)
        11.. .... .... .... = Source Addressing Mode: Long/64-bit (0x3)
    Sequence Number: 172
    Destination PAN: 0xffff
    Destination: ExeginTe_ff:ff:00:18:8a (00:1c:da:ff:ff:00:18:8a)
    Extended Source: ExeginTe_ff:ff:00:18:88 (00:1c:da:ff:ff:00:18:88)
    FCS: 0x96c6 (Correct)
6LoWPAN
    Fragmentation Header
        1100 0... = Pattern: First fragment (0x18)
        Datagram size: 265
        Datagram tag: 0x0004
    HC1 Encoding
        0100 0010 = Pattern: Header compression (0x42)
        HC1 Encoding: 0xfa, Source prefix, Source interface, Destination prefix, Destination interface, Traffic class and flow label, Next header: UDP
            1... .... = Source prefix: Compressed
            .1.. .... = Source interface: Compressed
            ..1. .... = Destination prefix: Compressed
            ...1 .... = Destination interface: Compressed
            .... 1... = Traffic class and flow label: Compressed
            .... .01. = Next header: UDP (0x1)
            .... ...0 = More HC bits: False
    Hop limit: 64
    Source: fe80::21c:daff:ff00:1888
    Destination: fe80::21c:daff:ff00:188a
Data (133 bytes)
    Data: 6000000000e11140fe80000000000000021cdaffff001888...
    [Length: 133]

Frame (197 bytes):
0000  00 22 19 10 30 e5 00 1c da 00 00 01 08 00 45 00   ."..0.........E.
0010  00 b7 c7 fe 00 00 40 11 56 ba ac 10 02 29 ac 10   ......@.V....)..
0020  01 34 45 5a 45 5a 00 a3 2b 25 45 58 02 01 00 00   .4EZEZ..+%EX....
0030  01 01 ff 00 0c d1 3b 1c 34 5c fe 00 05 c6 43 00   ......;.4\....C.
0040  00 00 00 00 00 00 00 00 00 7b 41 cc ac ff ff 8a   .........{A.....
0050  18 00 ff ff da 1c 00 88 18 00 ff ff da 1c 00 c1   ................
0060  09 00 04 42 fa 40 04 01 f0 b1 01 06 6d ca 48 65   ...B.@......m.He
0070  6c 6c 6f 20 30 30 38 20 30 78 42 39 37 35 0a 00   llo 008 0xB975..
0080  12 13 14 15 16 17 18 19 1a 1b 1c 1d 1e 1f 20 21   .............. !
0090  22 23 24 25 26 27 28 29 2a 2b 2c 2d 2e 2f 30 31   "#$%&'()*+,-./01
00a0  32 33 34 35 36 37 38 39 3a 3b 3c 3d 3e 3f 40 41   23456789:;<=>?@A
00b0  42 43 44 45 46 47 48 49 4a 4b 4c 4d 4e 4f 50 51   BCDEFGHIJKLMNOPQ
00c0  52 53 54 c6 96                                    RST..
Decompressed 6LoWPAN HC1 (133 bytes):
0000  60 00 00 00 00 e1 11 40 fe 80 00 00 00 00 00 00   `......@........
0010  02 1c da ff ff 00 18 88 fe 80 00 00 00 00 00 00   ................
0020  02 1c da ff ff 00 18 8a 04 01 f0 b1 01 06 6d ca   ..............m.
0030  48 65 6c 6c 6f 20 30 30 38 20 30 78 42 39 37 35   Hello 008 0xB975
0040  0a 00 12 13 14 15 16 17 18 19 1a 1b 1c 1d 1e 1f   ................
0050  20 21 22 23 24 25 26 27 28 29 2a 2b 2c 2d 2e 2f    !"#$%&'()*+,-./
0060  30 31 32 33 34 35 36 37 38 39 3a 3b 3c 3d 3e 3f   0123456789:;<=>?
0070  40 41 42 43 44 45 46 47 48 49 4a 4b 4c 4d 4e 4f   @ABCDEFGHIJKLMNO
0080  50 51 52 53 54                                    PQRST

Frame 15: 198 bytes on wire (1584 bits), 198 bytes captured (1584 bits)
    Encapsulation type: Ethernet (1)
    Arrival Time: Oct  1, 2009 20:04:17.340526000 CEST
    [Time shift for this packet: 0.000000000 seconds]
    Epoch Time: 1254420257.340526000 seconds
    [Time delta from previous captured frame: 0.057228000 seconds]
    [Time delta from previous displayed frame: 0.057228000 seconds]
    [Time since reference or first frame: 10.732859000 seconds]
    Frame Number: 15
    Frame Length: 198 bytes (1584 bits)
    Capture Length: 198 bytes (1584 bits)
    [Frame is marked: False]
    [Frame is ignored: False]
    [Protocols in frame: eth:ethertype:ip:udp:zep:wpan:6lowpan:data]
Ethernet II, Src: ExeginTe_00:00:01 (00:1c:da:00:00:01), Dst: Dell_10:30:e5 (00:22:19:10:30:e5)
    Destination: Dell_10:30:e5 (00:22:19:10:30:e5)
        Address: Dell_10:30:e5 (00:22:19:10:30:e5)
        .... ..0. .... .... .... .... = LG bit: Globally unique address (factory default)
        .... ...0 .... .... .... .... = IG bit: Individual address (unicast)
    Source: ExeginTe_00:00:01 (00:1c:da:00:00:01)
        Address: ExeginTe_00:00:01 (00:1c:da:00:00:01)
        .... ..0. .... .... .... .... = LG bit: Globally unique address (factory default)
        .... ...0 .... .... .... .... = IG bit: Individual address (unicast)
    Type: IPv4 (0x0800)
Internet Protocol Version 4, Src: 172.16.2.41, Dst: 172.16.1.52
    0100 .... = Version: 4
    .... 0101 = Header Length: 20 bytes (5)
    Differentiated Services Field: 0x00 (DSCP: CS0, ECN: Not-ECT)
        0000 00.. = Differentiated Services Codepoint: Default (0)
        .... ..00 = Explicit Congestion Notification: Not ECN-Capable Transport (0)
    Total Length: 184
    Identification: 0xc7ff (51199)
    Flags: 0x0000
        0... .... .... .... = Reserved bit: Not set
        .0.. .... .... .... = Don't fragment: Not set
        ..0. .... .... .... = More fragments: Not set
        ...0 0000 0000 0000 = Fragment offset: 0
    Time to live: 64
    Protocol: UDP (17)
    Header checksum: 0x56b8 [validation disabled]
    [Header checksum status: Unverified]
    Source: 172.16.2.41
    Destination: 172.16.1.52
User Datagram Protocol, Src Port: 17754, Dst Port: 17754
    Source Port: 17754
    Destination Port: 17754
    Length: 164
    Checksum: 0xd7bb [unverified]
    [Checksum Status: Unverified]
    [Stream index: 0]
ZigBee Encapsulation Protocol, Channel: 0, Length: 124
    Protocol ID String: EX
    Protocol Version: 2
    Type: Data (1)
    Channel ID: 0
    Device ID: 1
    LQI/CRC Mode: CRC
    Link Quality Indication: 255
    Timestamp: Feb 17, 2036 00:48:11.167365999 CET
    Sequence Number: 378436
    .111 1100 = Length: 124 bytes
IEEE 802.15.4 Data, Dst: ExeginTe_ff:ff:00:18:8a, Src: ExeginTe_ff:ff:00:18:88
    Frame Control Field: 0xcc41, Frame Type: Data, PAN ID Compression, Destination Addressing Mode: Long/64-bit, Frame Version: IEEE Std 802.15.4-2003, Source Addressing Mode: Long/64-bit
        .... .... .... .001 = Frame Type: Data (0x1)
        .... .... .... 0... = Security Enabled: False
        .... .... ...0 .... = Frame Pending: False
        .... .... ..0. .... = Acknowledge Request: False
        .... .... .1.. .... = PAN ID Compression: True
        .... ...0 .... .... = Sequence Number Suppression: False
        .... ..0. .... .... = Information Elements Present: False
        .... 11.. .... .... = Destination Addressing Mode: Long/64-bit (0x3)
        ..00 .... .... .... = Frame Version: IEEE Std 802.15.4-2003 (0)
        11.. .... .... .... = Source Addressing Mode: Long/64-bit (0x3)
    Sequence Number: 173
    Destination PAN: 0xffff
    Destination: ExeginTe_ff:ff:00:18:8a (00:1c:da:ff:ff:00:18:8a)
    Extended Source: ExeginTe_ff:ff:00:18:88 (00:1c:da:ff:ff:00:18:88)
    FCS: 0x904b (Correct)
6LoWPAN
    Fragmentation Header
        1110 0... = Pattern: Fragment (0x1c)
        Datagram size: 265
        Datagram tag: 0x0004
        Datagram offset: 96
Data (96 bytes)
    Data: 55565758595a5b5c5d5e5f606162636465666768696a6b6c...
    [Length: 96]

0000  00 22 19 10 30 e5 00 1c da 00 00 01 08 00 45 00   ."..0.........E.
0010  00 b8 c7 ff 00 00 40 11 56 b8 ac 10 02 29 ac 10   ......@.V....)..
0020  01 34 45 5a 45 5a 00 a4 d7 bb 45 58 02 01 00 00   .4EZEZ....EX....
0030  01 01 ff 00 0c d1 3b 2a d8 7f 88 00 05 c6 44 00   ......;*......D.
0040  00 00 00 00 00 00 00 00 00 7c 41 cc ad ff ff 8a   .........|A.....
0050  18 00 ff ff da 1c 00 88 18 00 ff ff da 1c 00 e1   ................
0060  09 00 04 0c 55 56 57 58 59 5a 5b 5c 5d 5e 5f 60   ....UVWXYZ[\]^_`
0070  61 62 63 64 65 66 67 68 69 6a 6b 6c 6d 6e 6f 70   abcdefghijklmnop
0080  71 72 73 74 75 76 77 78 79 7a 7b 7c 7d 7e 7f 80   qrstuvwxyz{|}~..
0090  81 82 83 84 85 86 87 88 89 8a 8b 8c 8d 8e 8f 90   ................
00a0  91 92 93 94 95 96 97 98 99 9a 9b 9c 9d 9e 9f a0   ................
00b0  a1 a2 a3 a4 a5 a6 a7 a8 a9 aa ab ac ad ae af b0   ................
00c0  b1 b2 b3 b4 4b 90                                 ....K.

Frame 16: 198 bytes on wire (1584 bits), 198 bytes captured (1584 bits)
    Encapsulation type: Ethernet (1)
    Arrival Time: Oct  1, 2009 20:04:17.401174000 CEST
    [Time shift for this packet: 0.000000000 seconds]
    Epoch Time: 1254420257.401174000 seconds
    [Time delta from previous captured frame: 0.060648000 seconds]
    [Time delta from previous displayed frame: 0.060648000 seconds]
    [Time since reference or first frame: 10.793507000 seconds]
    Frame Number: 16
    Frame Length: 198 bytes (1584 bits)
    Capture Length: 198 bytes (1584 bits)
    [Frame is marked: False]
    [Frame is ignored: False]
    [Protocols in frame: eth:ethertype:ip:udp:zep:wpan:6lowpan:data]
Ethernet II, Src: ExeginTe_00:00:01 (00:1c:da:00:00:01), Dst: Dell_10:30:e5 (00:22:19:10:30:e5)
    Destination: Dell_10:30:e5 (00:22:19:10:30:e5)
        Address: Dell_10:30:e5 (00:22:19:10:30:e5)
        .... ..0. .... .... .... .... = LG bit: Globally unique address (factory default)
        .... ...0 .... .... .... .... = IG bit: Individual address (unicast)
    Source: ExeginTe_00:00:01 (00:1c:da:00:00:01)
        Address: ExeginTe_00:00:01 (00:1c:da:00:00:01)
        .... ..0. .... .... .... .... = LG bit: Globally unique address (factory default)
        .... ...0 .... .... .... .... = IG bit: Individual address (unicast)
    Type: IPv4 (0x0800)
Internet Protocol Version 4, Src: 172.16.2.41, Dst: 172.16.1.52
    0100 .... = Version: 4
    .... 0101 = Header Length: 20 bytes (5)
    Differentiated Services Field: 0x00 (DSCP: CS0, ECN: Not-ECT)
        0000 00.. = Differentiated Services Codepoint: Default (0)
        .... ..00 = Explicit Congestion Notification: Not ECN-Capable Transport (0)
    Total Length: 184
    Identification: 0xc800 (51200)
    Flags: 0x0000
        0... .... .... .... = Reserved bit: Not set
        .0.. .... .... .... = Don't fragment: Not set
        ..0. .... .... .... = More fragments: Not set
        ...0 0000 0000 0000 = Fragment offset: 0
    Time to live: 64
    Protocol: UDP (17)
    Header checksum: 0x56b7 [validation disabled]
    [Header checksum status: Unverified]
    Source: 172.16.2.41
    Destination: 172.16.1.52
User Datagram Protocol, Src Port: 17754, Dst Port: 17754
    Source Port: 17754
    Destination Port: 17754
    Length: 164
    Checksum: 0x2a53 [unverified]
    [Checksum Status: Unverified]
    [Stream index: 0]
ZigBee Encapsulation Protocol, Channel: 0, Length: 124
    Protocol ID String: EX
    Protocol Version: 2
    Type: Data (1)
    Channel ID: 0
    Device ID: 1
    LQI/CRC Mode: CRC
    Link Quality Indication: 255
    Timestamp: Feb 17, 2036 00:48:11.228024999 CET
    Sequence Number: 378437
    .111 1100 = Length: 124 bytes
IEEE 802.15.4 Data, Dst: ExeginTe_ff:ff:00:18:8a, Src: ExeginTe_ff:ff:00:18:88
    Frame Control Field: 0xcc41, Frame Type: Data, PAN ID Compression, Destination Addressing Mode: Long/64-bit, Frame Version: IEEE Std 802.15.4-2003, Source Addressing Mode: Long/64-bit
        .... .... .... .001 = Frame Type: Data (0x1)
        .... .... .... 0... = Security Enabled: False
        .... .... ...0 .... = Frame Pending: False
        .... .... ..0. .... = Acknowledge Request: False
        .... .... .1.. .... = PAN ID Compression: True
        .... ...0 .... .... = Sequence Number Suppression: False
        .... ..0. .... .... = Information Elements Present: False
        .... 11.. .... .... = Destination Addressing Mode: Long/64-bit (0x3)
        ..00 .... .... .... = Frame Version: IEEE Std 802.15.4-2003 (0)
        11.. .... .... .... = Source Addressing Mode: Long/64-bit (0x3)
    Sequence Number: 173
    Destination PAN: 0xffff
    Destination: ExeginTe_ff:ff:00:18:8a (00:1c:da:ff:ff:00:18:8a)
    Extended Source: ExeginTe_ff:ff:00:18:88 (00:1c:da:ff:ff:00:18:88)
    FCS: 0x904b (Correct)
6LoWPAN
    Fragmentation Header
        1110 0... = Pattern: Fragment (0x1c)
        Datagram size: 265
        Datagram tag: 0x0004
        Datagram offset: 96
Data (96 bytes)
    Data: 55565758595a5b5c5d5e5f606162636465666768696a6b6c...
    [Length: 96]

0000  00 22 19 10 30 e5 00 1c da 00 00 01 08 00 45 00   ."..0.........E.
0010  00 b8 c8 00 00 00 40 11 56 b7 ac 10 02 29 ac 10   ......@.V....)..
0020  01 34 45 5a 45 5a 00 a4 2a 53 45 58 02 01 00 00   .4EZEZ..*SEX....
0030  01 01 ff 00 0c d1 3b 3a 5f d8 ad 00 05 c6 45 00   ......;:_.....E.
0040  00 00 00 00 00 00 00 00 00 7c 41 cc ad ff ff 8a   .........|A.....
0050  18 00 ff ff da 1c 00 88 18 00 ff ff da 1c 00 e1   ................
0060  09 00 04 0c 55 56 57 58 59 5a 5b 5c 5d 5e 5f 60   ....UVWXYZ[\]^_`
0070  61 62 63 64 65 66 67 68 69 6a 6b 6c 6d 6e 6f 70   abcdefghijklmnop
0080  71 72 73 74 75 76 77 78 79 7a 7b 7c 7d 7e 7f 80   qrstuvwxyz{|}~..
0090  81 82 83 84 85 86 87 88 89 8a 8b 8c 8d 8e 8f 90   ................
00a0  91 92 93 94 95 96 97 98 99 9a 9b 9c 9d 9e 9f a0   ................
00b0  a1 a2 a3 a4 a5 a6 a7 a8 a9 aa ab ac ad ae af b0   ................
00c0  b1 b2 b3 b4 4b 90                                 ....K.

Frame 17: 175 bytes on wire (1400 bits), 175 bytes captured (1400 bits)
    Encapsulation type: Ethernet (1)
    Arrival Time: Oct  1, 2009 20:04:17.451734000 CEST
    [Time shift for this packet: 0.000000000 seconds]
    Epoch Time: 1254420257.451734000 seconds
    [Time delta from previous captured frame: 0.050560000 seconds]
    [Time delta from previous displayed frame: 0.050560000 seconds]
    [Time since reference or first frame: 10.844067000 seconds]
    Frame Number: 17
    Frame Length: 175 bytes (1400 bits)
    Capture Length: 175 bytes (1400 bits)
    [Frame is marked: False]
    [Frame is ignored: False]
    [Protocols in frame: eth:ethertype:ip:udp:zep:wpan:6lowpan:ipv6:udp:data]
Ethernet II, Src: ExeginTe_00:00:01 (00:1c:da:00:00:01), Dst: Dell_10:30:e5 (00:22:19:10:30:e5)
    Destination: Dell_10:30:e5 (00:22:19:10:30:e5)
        Address: Dell_10:30:e5 (00:22:19:10:30:e5)
        .... ..0. .... .... .... .... = LG bit: Globally unique address (factory default)
        .... ...0 .... .... .... .... = IG bit: Individual address (unicast)
    Source: ExeginTe_00:00:01 (00:1c:da:00:00:01)
        Address: ExeginTe_00:00:01 (00:1c:da:00:00:01)
        .... ..0. .... .... .... .... = LG bit: Globally unique address (factory default)
        .... ...0 .... .... .... .... = IG bit: Individual address (unicast)
    Type: IPv4 (0x0800)
Internet Protocol Version 4, Src: 172.16.2.41, Dst: 172.16.1.52
    0100 .... = Version: 4
    .... 0101 = Header Length: 20 bytes (5)
    Differentiated Services Field: 0x00 (DSCP: CS0, ECN: Not-ECT)
        0000 00.. = Differentiated Services Codepoint: Default (0)
        .... ..00 = Explicit Congestion Notification: Not ECN-Capable Transport (0)
    Total Length: 161
    Identification: 0xc801 (51201)
    Flags: 0x0000
        0... .... .... .... = Reserved bit: Not set
        .0.. .... .... .... = Don't fragment: Not set
        ..0. .... .... .... = More fragments: Not set
        ...0 0000 0000 0000 = Fragment offset: 0
    Time to live: 64
    Protocol: UDP (17)
    Header checksum: 0x56cd [validation disabled]
    [Header checksum status: Unverified]
    Source: 172.16.2.41
    Destination: 172.16.1.52
User Datagram Protocol, Src Port: 17754, Dst Port: 17754
    Source Port: 17754
    Destination Port: 17754
    Length: 141
    Checksum: 0x9ed2 [unverified]
    [Checksum Status: Unverified]
    [Stream index: 0]
ZigBee Encapsulation Protocol, Channel: 0, Length: 101
    Protocol ID String: EX
    Protocol Version: 2
    Type: Data (1)
    Channel ID: 0
    Device ID: 1
    LQI/CRC Mode: CRC
    Link Quality Indication: 255
    Timestamp: Feb 17, 2036 00:48:11.278597999 CET
    Sequence Number: 378438
    .110 0101 = Length: 101 bytes
IEEE 802.15.4 Data, Dst: ExeginTe_ff:ff:00:18:8a, Src: ExeginTe_ff:ff:00:18:88
    Frame Control Field: 0xcc41, Frame Type: Data, PAN ID Compression, Destination Addressing Mode: Long/64-bit, Frame Version: IEEE Std 802.15.4-2003, Source Addressing Mode: Long/64-bit
        .... .... .... .001 = Frame Type: Data (0x1)
        .... .... .... 0... = Security Enabled: False
        .... .... ...0 .... = Frame Pending: False
        .... .... ..0. .... = Acknowledge Request: False
        .... .... .1.. .... = PAN ID Compression: True
        .... ...0 .... .... = Sequence Number Suppression: False
        .... ..0. .... .... = Information Elements Present: False
        .... 11.. .... .... = Destination Addressing Mode: Long/64-bit (0x3)
        ..00 .... .... .... = Frame Version: IEEE Std 802.15.4-2003 (0)
        11.. .... .... .... = Source Addressing Mode: Long/64-bit (0x3)
    Sequence Number: 174
    Destination PAN: 0xffff
    Destination: ExeginTe_ff:ff:00:18:8a (00:1c:da:ff:ff:00:18:8a)
    Extended Source: ExeginTe_ff:ff:00:18:88 (00:1c:da:ff:ff:00:18:88)
    FCS: 0x1b48 (Correct)
6LoWPAN
    Fragmentation Header
        1110 0... = Pattern: Fragment (0x1c)
        Datagram size: 265
        Datagram tag: 0x0004
        Datagram offset: 192
    [5 Message fragments (265 bytes): #13(133), #14(133), #15(96), #16(96), #17(73)]
        [Frame: 13, payload: 0-132 (133 bytes)]
        [Frame: 14, payload: 0-132 (133 bytes)]
        [Frame: 15, payload: 96-191 (96 bytes)]
            [Message fragment overlap: True]
            [Message fragment overlapping with conflicting data: True]
        [Frame: 16, payload: 96-191 (96 bytes)]
        [Frame: 17, payload: 192-264 (73 bytes)]
        [Message fragment count: 5]
        [Reassembled 6LoWPAN length: 265]
Internet Protocol Version 6, Src: fe80::21c:daff:ff00:1888, Dst: fe80::21c:daff:ff00:188a
    0110 .... = Version: 6
