Frame 1: 318 bytes on wire (2544 bits), 318 bytes captured (2544 bits) on interface 0
    Interface id: 0 (\Device\NPF_{7E5A8EA0-1EDB-4812-B187-0955452C6E36})
        Interface name: \Device\NPF_{7E5A8EA0-1EDB-4812-B187-0955452C6E36}
    Encapsulation type: Ethernet (1)
    Arrival Time: Oct 11, 2016 10:35:55.003485000 CEST
    [Time shift for this packet: 0.000000000 seconds]
    Epoch Time: 1476174955.003485000 seconds
    [Time delta from previous captured frame: 0.000000000 seconds]
    [Time delta from previous displayed frame: 0.000000000 seconds]
    [Time since reference or first frame: 0.000000000 seconds]
    Frame Number: 1
    Frame Length: 318 bytes (2544 bits)
    Capture Length: 318 bytes (2544 bits)
    [Frame is marked: False]
    [Frame is ignored: False]
    [Protocols in frame: eth:ethertype:ip:udp:ssdp]
Ethernet II, Src: 00:ff:7e:5a:8e:a0 (00:ff:7e:5a:8e:a0), Dst: IPv4mcast_7f:ff:fa (01:00:5e:7f:ff:fa)
    Destination: IPv4mcast_7f:ff:fa (01:00:5e:7f:ff:fa)
        Address: IPv4mcast_7f:ff:fa (01:00:5e:7f:ff:fa)
        .... ..0. .... .... .... .... = LG bit: Globally unique address (factory default)
        .... ...1 .... .... .... .... = IG bit: Group address (multicast/broadcast)
    Source: 00:ff:7e:5a:8e:a0 (00:ff:7e:5a:8e:a0)
        Address: 00:ff:7e:5a:8e:a0 (00:ff:7e:5a:8e:a0)
        .... ..0. .... .... .... .... = LG bit: Globally unique address (factory default)
        .... ...0 .... .... .... .... = IG bit: Individual address (unicast)
    Type: IPv4 (0x0800)
Internet Protocol Version 4, Src: 128.93.101.51, Dst: 239.255.255.250
    0100 .... = Version: 4
    .... 0101 = Header Length: 20 bytes (5)
    Differentiated Services Field: 0x00 (DSCP: CS0, ECN: Not-ECT)
        0000 00.. = Differentiated Services Codepoint: Default (0)
        .... ..00 = Explicit Congestion Notification: Not ECN-Capable Transport (0)
    Total Length: 304
    Identification: 0x0a7b (2683)
    Flags: 0x00
        0... .... = Reserved bit: Not set
        .0.. .... = Don't fragment: Not set
        ..0. .... = More fragments: Not set
    Fragment offset: 0
    Time to live: 1
    Protocol: UDP (17)
    Header checksum: 0xd8b7 [validation disabled]
    [Header checksum status: Unverified]
    Source: 128.93.101.51
    Destination: 239.255.255.250
User Datagram Protocol, Src Port: 56788, Dst Port: 1900
    Source Port: 56788
    Destination Port: 1900
    Length: 284
    Checksum: 0x6ff9 [unverified]
    [Checksum Status: Unverified]
    [Stream index: 0]
Simple Service Discovery Protocol
    NOTIFY * HTTP/1.1\r\n
        [Expert Info (Chat/Sequence): NOTIFY * HTTP/1.1\r\n]
            [NOTIFY * HTTP/1.1\r\n]
            [Severity level: Chat]
            [Group: Sequence]
        Request Method: NOTIFY
        Request URI: *
        Request Version: HTTP/1.1
    Host: 239.255.255.250:1900\r\n
    Cache-Control: max-age=4\r\n
    Location: 128.93.101.51:51534\r\n
    NT: uuid:4E50646A-B607-4ECB-9676-8DC10ABE8A5F\r\n
    NTS: ssdp:alive\r\n
    SERVER: windows/6.1 IntelUSBoverIP:1/1\r\n
    USN: uuid:4E50646A-B607-4ECB-9676-8DC10ABE8A5F::IntelUSBoverIP:1\r\n
    \r\n
    [Full request URI: http://239.255.255.250:1900*]

0000  01 00 5e 7f ff fa 00 ff 7e 5a 8e a0 08 00 45 00   ..^.....~Z....E.
0010  01 30 0a 7b 00 00 01 11 d8 b7 80 5d 65 33 ef ff   .0.{.......]e3..
0020  ff fa dd d4 07 6c 01 1c 6f f9 4e 4f 54 49 46 59   .....l..o.NOTIFY
0030  20 2a 20 48 54 54 50 2f 31 2e 31 0d 0a 48 6f 73    * HTTP/1.1..Hos
0040  74 3a 20 32 33 39 2e 32 35 35 2e 32 35 35 2e 32   t: 239.255.255.2
0050  35 30 3a 31 39 30 30 0d 0a 43 61 63 68 65 2d 43   50:1900..Cache-C
0060  6f 6e 74 72 6f 6c 3a 20 6d 61 78 2d 61 67 65 3d   ontrol: max-age=
0070  34 0d 0a 4c 6f 63 61 74 69 6f 6e 3a 20 31 32 38   4..Location: 128
0080  2e 39 33 2e 31 30 31 2e 35 31 3a 35 31 35 33 34   .93.101.51:51534
0090  0d 0a 4e 54 3a 20 75 75 69 64 3a 34 45 35 30 36   ..NT: uuid:4E506
00a0  34 36 41 2d 42 36 30 37 2d 34 45 43 42 2d 39 36   46A-B607-4ECB-96
00b0  37 36 2d 38 44 43 31 30 41 42 45 38 41 35 46 0d   76-8DC10ABE8A5F.
00c0  0a 4e 54 53 3a 20 73 73 64 70 3a 61 6c 69 76 65   .NTS: ssdp:alive
00d0  0d 0a 53 45 52 56 45 52 3a 20 77 69 6e 64 6f 77   ..SERVER: window
00e0  73 2f 36 2e 31 20 49 6e 74 65 6c 55 53 42 6f 76   s/6.1 IntelUSBov
00f0  65 72 49 50 3a 31 2f 31 0d 0a 55 53 4e 3a 20 75   erIP:1/1..USN: u
0100  75 69 64 3a 34 45 35 30 36 34 36 41 2d 42 36 30   uid:4E50646A-B60
0110  37 2d 34 45 43 42 2d 39 36 37 36 2d 38 44 43 31   7-4ECB-9676-8DC1
0120  30 41 42 45 38 41 35 46 3a 3a 49 6e 74 65 6c 55   0ABE8A5F::IntelU
0130  53 42 6f 76 65 72 49 50 3a 31 0d 0a 0d 0a         SBoverIP:1....

Frame 2: 543 bytes on wire (4344 bits), 543 bytes captured (4344 bits) on interface 0
    Interface id: 0 (\Device\NPF_{7E5A8EA0-1EDB-4812-B187-0955452C6E36})
        Interface name: \Device\NPF_{7E5A8EA0-1EDB-4812-B187-0955452C6E36}
    Encapsulation type: Ethernet (1)
    Arrival Time: Oct 11, 2016 10:35:55.096753000 CEST
    [Time shift for this packet: 0.000000000 seconds]
    Epoch Time: 1476174955.096753000 seconds
    [Time delta from previous captured frame: 0.093268000 seconds]
    [Time delta from previous displayed frame: 0.093268000 seconds]
    [Time since reference or first frame: 0.093268000 seconds]
    Frame Number: 2
    Frame Length: 543 bytes (4344 bits)
    Capture Length: 543 bytes (4344 bits)
    [Frame is marked: False]
    [Frame is ignored: False]
    [Protocols in frame: eth:ethertype:ip:udp:ssdp]
Ethernet II, Src: 00:ff:7e:5a:8e:a0 (00:ff:7e:5a:8e:a0), Dst: IPv4mcast_7f:ff:fa (01:00:5e:7f:ff:fa)
    Destination: IPv4mcast_7f:ff:fa (01:00:5e:7f:ff:fa)
        Address: IPv4mcast_7f:ff:fa (01:00:5e:7f:ff:fa)
        .... ..0. .... .... .... .... = LG bit: Globally unique address (factory default)
        .... ...1 .... .... .... .... = IG bit: Group address (multicast/broadcast)
    Source: 00:ff:7e:5a:8e:a0 (00:ff:7e:5a:8e:a0)
        Address: 00:ff:7e:5a:8e:a0 (00:ff:7e:5a:8e:a0)
        .... ..0. .... .... .... .... = LG bit: Globally unique address (factory default)
        .... ...0 .... .... .... .... = IG bit: Individual address (unicast)
    Type: IPv4 (0x0800)
Internet Protocol Version 4, Src: 128.93.101.51, Dst: 239.255.255.250
    0100 .... = Version: 4
    .... 0101 = Header Length: 20 bytes (5)
    Differentiated Services Field: 0x00 (DSCP: CS0, ECN: Not-ECT)
        0000 00.. = Differentiated Services Codepoint: Default (0)
        .... ..00 = Explicit Congestion Notification: Not ECN-Capable Transport (0)
    Total Length: 529
    Identification: 0x0a7c (2684)
    Flags: 0x00
        0... .... = Reserved bit: Not set
        .0.. .... = Don't fragment: Not set
        ..0. .... = More fragments: Not set
    Fragment offset: 0
    Time to live: 1
    Protocol: UDP (17)
    Header checksum: 0xd7d5 [validation disabled]
    [Header checksum status: Unverified]
    Source: 128.93.101.51
    Destination: 239.255.255.250
User Datagram Protocol, Src Port: 1900, Dst Port: 1900
    Source Port: 1900
    Destination Port: 1900
    Length: 509
    Checksum: 0x49c5 [unverified]
    [Checksum Status: Unverified]
    [Stream index: 1]
Simple Service Discovery Protocol
    NOTIFY * HTTP/1.1\r\n
        [Expert Info (Chat/Sequence): NOTIFY * HTTP/1.1\r\n]
            [NOTIFY * HTTP/1.1\r\n]
            [Severity level: Chat]
            [Group: Sequence]
        Request Method: NOTIFY
        Request URI: *
        Request Version: HTTP/1.1
    Host:239.255.255.250:1900\r\n
    NT:urn:schemas-upnp-org:service:ConnectionManager:1\r\n
    NTS:ssdp:alive\r\n
    Location:http://128.93.101.51:2869/upnphost/udhisapi.dll?content=uuid:183ca8e5-7e6e-45ab-869b-d293c0bad9f8\r\n
    USN:uuid:183ca8e5-7e6e-45ab-869b-d293c0bad9f8::urn:schemas-upnp-org:service:ConnectionManager:1\r\n
    Cache-Control:max-age=900\r\n
    Server:Microsoft-Windows-NT/5.1 UPnP/1.0 UPnP-Device-Host/1.0\r\n
    OPT:"http://schemas.upnp.org/upnp/1/0/"; ns=01\r\n
    01-NLS:d12b08689f24572e40cc94d447d6e009\r\n
    \r\n
    [Full request URI: http://239.255.255.250:1900*]

0000  01 00 5e 7f ff fa 00 ff 7e 5a 8e a0 08 00 45 00   ..^.....~Z....E.
0010  02 11 0a 7c 00 00 01 11 d7 d5 80 5d 65 33 ef ff   ...|.......]e3..
0020  ff fa 07 6c 07 6c 01 fd 49 c5 4e 4f 54 49 46 59   ...l.l..I.NOTIFY
0030  20 2a 20 48 54 54 50 2f 31 2e 31 0d 0a 48 6f 73    * HTTP/1.1..Hos
0040  74 3a 32 33 39 2e 32 35 35 2e 32 35 35 2e 32 35   t:239.255.255.25
0050  30 3a 31 39 30 30 0d 0a 4e 54 3a 75 72 6e 3a 73   0:1900..NT:urn:s
0060  63 68 65 6d 61 73 2d 75 70 6e 70 2d 6f 72 67 3a   chemas-upnp-org:
0070  73 65 72 76 69 63 65 3a 43 6f 6e 6e 65 63 74 69   service:Connecti
0080  6f 6e 4d 61 6e 61 67 65 72 3a 31 0d 0a 4e 54 53   onManager:1..NTS
0090  3a 73 73 64 70 3a 61 6c 69 76 65 0d 0a 4c 6f 63   :ssdp:alive..Loc
00a0  61 74 69 6f 6e 3a 68 74 74 70 3a 2f 2f 31 32 38   ation:http://128
00b0  2e 39 33 2e 31 30 31 2e 35 31 3a 32 38 36 39 2f   .93.101.51:2869/
00c0  75 70 6e 70 68 6f 73 74 2f 75 64 68 69 73 61 70   upnphost/udhisap
00d0  69 2e 64 6c 6c 3f 63 6f 6e 74 65 6e 74 3d 75 75   i.dll?content=uu
00e0  69 64 3a 31 38 33 63 61 38 65 35 2d 37 65 36 65   id:183ca8e5-7e6e
00f0  2d 34 35 61 62 2d 38 36 39 62 2d 64 32 39 33 63   -45ab-869b-d293c
0100  30 62 61 64 39 66 38 0d 0a 55 53 4e 3a 75 75 69   0bad9f8..USN:uui
0110  64 3a 31 38 33 63 61 38 65 35 2d 37 65 36 65 2d   d:183ca8e5-7e6e-
0120  34 35 61 62 2d 38 36 39 62 2d 64 32 39 33 63 30   45ab-869b-d293c0
0130  62 61 64 39 66 38 3a 3a 75 72 6e 3a 73 63 68 65   bad9f8::urn:sche
0140  6d 61 73 2d 75 70 6e 70 2d 6f 72 67 3a 73 65 72   mas-upnp-org:ser
0150  76 69 63 65 3a 43 6f 6e 6e 65 63 74 69 6f 6e 4d   vice:ConnectionM
0160  61 6e 61 67 65 72 3a 31 0d 0a 43 61 63 68 65 2d   anager:1..Cache-
0170  43 6f 6e 74 72 6f 6c 3a 6d 61 78 2d 61 67 65 3d   Control:max-age=
0180  39 30 30 0d 0a 53 65 72 76 65 72 3a 4d 69 63 72   900..Server:Micr
0190  6f 73 6f 66 74 2d 57 69 6e 64 6f 77 73 2d 4e 54   osoft-Windows-NT
01a0  2f 35 2e 31 20 55 50 6e 50 2f 31 2e 30 20 55 50   /5.1 UPnP/1.0 UP
01b0  6e 50 2d 44 65 76 69 63 65 2d 48 6f 73 74 2f 31   nP-Device-Host/1
01c0  2e 30 0d 0a 4f 50 54 3a 22 68 74 74 70 3a 2f 2f   .0..OPT:"http://
01d0  73 63 68 65 6d 61 73 2e 75 70 6e 70 2e 6f 72 67   schemas.upnp.org
01e0  2f 75 70 6e 70 2f 31 2f 30 2f 22 3b 20 6e 73 3d   /upnp/1/0/"; ns=
01f0  30 31 0d 0a 30 31 2d 4e 4c 53 3a 64 31 32 62 30   01..01-NLS:d12b0
0200  38 36 38 39 66 32 34 35 37 32 65 34 30 63 63 39   8689f24572e40cc9
0210  34 64 34 34 37 64 36 65 30 30 39 0d 0a 0d 0a      4d447d6e009....

Frame 3: 571 bytes on wire (4568 bits), 571 bytes captured (4568 bits) on interface 0
    Interface id: 0 (\Device\NPF_{7E5A8EA0-1EDB-4812-B187-0955452C6E36})
        Interface name: \Device\NPF_{7E5A8EA0-1EDB-4812-B187-0955452C6E36}
    Encapsulation type: Ethernet (1)
    Arrival Time: Oct 11, 2016 10:35:55.096918000 CEST
    [Time shift for this packet: 0.000000000 seconds]
    Epoch Time: 1476174955.096918000 seconds
    [Time delta from previous captured frame: 0.000165000 seconds]
    [Time delta from previous displayed frame: 0.000165000 seconds]
    [Time since reference or first frame: 0.093433000 seconds]
    Frame Number: 3
    Frame Length: 571 bytes (4568 bits)
    Capture Length: 571 bytes (4568 bits)
    [Frame is marked: False]
    [Frame is ignored: False]
    [Protocols in frame: eth:ethertype:ipv6:udp:ssdp]
Ethernet II, Src: 00:ff:7e:5a:8e:a0 (00:ff:7e:5a:8e:a0), Dst: IPv6mcast_0c (33:33:00:00:00:0c)
    Destination: IPv6mcast_0c (33:33:00:00:00:0c)
        Address: IPv6mcast_0c (33:33:00:00:00:0c)
        .... ..1. .... .... .... .... = LG bit: Locally administered address (this is NOT the factory default)
        .... ...1 .... .... .... .... = IG bit: Group address (multicast/broadcast)
    Source: 00:ff:7e:5a:8e:a0 (00:ff:7e:5a:8e:a0)
        Address: 00:ff:7e:5a:8e:a0 (00:ff:7e:5a:8e:a0)
        .... ..0. .... .... .... .... = LG bit: Globally unique address (factory default)
        .... ...0 .... .... .... .... = IG bit: Individual address (unicast)
    Type: IPv6 (0x86dd)
Internet Protocol Version 6, Src: fe80::a0b3:8408:64d8:5916, Dst: ff02::c
    0110 .... = Version: 6
    .... 0000 0000 .... .... .... .... .... = Traffic Class: 0x00 (DSCP: CS0, ECN: Not-ECT)
        .... 0000 00.. .... .... .... .... .... = Differentiated Services Codepoint: Default (0)
        .... .... ..00 .... .... .... .... .... = Explicit Congestion Notification: Not ECN-Capable Transport (0)
    .... .... .... 0000 0000 0000 0000 0000 = Flow Label: 0x00000
    Payload Length: 517
    Next Header: UDP (17)
    Hop Limit: 1
    Source: fe80::a0b3:8408:64d8:5916
    Destination: ff02::c
User Datagram Protocol, Src Port: 1900, Dst Port: 1900
    Source Port: 1900
    Destination Port: 1900
    Length: 517
    Checksum: 0x146e [unverified]
    [Checksum Status: Unverified]
    [Stream index: 2]
Simple Service Discovery Protocol
    NOTIFY * HTTP/1.1\r\n
        [Expert Info (Chat/Sequence): NOTIFY * HTTP/1.1\r\n]
            [NOTIFY * HTTP/1.1\r\n]
            [Severity level: Chat]
            [Group: Sequence]
        Request Method: NOTIFY
        Request URI: *
        Request Version: HTTP/1.1
    Host:[FF02::C]:1900\r\n
    NT:urn:schemas-upnp-org:service:ConnectionManager:1\r\n
    NTS:ssdp:alive\r\n
    Location:http://[fe80::a0b3:8408:64d8:5916]:2869/upnphost/udhisapi.dll?content=uuid:183ca8e5-7e6e-45ab-869b-d293c0bad9f8\r\n
    USN:uuid:183ca8e5-7e6e-45ab-869b-d293c0bad9f8::urn:schemas-upnp-org:service:ConnectionManager:1\r\n
    Cache-Control:max-age=900\r\n
    Server:Microsoft-Windows-NT/5.1 UPnP/1.0 UPnP-Device-Host/1.0\r\n
    OPT:"http://schemas.upnp.org/upnp/1/0/"; ns=01\r\n
    01-NLS:d12b08689f24572e40cc94d447d6e009\r\n
    \r\n
    [Full request URI: http://[FF02::C]:1900*]

0000  33 33 00 00 00 0c 00 ff 7e 5a 8e a0 86 dd 60 00   33......~Z....`.
0010  00 00 02 05 11 01 fe 80 00 00 00 00 00 00 a0 b3   ................
0020  84 08 64 d8 59 16 ff 02 00 00 00 00 00 00 00 00   ..d.Y...........
0030  00 00 00 00 00 0c 07 6c 07 6c 02 05 14 6e 4e 4f   .......l.l...nNO
0040  54 49 46 59 20 2a 20 48 54 54 50 2f 31 2e 31 0d   TIFY * HTTP/1.1.
0050  0a 48 6f 73 74 3a 5b 46 46 30 32 3a 3a 43 5d 3a   .Host:[FF02::C]:
0060  31 39 30 30 0d 0a 4e 54 3a 75 72 6e 3a 73 63 68   1900..NT:urn:sch
0070  65 6d 61 73 2d 75 70 6e 70 2d 6f 72 67 3a 73 65   emas-upnp-org:se
0080  72 76 69 63 65 3a 43 6f 6e 6e 65 63 74 69 6f 6e   rvice:Connection
0090  4d 61 6e 61 67 65 72 3a 31 0d 0a 4e 54 53 3a 73   Manager:1..NTS:s
00a0  73 64 70 3a 61 6c 69 76 65 0d 0a 4c 6f 63 61 74   sdp:alive..Locat
00b0  69 6f 6e 3a 68 74 74 70 3a 2f 2f 5b 66 65 38 30   ion:http://[fe80
00c0  3a 3a 61 30 62 33 3a 38 34 30 38 3a 36 34 64 38   ::a0b3:8408:64d8
00d0  3a 35 39 31 36 5d 3a 32 38 36 39 2f 75 70 6e 70   :5916]:2869/upnp
00e0  68 6f 73 74 2f 75 64 68 69 73 61 70 69 2e 64 6c   host/udhisapi.dl
00f0  6c 3f 63 6f 6e 74 65 6e 74 3d 75 75 69 64 3a 31   l?content=uuid:1
0100  38 33 63 61 38 65 35 2d 37 65 36 65 2d 34 35 61   83ca8e5-7e6e-45a
0110  62 2d 38 36 39 62 2d 64 32 39 33 63 30 62 61 64   b-869b-d293c0bad
0120  39 66 38 0d 0a 55 53 4e 3a 75 75 69 64 3a 31 38   9f8..USN:uuid:18
0130  33 63 61 38 65 35 2d 37 65 36 65 2d 34 35 61 62   3ca8e5-7e6e-45ab
0140  2d 38 36 39 62 2d 64 32 39 33 63 30 62 61 64 39   -869b-d293c0bad9
0150  66 38 3a 3a 75 72 6e 3a 73 63 68 65 6d 61 73 2d   f8::urn:schemas-
0160  75 70 6e 70 2d 6f 72 67 3a 73 65 72 76 69 63 65   upnp-org:service
0170  3a 43 6f 6e 6e 65 63 74 69 6f 6e 4d 61 6e 61 67   :ConnectionManag
0180  65 72 3a 31 0d 0a 43 61 63 68 65 2d 43 6f 6e 74   er:1..Cache-Cont
0190  72 6f 6c 3a 6d 61 78 2d 61 67 65 3d 39 30 30 0d   rol:max-age=900.
01a0  0a 53 65 72 76 65 72 3a 4d 69 63 72 6f 73 6f 66   .Server:Microsof
01b0  74 2d 57 69 6e 64 6f 77 73 2d 4e 54 2f 35 2e 31   t-Windows-NT/5.1
01c0  20 55 50 6e 50 2f 31 2e 30 20 55 50 6e 50 2d 44    UPnP/1.0 UPnP-D
01d0  65 76 69 63 65 2d 48 6f 73 74 2f 31 2e 30 0d 0a   evice-Host/1.0..
01e0  4f 50 54 3a 22 68 74 74 70 3a 2f 2f 73 63 68 65   OPT:"http://sche
01f0  6d 61 73 2e 75 70 6e 70 2e 6f 72 67 2f 75 70 6e   mas.upnp.org/upn
0200  70 2f 31 2f 30 2f 22 3b 20 6e 73 3d 30 31 0d 0a   p/1/0/"; ns=01..
0210  30 31 2d 4e 4c 53 3a 64 31 32 62 30 38 36 38 39   01-NLS:d12b08689
0220  66 32 34 35 37 32 65 34 30 63 63 39 34 64 34 34   f24572e40cc94d44
0230  37 64 36 65 30 30 39 0d 0a 0d 0a                  7d6e009....

Frame 4: 153 bytes on wire (1224 bits), 153 bytes captured (1224 bits) on interface 0
    Interface id: 0 (\Device\NPF_{7E5A8EA0-1EDB-4812-B187-0955452C6E36})
        Interface name: \Device\NPF_{7E5A8EA0-1EDB-4812-B187-0955452C6E36}
    Encapsulation type: Ethernet (1)
    Arrival Time: Oct 11, 2016 10:35:55.473511000 CEST
    [Time shift for this packet: 0.000000000 seconds]
    Epoch Time: 1476174955.473511000 seconds
    [Time delta from previous captured frame: 0.376593000 seconds]
    [Time delta from previous displayed frame: 0.376593000 seconds]
    [Time since reference or first frame: 0.470026000 seconds]
    Frame Number: 4
    Frame Length: 153 bytes (1224 bits)
    Capture Length: 153 bytes (1224 bits)
    [Frame is marked: False]
    [Frame is ignored: False]
    [Protocols in frame: eth:ethertype:ipv6:udp:ssdp]
Ethernet II, Src: 00:ff:7e:5a:8e:a0 (00:ff:7e:5a:8e:a0), Dst: IPv6mcast_0c (33:33:00:00:00:0c)
    Destination: IPv6mcast_0c (33:33:00:00:00:0c)
        Address: IPv6mcast_0c (33:33:00:00:00:0c)
        .... ..1. .... .... .... .... = LG bit: Locally administered address (this is NOT the factory default)
        .... ...1 .... .... .... .... = IG bit: Group address (multicast/broadcast)
    Source: 00:ff:7e:5a:8e:a0 (00:ff:7e:5a:8e:a0)
        Address: 00:ff:7e:5a:8e:a0 (00:ff:7e:5a:8e:a0)
        .... ..0. .... .... .... .... = LG bit: Globally unique address (factory default)
        .... ...0 .... .... .... .... = IG bit: Individual address (unicast)
    Type: IPv6 (0x86dd)
Internet Protocol Version 6, Src: fe80::a0b3:8408:64d8:5916, Dst: ff02::c
    0110 .... = Version: 6
    .... 0000 0000 .... .... .... .... .... = Traffic Class: 0x00 (DSCP: CS0, ECN: Not-ECT)
        .... 0000 00.. .... .... .... .... .... = Differentiated Services Codepoint: Default (0)
        .... .... ..00 .... .... .... .... .... = Explicit Congestion Notification: Not ECN-Capable Transport (0)
    .... .... .... 0000 0000 0000 0000 0000 = Flow Label: 0x00000
    Payload Length: 99
    Next Header: UDP (17)
    Hop Limit: 1
    Source: fe80::a0b3:8408:64d8:5916
    Destination: ff02::c
User Datagram Protocol, Src Port: 57301, Dst Port: 1900
    Source Port: 57301
    Destination Port: 1900
    Length: 99
    Checksum: 0x2e2f [unverified]
    [Checksum Status: Unverified]
    [Stream index: 3]
Simple Service Discovery Protocol
    M-SEARCH * HTTP/1.1\r\n
        [Expert Info (Chat/Sequence): M-SEARCH * HTTP/1.1\r\n]
            [M-SEARCH * HTTP/1.1\r\n]
            [Severity level: Chat]
            [Group: Sequence]
        Request Method: M-SEARCH
        Request URI: *
        Request Version: HTTP/1.1
    Host:[FF02::C]:1900\r\n
    ST:upnp:rootdevice\r\n
    Man:"ssdp:discover"\r\n
    MX:3\r\n
    \r\n
    [Full request URI: http://[FF02::C]:1900*]
    [HTTP request 1/1]

0000  33 33 00 00 00 0c 00 ff 7e 5a 8e a0 86 dd 60 00   33......~Z....`.
0010  00 00 00 63 11 01 fe 80 00 00 00 00 00 00 a0 b3   ...c............
0020  84 08 64 d8 59 16 ff 02 00 00 00 00 00 00 00 00   ..d.Y...........
0030  00 00 00 00 00 0c df d5 07 6c 00 63 2e 2f 4d 2d   .........l.c./M-
0040  53 45 41 52 43 48 20 2a 20 48 54 54 50 2f 31 2e   SEARCH * HTTP/1.
0050  31 0d 0a 48 6f 73 74 3a 5b 46 46 30 32 3a 3a 43   1..Host:[FF02::C
0060  5d 3a 31 39 30 30 0d 0a 53 54 3a 75 70 6e 70 3a   ]:1900..ST:upnp:
0070  72 6f 6f 74 64 65 76 69 63 65 0d 0a 4d 61 6e 3a   rootdevice..Man:
0080  22 73 73 64 70 3a 64 69 73 63 6f 76 65 72 22 0d   "ssdp:discover".
0090  0a 4d 58 3a 33 0d 0a 0d 0a                        .MX:3....

Frame 5: 139 bytes on wire (1112 bits), 139 bytes captured (1112 bits) on interface 0
    Interface id: 0 (\Device\NPF_{7E5A8EA0-1EDB-4812-B187-0955452C6E36})
        Interface name: \Device\NPF_{7E5A8EA0-1EDB-4812-B187-0955452C6E36}
    Encapsulation type: Ethernet (1)
    Arrival Time: Oct 11, 2016 10:35:55.473750000 CEST
    [Time shift for this packet: 0.000000000 seconds]
    Epoch Time: 1476174955.473750000 seconds
    [Time delta from previous captured frame: 0.000239000 seconds]
    [Time delta from previous displayed frame: 0.000239000 seconds]
    [Time since reference or first frame: 0.470265000 seconds]
    Frame Number: 5
    Frame Length: 139 bytes (1112 bits)
    Capture Length: 139 bytes (1112 bits)
    [Frame is marked: False]
    [Frame is ignored: False]
    [Protocols in frame: eth:ethertype:ip:udp:ssdp]
Ethernet II, Src: 00:ff:7e:5a:8e:a0 (00:ff:7e:5a:8e:a0), Dst: IPv4mcast_7f:ff:fa (01:00:5e:7f:ff:fa)
    Destination: IPv4mcast_7f:ff:fa (01:00:5e:7f:ff:fa)
        Address: IPv4mcast_7f:ff:fa (01:00:5e:7f:ff:fa)
        .... ..0. .... .... .... .... = LG bit: Globally unique address (factory default)
        .... ...1 .... .... .... .... = IG bit: Group address (multicast/broadcast)
    Source: 00:ff:7e:5a:8e:a0 (00:ff:7e:5a:8e:a0)
        Address: 00:ff:7e:5a:8e:a0 (00:ff:7e:5a:8e:a0)
        .... ..0. .... .... .... .... = LG bit: Globally unique address (factory default)
        .... ...0 .... .... .... .... = IG bit: Individual address (unicast)
    Type: IPv4 (0x0800)
Internet Protocol Version 4, Src: 128.93.101.51, Dst: 239.255.255.250
    0100 .... = Version: 4
    .... 0101 = Header Length: 20 bytes (5)
    Differentiated Services Field: 0x00 (DSCP: CS0, ECN: Not-ECT)
        0000 00.. = Differentiated Services Codepoint: Default (0)
        .... ..00 = Explicit Congestion Notification: Not ECN-Capable Transport (0)
    Total Length: 125
    Identification: 0x0a7d (2685)
    Flags: 0x00
        0... .... = Reserved bit: Not set
        .0.. .... = Don't fragment: Not set
        ..0. .... = More fragments: Not set
    Fragment offset: 0
    Time to live: 1
    Protocol: UDP (17)
    Header checksum: 0xd968 [validation disabled]
    [Header checksum status: Unverified]
    Source: 128.93.101.51
    Destination: 239.255.255.250
User Datagram Protocol, Src Port: 57307, Dst Port: 1900
    Source Port: 57307
    Destination Port: 1900
    Length: 105
    Checksum: 0x0763 [unverified]
    [Checksum Status: Unverified]
    [Stream index: 4]
Simple Service Discovery Protocol
    M-SEARCH * HTTP/1.1\r\n
        [Expert Info (Chat/Sequence): M-SEARCH * HTTP/1.1\r\n]
            [M-SEARCH * HTTP/1.1\r\n]
            [Severity level: Chat]
            [Group: Sequence]
        Request Method: M-SEARCH
        Request URI: *
        Request Version: HTTP/1.1
    Host:239.255.255.250:1900\r\n
    ST:upnp:rootdevice\r\n
    Man:"ssdp:discover"\r\n
    MX:3\r\n
    \r\n
    [Full request URI: http://239.255.255.250:1900*]
    [HTTP request 1/1]

0000  01 00 5e 7f ff fa 00 ff 7e 5a 8e a0 08 00 45 00   ..^.....~Z....E.
0010  00 7d 0a 7d 00 00 01 11 d9 68 80 5d 65 33 ef ff   .}.}.....h.]e3..
0020  ff fa df db 07 6c 00 69 07 63 4d 2d 53 45 41 52   .....l.i.cM-SEAR
0030  43 48 20 2a 20 48 54 54 50 2f 31 2e 31 0d 0a 48   CH * HTTP/1.1..H
0040  6f 73 74 3a 32 33 39 2e 32 35 35 2e 32 35 35 2e   ost:239.255.255.
0050  32 35 30 3a 31 39 30 30 0d 0a 53 54 3a 75 70 6e   250:1900..ST:upn
0060  70 3a 72 6f 6f 74 64 65 76 69 63 65 0d 0a 4d 61   p:rootdevice..Ma
0070  6e 3a 22 73 73 64 70 3a 64 69 73 63 6f 76 65 72   n:"ssdp:discover
0080  22 0d 0a 4d 58 3a 33 0d 0a 0d 0a                  "..MX:3....

Frame 6: 445 bytes on wire (3560 bits), 445 bytes captured (3560 bits) on interface 0
    Interface id: 0 (\Device\NPF_{7E5A8EA0-1EDB-4812-B187-0955452C6E36})
        Interface name: \Device\NPF_{7E5A8EA0-1EDB-4812-B187-0955452C6E36}
    Encapsulation type: Ethernet (1)
    Arrival Time: Oct 11, 2016 10:35:55.502521000 CEST
    [Time shift for this packet: 0.000000000 seconds]
    Epoch Time: 1476174955.502521000 seconds
    [Time delta from previous captured frame: 0.028771000 seconds]
    [Time delta from previous displayed frame: 0.028771000 seconds]
    [Time since reference or first frame: 0.499036000 seconds]
    Frame Number: 6
    Frame Length: 445 bytes (3560 bits)
    Capture Length: 445 bytes (3560 bits)
    [Frame is marked: False]
    [Frame is ignored: False]
    [Protocols in frame: eth:ethertype:ip:udp:mdns]
Ethernet II, Src: 00:ff:7e:5a:8e:a0 (00:ff:7e:5a:8e:a0), Dst: IPv4mcast_fb (01:00:5e:00:00:fb)
    Destination: IPv4mcast_fb (01:00:5e:00:00:fb)
        Address: IPv4mcast_fb (01:00:5e:00:00:fb)
        .... ..0. .... .... .... .... = LG bit: Globally unique address (factory default)
        .... ...1 .... .... .... .... = IG bit: Group address (multicast/broadcast)
    Source: 00:ff:7e:5a:8e:a0 (00:ff:7e:5a:8e:a0)
        Address: 00:ff:7e:5a:8e:a0 (00:ff:7e:5a:8e:a0)
        .... ..0. .... .... .... .... = LG bit: Globally unique address (factory default)
        .... ...0 .... .... .... .... = IG bit: Individual address (unicast)
    Type: IPv4 (0x0800)
Internet Protocol Version 4, Src: 128.93.101.51, Dst: 224.0.0.251
    0100 .... = Version: 4
    .... 0101 = Header Length: 20 bytes (5)
    Differentiated Services Field: 0x00 (DSCP: CS0, ECN: Not-ECT)
        0000 00.. = Differentiated Services Codepoint: Default (0)
        .... ..00 = Explicit Congestion Notification: Not ECN-Capable Transport (0)
    Total Length: 431
    Identification: 0x0a7e (2686)
    Flags: 0x00
        0... .... = Reserved bit: Not set
        .0.. .... = Don't fragment: Not set
        ..0. .... = More fragments: Not set
    Fragment offset: 0
    Time to live: 255
    Protocol: UDP (17)
    Header checksum: 0xe933 [validation disabled]
    [Header checksum status: Unverified]
    Source: 128.93.101.51
    Destination: 224.0.0.251
User Datagram Protocol, Src Port: 5353, Dst Port: 5353
    Source Port: 5353
    Destination Port: 5353
    Length: 411
    Checksum: 0x6946 [unverified]
    [Checksum Status: Unverified]
    [Stream index: 5]
Multicast Domain Name System (response)
    Transaction ID: 0x0000
    Flags: 0x8400 Standard query response, No error
        1... .... .... .... = Response: Message is a response
        .000 0... .... .... = Opcode: Standard query (0)
        .... .1.. .... .... = Authoritative: Server is an authority for domain
        .... ..0. .... .... = Truncated: Message is not truncated
        .... ...0 .... .... = Recursion desired: Don't do query recursively
        .... .... 0... .... = Recursion available: Server can't do recursive queries
        .... .... .0.. .... = Z: reserved (0)
        .... .... ..0. .... = Answer authenticated: Answer/authority portion was not authenticated by the server
        .... .... ...0 .... = Non-authenticated data: Unacceptable
        .... .... .... 0000 = Reply code: No error (0)
    Questions: 0
    Answer RRs: 6
    Authority RRs: 0
    Additional RRs: 5
    Answers
        51.101.93.128.in-addr.arpa: type PTR, class IN, cache flush, Tengfei-HP.local
            Name: 51.101.93.128.in-addr.arpa
            Type: PTR (domain name PoinTeR) (12)
            .000 0000 0000 0001 = Class: IN (0x0001)
            1... .... .... .... = Cache flush: True
            Time to live: 120
            Data length: 18
            Domain Name: Tengfei-HP.local
        1.0.0.0.0.0.0.0.0.0.0.0.0.0.0.0.0.0.0.0.0.0.0.0.0.0.0.0.B.B.B.B.ip6.arpa: type PTR, class IN, cache flush, Tengfei-HP.local
            Name: 1.0.0.0.0.0.0.0.0.0.0.0.0.0.0.0.0.0.0.0.0.0.0.0.0.0.0.0.B.B.B.B.ip6.arpa
            Type: PTR (domain name PoinTeR) (12)
            .000 0000 0000 0001 = Class: IN (0x0001)
            1... .... .... .... = Cache flush: True
            Time to live: 120
            Data length: 2
            Domain Name: Tengfei-HP.local
        6.1.9.5.8.D.4.6.8.0.4.8.3.B.0.A.0.0.0.0.0.0.0.0.0.0.0.0.0.8.E.F.ip6.arpa: type PTR, class IN, cache flush, Tengfei-HP.local
            Name: 6.1.9.5.8.D.4.6.8.0.4.8.3.B.0.A.0.0.0.0.0.0.0.0.0.0.0.0.0.8.E.F.ip6.arpa
            Type: PTR (domain name PoinTeR) (12)
            .000 0000 0000 0001 = Class: IN (0x0001)
            1... .... .... .... = Cache flush: True
            Time to live: 120
            Data length: 2
            Domain Name: Tengfei-HP.local
        Tengfei-HP.local: type A, class IN, cache flush, addr 128.93.101.51
            Name: Tengfei-HP.local
            Type: A (Host Address) (1)
            .000 0000 0000 0001 = Class: IN (0x0001)
            1... .... .... .... = Cache flush: True
            Time to live: 120
            Data length: 4
            Address: 128.93.101.51
        Tengfei-HP.local: type AAAA, class IN, cache flush, addr bbbb::1
            Name: Tengfei-HP.local
            Type: AAAA (IPv6 Address) (28)
            .000 0000 0000 0001 = Class: IN (0x0001)
            1... .... .... .... = Cache flush: True
            Time to live: 120
            Data length: 16
            AAAA Address: bbbb::1
        Tengfei-HP.local: type AAAA, class IN, cache flush, addr fe80::a0b3:8408:64d8:5916
            Name: Tengfei-HP.local
            Type: AAAA (IPv6 Address) (28)
            .000 0000 0000 0001 = Class: IN (0x0001)
            1... .... .... .... = Cache flush: True
            Time to live: 120
            Data length: 16
            AAAA Address: fe80::a0b3:8408:64d8:5916
    Additional records
        51.101.93.128.in-addr.arpa: type NSEC, class IN, cache flush, next domain name 51.101.93.128.in-addr.arpa
            Name: 51.101.93.128.in-addr.arpa
            Type: NSEC (47)
            .000 0000 0000 0001 = Class: IN (0x0001)
            1... .... .... .... = Cache flush: True
            Time to live: 120
            Data length: 6
            Next Domain Name: 51.101.93.128.in-addr.arpa
            RR type in bit map: PTR (domain name PoinTeR)
        1.0.0.0.0.0.0.0.0.0.0.0.0.0.0.0.0.0.0.0.0.0.0.0.0.0.0.0.B.B.B.B.ip6.arpa: type NSEC, class IN, cache flush, next domain name 1.0.0.0.0.0.0.0.0.0.0.0.0.0.0.0.0.0.0.0.0.0.0.0.0.0.0.0.B.B.B.B.ip6.arpa
            Name: 1.0.0.0.0.0.0.0.0.0.0.0.0.0.0.0.0.0.0.0.0.0.0.0.0.0.0.0.B.B.B.B.ip6.arpa
            Type: NSEC (47)
            .000 0000 0000 0001 = Class: IN (0x0001)
            1... .... .... .... = Cache flush: True
            Time to live: 120
            Data length: 6
            Next Domain Name: 1.0.0.0.0.0.0.0.0.0.0.0.0.0.0.0.0.0.0.0.0.0.0.0.0.0.0.0.B.B.B.B.ip6.arpa
            RR type in bit map: PTR (domain name PoinTeR)
        6.1.9.5.8.D.4.6.8.0.4.8.3.B.0.A.0.0.0.0.0.0.0.0.0.0.0.0.0.8.E.F.ip6.arpa: type NSEC, class IN, cache flush, next domain name 6.1.9.5.8.D.4.6.8.0.4.8.3.B.0.A.0.0.0.0.0.0.0.0.0.0.0.0.0.8.E.F.ip6.arpa
            Name: 6.1.9.5.8.D.4.6.8.0.4.8.3.B.0.A.0.0.0.0.0.0.0.0.0.0.0.0.0.8.E.F.ip6.arpa
            Type: NSEC (47)
            .000 0000 0000 0001 = Class: IN (0x0001)
            1... .... .... .... = Cache flush: True
            Time to live: 120
            Data length: 6
            Next Domain Name: 6.1.9.5.8.D.4.6.8.0.4.8.3.B.0.A.0.0.0.0.0.0.0.0.0.0.0.0.0.8.E.F.ip6.arpa
            RR type in bit map: PTR (domain name PoinTeR)
        Tengfei-HP.local: type NSEC, class IN, cache flush, next domain name Tengfei-HP.local
            Name: Tengfei-HP.local
            Type: NSEC (47)
            .000 0000 0000 0001 = Class: IN (0x0001)
            1... .... .... .... = Cache flush: True
            Time to live: 120
            Data length: 8
            Next Domain Name: Tengfei-HP.local
            RR type in bit map: A (Host Address)
            RR type in bit map: AAAA (IPv6 Address)
        <Root>: type OPT
            Name: <Root>
            Type: OPT (41)
            .000 0101 1010 0000 = UDP payload size: 0x05a0
            0... .... .... .... = Cache flush: False
            Higher bits in extended RCODE: 0x00
            EDNS0 version: 0
            Z: 0x1194
                0... .... .... .... = DO bit: Cannot handle DNSSEC security RRs
                .001 0001 1001 0100 = Reserved: 0x1194
            Data length: 18
            Option: Owner (reserved)
                Option Code: Owner (reserved) (4)
                Option Length: 14
                Option Data: 000064809989b1bf00ff7e5a8ea0

0000  01 00 5e 00 00 fb 00 ff 7e 5a 8e a0 08 00 45 00   ..^.....~Z....E.
0010  01 af 0a 7e 00 00 ff 11 e9 33 80 5d 65 33 e0 00   ...~.....3.]e3..
0020  00 fb 14 e9 14 e9 01 9b 69 46 00 00 84 00 00 00   ........iF......
0030  00 06 00 00 00 05 02 35 31 03 31 30 31 02 39 33   .......51.101.93
0040  03 31 32 38 07 69 6e 2d 61 64 64 72 04 61 72 70   .128.in-addr.arp
0050  61 00 00 0c 80 01 00 00 00 78 00 12 0a 54 65 6e   a........x...Ten
0060  67 66 65 69 2d 48 50 05 6c 6f 63 61 6c 00 01 31   gfei-HP.local..1
0070  01 30 01 30 01 30 01 30 01 30 01 30 01 30 01 30   .0.0.0.0.0.0.0.0
0080  01 30 01 30 01 30 01 30 01 30 01 30 01 30 01 30   .0.0.0.0.0.0.0.0
0090  01 30 01 30 01 30 01 30 01 30 01 30 01 30 01 30   .0.0.0.0.0.0.0.0
00a0  01 30 01 30 01 30 01 42 01 42 01 42 01 42 03 69   .0.0.0.B.B.B.B.i
00b0  70 36 c0 22 00 0c 80 01 00 00 00 78 00 02 c0 32   p6.".......x...2
00c0  01 36 01 31 01 39 01 35 01 38 01 44 01 34 01 36   .6.1.9.5.8.D.4.6
00d0  01 38 01 30 01 34 01 38 01 33 01 42 01 30 01 41   .8.0.4.8.3.B.0.A
00e0  01 30 01 30 01 30 01 30 01 30 01 30 01 30 01 30   .0.0.0.0.0.0.0.0
00f0  01 30 01 30 01 30 01 30 01 30 01 38 01 45 01 46   .0.0.0.0.0.8.E.F
0100  c0 84 00 0c 80 01 00 00 00 78 00 02 c0 32 c0 32   .........x...2.2
0110  00 01 80 01 00 00 00 78 00 04 80 5d 65 33 c0 32   .......x...]e3.2
0120  00 1c 80 01 00 00 00 78 00 10 bb bb 00 00 00 00   .......x........
0130  00 00 00 00 00 00 00 00 00 01 c0 32 00 1c 80 01   ...........2....
0140  00 00 00 78 00 10 fe 80 00 00 00 00 00 00 a0 b3   ...x............
0150  84 08 64 d8 59 16 c0 0c 00 2f 80 01 00 00 00 78   ..d.Y..../.....x
0160  00 06 c0 0c 00 02 00 08 c0 44 00 2f 80 01 00 00   .........D./....
0170  00 78 00 06 c0 44 00 02 00 08 c0 96 00 2f 80 01   .x...D......./..
0180  00 00 00 78 00 06 c0 96 00 02 00 08 c0 32 00 2f   ...x.........2./
0190  80 01 00 00 00 78 00 08 c0 32 00 04 40 00 00 08   .....x...2..@...
01a0  00 00 29 05 a0 00 00 11 94 00 12 00 04 00 0e 00   ..).............
01b0  00 64 80 99 89 b1 bf 00 ff 7e 5a 8e a0            .d.......~Z..

Frame 7: 90 bytes on wire (720 bits), 90 bytes captured (720 bits) on interface 0
    Interface id: 0 (\Device\NPF_{7E5A8EA0-1EDB-4812-B187-0955452C6E36})
        Interface name: \Device\NPF_{7E5A8EA0-1EDB-4812-B187-0955452C6E36}
    Encapsulation type: Ethernet (1)
    Arrival Time: Oct 11, 2016 10:35:55.596580000 CEST
    [Time shift for this packet: 0.000000000 seconds]
    Epoch Time: 1476174955.596580000 seconds
    [Time delta from previous captured frame: 0.094059000 seconds]
    [Time delta from previous displayed frame: 0.094059000 seconds]
    [Time since reference or first frame: 0.593095000 seconds]
    Frame Number: 7
    Frame Length: 90 bytes (720 bits)
    Capture Length: 90 bytes (720 bits)
    [Frame is marked: False]
    [Frame is ignored: False]
    [Protocols in frame: eth:ethertype:ipv6:ipv6.hopopts:icmpv6]
Ethernet II, Src: 00:ff:7e:5a:8e:a0 (00:ff:7e:5a:8e:a0), Dst: IPv6mcast_16 (33:33:00:00:00:16)
    Destination: IPv6mcast_16 (33:33:00:00:00:16)
        Address: IPv6mcast_16 (33:33:00:00:00:16)
        .... ..1. .... .... .... .... = LG bit: Locally administered address (this is NOT the factory default)
        .... ...1 .... .... .... .... = IG bit: Group address (multicast/broadcast)
    Source: 00:ff:7e:5a:8e:a0 (00:ff:7e:5a:8e:a0)
        Address: 00:ff:7e:5a:8e:a0 (00:ff:7e:5a:8e:a0)
        .... ..0. .... .... .... .... = LG bit: Globally unique address (factory default)
        .... ...0 .... .... .... .... = IG bit: Individual address (unicast)
    Type: IPv6 (0x86dd)
Internet Protocol Version 6, Src: fe80::a0b3:8408:64d8:5916, Dst: ff02::16
    0110 .... = Version: 6
    .... 0000 0000 .... .... .... .... .... = Traffic Class: 0x00 (DSCP: CS0, ECN: Not-ECT)
        .... 0000 00.. .... .... .... .... .... = Differentiated Services Codepoint: Default (0)
        .... .... ..00 .... .... .... .... .... = Explicit Congestion Notification: Not ECN-Capable Transport (0)
    .... .... .... 0000 0000 0000 0000 0000 = Flow Label: 0x00000
    Payload Length: 36
    Next Header: IPv6 Hop-by-Hop Option (0)
    Hop Limit: 1
    Source: fe80::a0b3:8408:64d8:5916
    Destination: ff02::16
    IPv6 Hop-by-Hop Option
        Next Header: ICMPv6 (58)
        Length: 0
        [Length: 8 bytes]
        Router Alert
            Type: Router Alert (0x05)
                00.. .... = Action: Skip and continue (0)
                ..0. .... = May Change: No
                ...0 0101 = Low-Order Bits: 0x05
            Length: 2
            Router Alert: MLD (0)
        PadN
            Type: PadN (0x01)
                00.. .... = Action: Skip and continue (0)
                ..0. .... = May Change: No
                ...0 0001 = Low-Order Bits: 0x01
            Length: 0
            PadN: <none>
Internet Control Message Protocol v6
    Type: Multicast Listener Report Message v2 (143)
    Code: 0
    Checksum: 0x8d65 [correct]
    [Checksum Status: Good]
    Reserved: 0000
    Number of Multicast Address Records: 1
    Multicast Address Record Changed to include: ff02::fb
        Record Type: Changed to include (3)
        Aux Data Len: 0
        Number of Sources: 0
        Multicast Address: ff02::fb

0000  33 33 00 00 00 16 00 ff 7e 5a 8e a0 86 dd 60 00   33......~Z....`.
0010  00 00 00 24 00 01 fe 80 00 00 00 00 00 00 a0 b3   ...$............
0020  84 08 64 d8 59 16 ff 02 00 00 00 00 00 00 00 00   ..d.Y...........
0030  00 00 00 00 00 16 3a 00 05 02 00 00 01 00 8f 00   ......:.........
0040  8d 65 00 00 00 01 03 00 00 00 ff 02 00 00 00 00   .e..............
0050  00 00 00 00 00 00 00 00 00 fb                     ..........

Frame 8: 90 bytes on wire (720 bits), 90 bytes captured (720 bits) on interface 0
    Interface id: 0 (\Device\NPF_{7E5A8EA0-1EDB-4812-B187-0955452C6E36})
        Interface name: \Device\NPF_{7E5A8EA0-1EDB-4812-B187-0955452C6E36}
    Encapsulation type: Ethernet (1)
    Arrival Time: Oct 11, 2016 10:35:55.605737000 CEST
    [Time shift for this packet: 0.000000000 seconds]
    Epoch Time: 1476174955.605737000 seconds
    [Time delta from previous captured frame: 0.009157000 seconds]
    [Time delta from previous displayed frame: 0.009157000 seconds]
    [Time since reference or first frame: 0.602252000 seconds]
    Frame Number: 8
    Frame Length: 90 bytes (720 bits)
    Capture Length: 90 bytes (720 bits)
    [Frame is marked: False]
    [Frame is ignored: False]
    [Protocols in frame: eth:ethertype:ipv6:ipv6.hopopts:icmpv6]
Ethernet II, Src: 00:ff:7e:5a:8e:a0 (00:ff:7e:5a:8e:a0), Dst: IPv6mcast_16 (33:33:00:00:00:16)
    Destination: IPv6mcast_16 (33:33:00:00:00:16)
        Address: IPv6mcast_16 (33:33:00:00:00:16)
        .... ..1. .... .... .... .... = LG bit: Locally administered address (this is NOT the factory default)
        .... ...1 .... .... .... .... = IG bit: Group address (multicast/broadcast)
    Source: 00:ff:7e:5a:8e:a0 (00:ff:7e:5a:8e:a0)
        Address: 00:ff:7e:5a:8e:a0 (00:ff:7e:5a:8e:a0)
        .... ..0. .... .... .... .... = LG bit: Globally unique address (factory default)
        .... ...0 .... .... .... .... = IG bit: Individual address (unicast)
    Type: IPv6 (0x86dd)
Internet Protocol Version 6, Src: fe80::a0b3:8408:64d8:5916, Dst: ff02::16
    0110 .... = Version: 6
    .... 0000 0000 .... .... .... .... .... = Traffic Class: 0x00 (DSCP: CS0, ECN: Not-ECT)
        .... 0000 00.. .... .... .... .... .... = Differentiated Services Codepoint: Default (0)
        .... .... ..00 .... .... .... .... .... = Explicit Congestion Notification: Not ECN-Capable Transport (0)
    .... .... .... 0000 0000 0000 0000 0000 = Flow Label: 0x00000
    Payload Length: 36
    Next Header: IPv6 Hop-by-Hop Option (0)
    Hop Limit: 1
    Source: fe80::a0b3:8408:64d8:5916
    Destination: ff02::16
    IPv6 Hop-by-Hop Option
        Next Header: ICMPv6 (58)
        Length: 0
        [Length: 8 bytes]
        Router Alert
            Type: Router Alert (0x05)
                00.. .... = Action: Skip and continue (0)
                ..0. .... = May Change: No
                ...0 0101 = Low-Order Bits: 0x05
            Length: 2
            Router Alert: MLD (0)
        PadN
            Type: PadN (0x01)
                00.. .... = Action: Skip and continue (0)
                ..0. .... = May Change: No
                ...0 0001 = Low-Order Bits: 0x01
            Length: 0
            PadN: <none>
Internet Control Message Protocol v6
    Type: Multicast Listener Report Message v2 (143)
    Code: 0
    Checksum: 0x8c65 [correct]
    [Checksum Status: Good]
    Reserved: 0000
    Number of Multicast Address Records: 1
    Multicast Address Record Changed to exclude: ff02::fb
        Record Type: Changed to exclude (4)
        Aux Data Len: 0
        Number of Sources: 0
        Multicast Address: ff02::fb

0000  33 33 00 00 00 16 00 ff 7e 5a 8e a0 86 dd 60 00   33......~Z....`.
0010  00 00 00 24 00 01 fe 80 00 00 00 00 00 00 a0 b3   ...$............
0020  84 08 64 d8 59 16 ff 02 00 00 00 00 00 00 00 00   ..d.Y...........
0030  00 00 00 00 00 16 3a 00 05 02 00 00 01 00 8f 00   ......:.........
0040  8c 65 00 00 00 01 04 00 00 00 ff 02 00 00 00 00   .e..............
0050  00 00 00 00 00 00 00 00 00 fb                     ..........

Frame 9: 82 bytes on wire (656 bits), 82 bytes captured (656 bits) on interface 0
    Interface id: 0 (\Device\NPF_{7E5A8EA0-1EDB-4812-B187-0955452C6E36})
        Interface name: \Device\NPF_{7E5A8EA0-1EDB-4812-B187-0955452C6E36}
    Encapsulation type: Ethernet (1)
    Arrival Time: Oct 11, 2016 10:35:55.606969000 CEST
    [Time shift for this packet: 0.000000000 seconds]
    Epoch Time: 1476174955.606969000 seconds
    [Time delta from previous captured frame: 0.001232000 seconds]
    [Time delta from previous displayed frame: 0.001232000 seconds]
    [Time since reference or first frame: 0.603484000 seconds]
    Frame Number: 9
    Frame Length: 82 bytes (656 bits)
    Capture Length: 82 bytes (656 bits)
    [Frame is marked: False]
    [Frame is ignored: False]
    [Protocols in frame: eth:ethertype:ip:udp:mdns]
Ethernet II, Src: 00:ff:7e:5a:8e:a0 (00:ff:7e:5a:8e:a0), Dst: IPv4mcast_fb (01:00:5e:00:00:fb)
    Destination: IPv4mcast_fb (01:00:5e:00:00:fb)
        Address: IPv4mcast_fb (01:00:5e:00:00:fb)
        .... ..0. .... .... .... .... = LG bit: Globally unique address (factory default)
        .... ...1 .... .... .... .... = IG bit: Group address (multicast/broadcast)
    Source: 00:ff:7e:5a:8e:a0 (00:ff:7e:5a:8e:a0)
        Address: 00:ff:7e:5a:8e:a0 (00:ff:7e:5a:8e:a0)
        .... ..0. .... .... .... .... = LG bit: Globally unique address (factory default)
        .... ...0 .... .... .... .... = IG bit: Individual address (unicast)
    Type: IPv4 (0x0800)
Internet Protocol Version 4, Src: 128.93.101.51, Dst: 224.0.0.251
    0100 .... = Version: 4
    .... 0101 = Header Length: 20 bytes (5)
    Differentiated Services Field: 0x00 (DSCP: CS0, ECN: Not-ECT)
        0000 00.. = Differentiated Services Codepoint: Default (0)
        .... ..00 = Explicit Congestion Notification: Not ECN-Capable Transport (0)
    Total Length: 68
    Identification: 0x0a7f (2687)
    Flags: 0x00
        0... .... = Reserved bit: Not set
        .0.. .... = Don't fragment: Not set
        ..0. .... = More fragments: Not set
    Fragment offset: 0
    Time to live: 1
        [Expert Info (Note/Sequence): "Time To Live" != 255 for a packet sent to the Local Network Control Block (see RFC 3171)]
            ["Time To Live" != 255 for a packet sent to the Local Network Control Block (see RFC 3171)]
            [Severity level: Note]
            [Group: Sequence]
    Protocol: UDP (17)
    Header checksum: 0xe89e [validation disabled]
    [Header checksum status: Unverified]
    Source: 128.93.101.51
    Destination: 224.0.0.251
User Datagram Protocol, Src Port: 5353, Dst Port: 5353
    Source Port: 5353
    Destination Port: 5353
    Length: 48
    Checksum: 0xc517 [unverified]
    [Checksum Status: Unverified]
    [Stream index: 5]
Multicast Domain Name System (query)
    Transaction ID: 0x0000
    Flags: 0x0000 Standard query
        0... .... .... .... = Response: Message is a query
        .000 0... .... .... = Opcode: Standard query (0)
        .... ..0. .... .... = Truncated: Message is not truncated
        .... ...0 .... .... = Recursion desired: Don't do query recursively
        .... .... .0.. .... = Z: reserved (0)
        .... .... ...0 .... = Non-authenticated data: Unacceptable
    Questions: 1
    Answer RRs: 0
    Authority RRs: 0
    Additional RRs: 0
    Queries
        _googlecast._tcp.local: type PTR, class IN, "QM" question
            Name: _googlecast._tcp.local
            [Name Length: 22]
            [Label Count: 3]
            Type: PTR (domain name PoinTeR) (12)
            .000 0000 0000 0001 = Class: IN (0x0001)
            0... .... .... .... = "QU" question: False

0000  01 00 5e 00 00 fb 00 ff 7e 5a 8e a0 08 00 45 00   ..^.....~Z....E.
0010  00 44 0a 7f 00 00 01 11 e8 9e 80 5d 65 33 e0 00   .D.........]e3..
0020  00 fb 14 e9 14 e9 00 30 c5 17 00 00 00 00 00 01   .......0........
0030  00 00 00 00 00 00 0b 5f 67 6f 6f 67 6c 65 63 61   ......._googleca
0040  73 74 04 5f 74 63 70 05 6c 6f 63 61 6c 00 00 0c   st._tcp.local...
0050  00 01                                             ..

Frame 10: 102 bytes on wire (816 bits), 102 bytes captured (816 bits) on interface 0
    Interface id: 0 (\Device\NPF_{7E5A8EA0-1EDB-4812-B187-0955452C6E36})
        Interface name: \Device\NPF_{7E5A8EA0-1EDB-4812-B187-0955452C6E36}
    Encapsulation type: Ethernet (1)
    Arrival Time: Oct 11, 2016 10:35:55.607028000 CEST
    [Time shift for this packet: 0.000000000 seconds]
    Epoch Time: 1476174955.607028000 seconds
    [Time delta from previous captured frame: 0.000059000 seconds]
    [Time delta from previous displayed frame: 0.000059000 seconds]
    [Time since reference or first frame: 0.603543000 seconds]
    Frame Number: 10
    Frame Length: 102 bytes (816 bits)
    Capture Length: 102 bytes (816 bits)
    [Frame is marked: False]
    [Frame is ignored: False]
    [Protocols in frame: eth:ethertype:ipv6:udp:mdns]
Ethernet II, Src: 00:ff:7e:5a:8e:a0 (00:ff:7e:5a:8e:a0), Dst: IPv6mcast_fb (33:33:00:00:00:fb)
    Destination: IPv6mcast_fb (33:33:00:00:00:fb)
        Address: IPv6mcast_fb (33:33:00:00:00:fb)
        .... ..1. .... .... .... .... = LG bit: Locally administered address (this is NOT the factory default)
        .... ...1 .... .... .... .... = IG bit: Group address (multicast/broadcast)
    Source: 00:ff:7e:5a:8e:a0 (00:ff:7e:5a:8e:a0)
        Address: 00:ff:7e:5a:8e:a0 (00:ff:7e:5a:8e:a0)
        .... ..0. .... .... .... .... = LG bit: Globally unique address (factory default)
        .... ...0 .... .... .... .... = IG bit: Individual address (unicast)
    Type: IPv6 (0x86dd)
Internet Protocol Version 6, Src: fe80::a0b3:8408:64d8:5916, Dst: ff02::fb
    0110 .... = Version: 6
    .... 0000 0000 .... .... .... .... .... = Traffic Class: 0x00 (DSCP: CS0, ECN: Not-ECT)
        .... 0000 00.. .... .... .... .... .... = Differentiated Services Codepoint: Default (0)
        .... .... ..00 .... .... .... .... .... = Explicit Congestion Notification: Not ECN-Capable Transport (0)
    .... .... .... 0000 0000 0000 0000 0000 = Flow Label: 0x00000
    Payload Length: 48
    Next Header: UDP (17)
    Hop Limit: 1
    Source: fe80::a0b3:8408:64d8:5916
    Destination: ff02::fb
User Datagram Protocol, Src Port: 5353, Dst Port: 5353
    Source Port: 5353
    Destination Port: 5353
    Length: 48
    Checksum: 0xaa7a [unverified]
    [Checksum Status: Unverified]
    [Stream index: 6]
Multicast Domain Name System (query)
    Transaction ID: 0x0000
    Flags: 0x0000 Standard query
        0... .... .... .... = Response: Message is a query
        .000 0... .... .... = Opcode: Standard query (0)
        .... ..0. .... .... = Truncated: Message is not truncated
        .... ...0 .... .... = Recursion desired: Don't do query recursively
        .... .... .0.. .... = Z: reserved (0)
        .... .... ...0 .... = Non-authenticated data: Unacceptable
    Questions: 1
    Answer RRs: 0
    Authority RRs: 0
    Additional RRs: 0
    Queries
        _googlecast._tcp.local: type PTR, class IN, "QM" question
            Name: _googlecast._tcp.local
            [Name Length: 22]
            [Label Count: 3]
            Type: PTR (domain name PoinTeR) (12)
            .000 0000 0000 0001 = Class: IN (0x0001)
            0... .... .... .... = "QU" question: False

0000  33 33 00 00 00 fb 00 ff 7e 5a 8e a0 86 dd 60 00   33......~Z....`.
0010  00 00 00 30 11 01 fe 80 00 00 00 00 00 00 a0 b3   ...0............
0020  84 08 64 d8 59 16 ff 02 00 00 00 00 00 00 00 00   ..d.Y...........
0030  00 00 00 00 00 fb 14 e9 14 e9 00 30 aa 7a 00 00   ...........0.z..
0040  00 00 00 01 00 00 00 00 00 00 0b 5f 67 6f 6f 67   ..........._goog
0050  6c 65 63 61 73 74 04 5f 74 63 70 05 6c 6f 63 61   lecast._tcp.loca
0060  6c 00 00 0c 00 01                                 l.....

Frame 11: 82 bytes on wire (656 bits), 82 bytes captured (656 bits) on interface 0
    Interface id: 0 (\Device\NPF_{7E5A8EA0-1EDB-4812-B187-0955452C6E36})
        Interface name: \Device\NPF_{7E5A8EA0-1EDB-4812-B187-0955452C6E36}
    Encapsulation type: Ethernet (1)
    Arrival Time: Oct 11, 2016 10:35:55.608030000 CEST
    [Time shift for this packet: 0.000000000 seconds]
    Epoch Time: 1476174955.608030000 seconds
    [Time delta from previous captured frame: 0.001002000 seconds]
    [Time delta from previous displayed frame: 0.001002000 seconds]
    [Time since reference or first frame: 0.604545000 seconds]
    Frame Number: 11
    Frame Length: 82 bytes (656 bits)
    Capture Length: 82 bytes (656 bits)
    [Frame is marked: False]
    [Frame is ignored: False]
    [Protocols in frame: eth:ethertype:ip:udp:mdns]
Ethernet II, Src: 00:ff:7e:5a:8e:a0 (00:ff:7e:5a:8e:a0), Dst: IPv4mcast_fb (01:00:5e:00:00:fb)
    Destination: IPv4mcast_fb (01:00:5e:00:00:fb)
        Address: IPv4mcast_fb (01:00:5e:00:00:fb)
        .... ..0. .... .... .... .... = LG bit: Globally unique address (factory default)
        .... ...1 .... .... .... .... = IG bit: Group address (multicast/broadcast)
    Source: 00:ff:7e:5a:8e:a0 (00:ff:7e:5a:8e:a0)
        Address: 00:ff:7e:5a:8e:a0 (00:ff:7e:5a:8e:a0)
        .... ..0. .... .... .... .... = LG bit: Globally unique address (factory default)
        .... ...0 .... .... .... .... = IG bit: Individual address (unicast)
    Type: IPv4 (0x0800)
Internet Protocol Version 4, Src: 128.93.101.51, Dst: 224.0.0.251
    0100 .... = Version: 4
    .... 0101 = Header Length: 20 bytes (5)
    Differentiated Services Field: 0x00 (DSCP: CS0, ECN: Not-ECT)
        0000 00.. = Differentiated Services Codepoint: Default (0)
        .... ..00 = Explicit Congestion Notification: Not ECN-Capable Transport (0)
    Total Length: 68
    Identification: 0x0a80 (2688)
    Flags: 0x00
        0... .... = Reserved bit: Not set
        .0.. .... = Don't fragment: Not set
        ..0. .... = More fragments: Not set
    Fragment offset: 0
    Time to live: 1
        [Expert Info (Note/Sequence): "Time To Live" != 255 for a packet sent to the Local Network Control Block (see RFC 3171)]
            ["Time To Live" != 255 for a packet sent to the Local Network Control Block (see RFC 3171)]
            [Severity level: Note]
            [Group: Sequence]
    Protocol: UDP (17)
    Header checksum: 0xe89d [validation disabled]
    [Header checksum status: Unverified]
    Source: 128.93.101.51
    Destination: 224.0.0.251
User Datagram Protocol, Src Port: 5353, Dst Port: 5353
    Source Port: 5353
    Destination Port: 5353
    Length: 48
    Checksum: 0xc517 [unverified]
    [Checksum Status: Unverified]
    [Stream index: 5]
Multicast Domain Name System (query)
    Transaction ID: 0x0000
    Flags: 0x0000 Standard query
        0... .... .... .... = Response: Message is a query
        .000 0... .... .... = Opcode: Standard query (0)
        .... ..0. .... .... = Truncated: Message is not truncated
        .... ...0 .... .... = Recursion desired: Don't do query recursively
        .... .... .0.. .... = Z: reserved (0)
        .... .... ...0 .... = Non-authenticated data: Unacceptable
    Questions: 1
    Answer RRs: 0
    Authority RRs: 0
    Additional RRs: 0
    Queries
        _googlecast._tcp.local: type PTR, class IN, "QM" question
            Name: _googlecast._tcp.local
            [Name Length: 22]
            [Label Count: 3]
            Type: PTR (domain name PoinTeR) (12)
            .000 0000 0000 0001 = Class: IN (0x0001)
            0... .... .... .... = "QU" question: False

0000  01 00 5e 00 00 fb 00 ff 7e 5a 8e a0 08 00 45 00   ..^.....~Z....E.
0010  00 44 0a 80 00 00 01 11 e8 9d 80 5d 65 33 e0 00   .D.........]e3..
0020  00 fb 14 e9 14 e9 00 30 c5 17 00 00 00 00 00 01   .......0........
0030  00 00 00 00 00 00 0b 5f 67 6f 6f 67 6c 65 63 61   ......._googleca
0040  73 74 04 5f 74 63 70 05 6c 6f 63 61 6c 00 00 0c   st._tcp.local...
0050  00 01                                             ..

Frame 12: 102 bytes on wire (816 bits), 102 bytes captured (816 bits) on interface 0
    Interface id: 0 (\Device\NPF_{7E5A8EA0-1EDB-4812-B187-0955452C6E36})
        Interface name: \Device\NPF_{7E5A8EA0-1EDB-4812-B187-0955452C6E36}
    Encapsulation type: Ethernet (1)
    Arrival Time: Oct 11, 2016 10:35:55.608120000 CEST
    [Time shift for this packet: 0.000000000 seconds]
    Epoch Time: 1476174955.608120000 seconds
    [Time delta from previous captured frame: 0.000090000 seconds]
    [Time delta from previous displayed frame: 0.000090000 seconds]
    [Time since reference or first frame: 0.604635000 seconds]
    Frame Number: 12
    Frame Length: 102 bytes (816 bits)
    Capture Length: 102 bytes (816 bits)
    [Frame is marked: False]
    [Frame is ignored: False]
    [Protocols in frame: eth:ethertype:ipv6:udp:mdns]
Ethernet II, Src: 00:ff:7e:5a:8e:a0 (00:ff:7e:5a:8e:a0), Dst: IPv6mcast_fb (33:33:00:00:00:fb)
    Destination: IPv6mcast_fb (33:33:00:00:00:fb)
        Address: IPv6mcast_fb (33:33:00:00:00:fb)
        .... ..1. .... .... .... .... = LG bit: Locally administered address (this is NOT the factory default)
        .... ...1 .... .... .... .... = IG bit: Group address (multicast/broadcast)
    Source: 00:ff:7e:5a:8e:a0 (00:ff:7e:5a:8e:a0)
        Address: 00:ff:7e:5a:8e:a0 (00:ff:7e:5a:8e:a0)
        .... ..0. .... .... .... .... = LG bit: Globally unique address (factory default)
        .... ...0 .... .... .... .... = IG bit: Individual address (unicast)
    Type: IPv6 (0x86dd)
Internet Protocol Version 6, Src: fe80::a0b3:8408:64d8:5916, Dst: ff02::fb
    0110 .... = Version: 6
    .... 0000 0000 .... .... .... .... .... = Traffic Class: 0x00 (DSCP: CS0, ECN: Not-ECT)
        .... 0000 00.. .... .... .... .... .... = Differentiated Services Codepoint: Default (0)
        .... .... ..00 .... .... .... .... .... = Explicit Congestion Notification: Not ECN-Capable Transport (0)
    .... .... .... 0000 0000 0000 0000 0000 = Flow Label: 0x00000
    Payload Length: 48
    Next Header: UDP (17)
    Hop Limit: 1
    Source: fe80::a0b3:8408:64d8:5916
    Destination: ff02::fb
User Datagram Protocol, Src Port: 5353, Dst Port: 5353
    Source Port: 5353
    Destination Port: 5353
    Length: 48
    Checksum: 0xaa7a [unverified]
    [Checksum Status: Unverified]
    [Stream index: 6]
Multicast Domain Name System (query)
    Transaction ID: 0x0000
    Flags: 0x0000 Standard query
        0... .... .... .... = Response: Message is a query
        .000 0... .... .... = Opcode: Standard query (0)
        .... ..0. .... .... = Truncated: Message is not truncated
        .... ...0 .... .... = Recursion desired: Don't do query recursively
        .... .... .0.. .... = Z: reserved (0)
        .... .... ...0 .... = Non-authenticated data: Unacceptable
    Questions: 1
    Answer RRs: 0
    Authority RRs: 0
    Additional RRs: 0
    Queries
        _googlecast._tcp.local: type PTR, class IN, "QM" question
            Name: _googlecast._tcp.local
            [Name Length: 22]
            [Label Count: 3]
            Type: PTR (domain name PoinTeR) (12)
            .000 0000 0000 0001 = Class: IN (0x0001)
            0... .... .... .... = "QU" question: False

0000  33 33 00 00 00 fb 00 ff 7e 5a 8e a0 86 dd 60 00   33......~Z....`.
0010  00 00 00 30 11 01 fe 80 00 00 00 00 00 00 a0 b3   ...0............
0020  84 08 64 d8 59 16 ff 02 00 00 00 00 00 00 00 00   ..d.Y...........
0030  00 00 00 00 00 fb 14 e9 14 e9 00 30 aa 7a 00 00   ...........0.z..
0040  00 00 00 01 00 00 00 00 00 00 0b 5f 67 6f 6f 67   ..........._goog
0050  6c 65 63 61 73 74 04 5f 74 63 70 05 6c 6f 63 61   lecast._tcp.loca
0060  6c 00 00 0c 00 01                                 l.....

Frame 13: 529 bytes on wire (4232 bits), 529 bytes captured (4232 bits) on interface 0
    Interface id: 0 (\Device\NPF_{7E5A8EA0-1EDB-4812-B187-0955452C6E36})
        Interface name: \Device\NPF_{7E5A8EA0-1EDB-4812-B187-0955452C6E36}
    Encapsulation type: Ethernet (1)
    Arrival Time: Oct 11, 2016 10:35:55.610586000 CEST
    [Time shift for this packet: 0.000000000 seconds]
    Epoch Time: 1476174955.610586000 seconds
    [Time delta from previous captured frame: 0.002466000 seconds]
    [Time delta from previous displayed frame: 0.002466000 seconds]
    [Time since reference or first frame: 0.607101000 seconds]
    Frame Number: 13
    Frame Length: 529 bytes (4232 bits)
    Capture Length: 529 bytes (4232 bits)
    [Frame is marked: False]
    [Frame is ignored: False]
    [Protocols in frame: eth:ethertype:ip:udp:ssdp]
Ethernet II, Src: 00:ff:7e:5a:8e:a0 (00:ff:7e:5a:8e:a0), Dst: IPv4mcast_7f:ff:fa (01:00:5e:7f:ff:fa)
    Destination: IPv4mcast_7f:ff:fa (01:00:5e:7f:ff:fa)
        Address: IPv4mcast_7f:ff:fa (01:00:5e:7f:ff:fa)
        .... ..0. .... .... .... .... = LG bit: Globally unique address (factory default)
        .... ...1 .... .... .... .... = IG bit: Group address (multicast/broadcast)
    Source: 00:ff:7e:5a:8e:a0 (00:ff:7e:5a:8e:a0)
        Address: 00:ff:7e:5a:8e:a0 (00:ff:7e:5a:8e:a0)
        .... ..0. .... .... .... .... = LG bit: Globally unique address (factory default)
        .... ...0 .... .... .... .... = IG bit: Individual address (unicast)
    Type: IPv4 (0x0800)
Internet Protocol Version 4, Src: 128.93.101.51, Dst: 239.255.255.250
    0100 .... = Version: 4
    .... 0101 = Header Length: 20 bytes (5)
    Differentiated Services Field: 0x00 (DSCP: CS0, ECN: Not-ECT)
        0000 00.. = Differentiated Services Codepoint: Default (0)
        .... ..00 = Explicit Congestion Notification: Not ECN-Capable Transport (0)
    Total Length: 515
    Identification: 0x0a81 (2689)
    Flags: 0x00
        0... .... = Reserved bit: Not set
        .0.. .... = Don't fragment: Not set
        ..0. .... = More fragments: Not set
    Fragment offset: 0
    Time to live: 1
    Protocol: UDP (17)
    Header checksum: 0xd7de [validation disabled]
    [Header checksum status: Unverified]
    Source: 128.93.101.51
    Destination: 239.255.255.250
User Datagram Protocol, Src Port: 1900, Dst Port: 1900
    Source Port: 1900
    Destination Port: 1900
    Length: 495
    Checksum: 0xea30 [unverified]
    [Checksum Status: Unverified]
    [Stream index: 1]
Simple Service Discovery Protocol
    NOTIFY * HTTP/1.1\r\n
        [Expert Info (Chat/Sequence): NOTIFY * HTTP/1.1\r\n]
            [NOTIFY * HTTP/1.1\r\n]
            [Severity level: Chat]
            [Group: Sequence]
        Request Method: NOTIFY
        Request URI: *
        Request Version: HTTP/1.1
    Host:239.255.255.250:1900\r\n
    NT:urn:schemas-upnp-org:device:MediaServer:1\r\n
    NTS:ssdp:alive\r\n
    Location:http://128.93.101.51:2869/upnphost/udhisapi.dll?content=uuid:183ca8e5-7e6e-45ab-869b-d293c0bad9f8\r\n
    USN:uuid:183ca8e5-7e6e-45ab-869b-d293c0bad9f8::urn:schemas-upnp-org:device:MediaServer:1\r\n
    Cache-Control:max-age=900\r\n
    Server:Microsoft-Windows-NT/5.1 UPnP/1.0 UPnP-Device-Host/1.0\r\n
    OPT:"http://schemas.upnp.org/upnp/1/0/"; ns=01\r\n
    01-NLS:d12b08689f24572e40cc94d447d6e009\r\n
    \r\n
    [Full request URI: http://239.255.255.250:1900*]

0000  01 00 5e 7f ff fa 00 ff 7e 5a 8e a0 08 00 45 00   ..^.....~Z....E.
0010  02 03 0a 81 00 00 01 11 d7 de 80 5d 65 33 ef ff   ...........]e3..
0020  ff fa 07 6c 07 6c 01 ef ea 30 4e 4f 54 49 46 59   ...l.l...0NOTIFY
0030  20 2a 20 48 54 54 50 2f 31 2e 31 0d 0a 48 6f 73    * HTTP/1.1..Hos
0040  74 3a 32 33 39 2e 32 35 35 2e 32 35 35 2e 32 35   t:239.255.255.25
0050  30 3a 31 39 30 30 0d 0a 4e 54 3a 75 72 6e 3a 73   0:1900..NT:urn:s
0060  63 68 65 6d 61 73 2d 75 70 6e 70 2d 6f 72 67 3a   chemas-upnp-org:
0070  64 65 76 69 63 65 3a 4d 65 64 69 61 53 65 72 76   device:MediaServ
0080  65 72 3a 31 0d 0a 4e 54 53 3a 73 73 64 70 3a 61   er:1..NTS:ssdp:a
0090  6c 69 76 65 0d 0a 4c 6f 63 61 74 69 6f 6e 3a 68   live..Location:h
00a0  74 74 70 3a 2f 2f 31 32 38 2e 39 33 2e 31 30 31   ttp://128.93.101
00b0  2e 35 31 3a 32 38 36 39 2f 75 70 6e 70 68 6f 73   .51:2869/upnphos
00c0  74 2f 75 64 68 69 73 61 70 69 2e 64 6c 6c 3f 63   t/udhisapi.dll?c
00d0  6f 6e 74 65 6e 74 3d 75 75 69 64 3a 31 38 33 63   ontent=uuid:183c
00e0  61 38 65 35 2d 37 65 36 65 2d 34 35 61 62 2d 38   a8e5-7e6e-45ab-8
00f0  36 39 62 2d 64 32 39 33 63 30 62 61 64 39 66 38   69b-d293c0bad9f8
0100  0d 0a 55 53 4e 3a 75 75 69 64 3a 31 38 33 63 61   ..USN:uuid:183ca
0110  38 65 35 2d 37 65 36 65 2d 34 35 61 62 2d 38 36   8e5-7e6e-45ab-86
0120  39 62 2d 64 32 39 33 63 30 62 61 64 39 66 38 3a   9b-d293c0bad9f8:
0130  3a 75 72 6e 3a 73 63 68 65 6d 61 73 2d 75 70 6e   :urn:schemas-upn
0140  70 2d 6f 72 67 3a 64 65 76 69 63 65 3a 4d 65 64   p-org:device:Med
0150  69 61 53 65 72 76 65 72 3a 31 0d 0a 43 61 63 68   iaServer:1..Cach
0160  65 2d 43 6f 6e 74 72 6f 6c 3a 6d 61 78 2d 61 67   e-Control:max-ag
0170  65 3d 39 30 30 0d 0a 53 65 72 76 65 72 3a 4d 69   e=900..Server:Mi
0180  63 72 6f 73 6f 66 74 2d 57 69 6e 64 6f 77 73 2d   crosoft-Windows-
0190  4e 54 2f 35 2e 31 20 55 50 6e 50 2f 31 2e 30 20   NT/5.1 UPnP/1.0 
01a0  55 50 6e 50 2d 44 65 76 69 63 65 2d 48 6f 73 74   UPnP-Device-Host
01b0  2f 31 2e 30 0d 0a 4f 50 54 3a 22 68 74 74 70 3a   /1.0..OPT:"http:
01c0  2f 2f 73 63 68 65 6d 61 73 2e 75 70 6e 70 2e 6f   //schemas.upnp.o
01d0  72 67 2f 75 70 6e 70 2f 31 2f 30 2f 22 3b 20 6e   rg/upnp/1/0/"; n
01e0  73 3d 30 31 0d 0a 30 31 2d 4e 4c 53 3a 64 31 32   s=01..01-NLS:d12
01f0  62 30 38 36 38 39 66 32 34 35 37 32 65 34 30 63   b08689f24572e40c
0200  63 39 34 64 34 34 37 64 36 65 30 30 39 0d 0a 0d   c94d447d6e009...
0210  0a                                                .

Frame 14: 557 bytes on wire (4456 bits), 557 bytes captured (4456 bits) on interface 0
    Interface id: 0 (\Device\NPF_{7E5A8EA0-1EDB-4812-B187-0955452C6E36})
        Interface name: \Device\NPF_{7E5A8EA0-1EDB-4812-B187-0955452C6E36}
    Encapsulation type: Ethernet (1)
    Arrival Time: Oct 11, 2016 10:35:55.610739000 CEST
    [Time shift for this packet: 0.000000000 seconds]
    Epoch Time: 1476174955.610739000 seconds
    [Time delta from previous captured frame: 0.000153000 seconds]
    [Time delta from previous displayed frame: 0.000153000 seconds]
    [Time since reference or first frame: 0.607254000 seconds]
    Frame Number: 14
    Frame Length: 557 bytes (4456 bits)
    Capture Length: 557 bytes (4456 bits)
    [Frame is marked: False]
    [Frame is ignored: False]
    [Protocols in frame: eth:ethertype:ipv6:udp:ssdp]
Ethernet II, Src: 00:ff:7e:5a:8e:a0 (00:ff:7e:5a:8e:a0), Dst: IPv6mcast_0c (33:33:00:00:00:0c)
    Destination: IPv6mcast_0c (33:33:00:00:00:0c)
        Address: IPv6mcast_0c (33:33:00:00:00:0c)
        .... ..1. .... .... .... .... = LG bit: Locally administered address (this is NOT the factory default)
        .... ...1 .... .... .... .... = IG bit: Group address (multicast/broadcast)
    Source: 00:ff:7e:5a:8e:a0 (00:ff:7e:5a:8e:a0)
        Address: 00:ff:7e:5a:8e:a0 (00:ff:7e:5a:8e:a0)
        .... ..0. .... .... .... .... = LG bit: Globally unique address (factory default)
        .... ...0 .... .... .... .... = IG bit: Individual address (unicast)
    Type: IPv6 (0x86dd)
Internet Protocol Version 6, Src: fe80::a0b3:8408:64d8:5916, Dst: ff02::c
    0110 .... = Version: 6
    .... 0000 0000 .... .... .... .... .... = Traffic Class: 0x00 (DSCP: CS0, ECN: Not-ECT)
        .... 0000 00.. .... .... .... .... .... = Differentiated Services Codepoint: Default (0)
        .... .... ..00 .... .... .... .... .... = Explicit Congestion Notification: Not ECN-Capable Transport (0)
    .... .... .... 0000 0000 0000 0000 0000 = Flow Label: 0x00000
    Payload Length: 503
    Next Header: UDP (17)
    Hop Limit: 1
    Source: fe80::a0b3:8408:64d8:5916
    Destination: ff02::c
User Datagram Protocol, Src Port: 1900, Dst Port: 1900
    Source Port: 1900
    Destination Port: 1900
    Length: 503
    Checksum: 0x0f7f [unverified]
    [Checksum Status: Unverified]
    [Stream index: 2]
Simple Service Discovery Protocol
    NOTIFY * HTTP/1.1\r\n
        [Expert Info (Chat/Sequence): NOTIFY * HTTP/1.1\r\n]
            [NOTIFY * HTTP/1.1\r\n]
            [Severity level: Chat]
            [Group: Sequence]
        Request Method: NOTIFY
        Request URI: *
        Request Version: HTTP/1.1
    Host:[FF02::C]:1900\r\n
    NT:urn:schemas-upnp-org:device:MediaServer:1\r\n
    NTS:ssdp:alive\r\n
    Location:http://[fe80::a0b3:8408:64d8:5916]:2869/upnphost/udhisapi.dll?content=uuid:183ca8e5-7e6e-45ab-869b-d293c0bad9f8\r\n
    USN:uuid:183ca8e5-7e6e-45ab-869b-d293c0bad9f8::urn:schemas-upnp-org:device:MediaServer:1\r\n
    Cache-Control:max-age=900\r\n
    Server:Microsoft-Windows-NT/5.1 UPnP/1.0 UPnP-Device-Host/1.0\r\n
    OPT:"http://schemas.upnp.org/upnp/1/0/"; ns=01\r\n
    01-NLS:d12b08689f24572e40cc94d447d6e009\r\n
    \r\n
    [Full request URI: http://[FF02::C]:1900*]

0000  33 33 00 00 00 0c 00 ff 7e 5a 8e a0 86 dd 60 00   33......~Z....`.
0010  00 00 01 f7 11 01 fe 80 00 00 00 00 00 00 a0 b3   ................
0020  84 08 64 d8 59 16 ff 02 00 00 00 00 00 00 00 00   ..d.Y...........
0030  00 00 00 00 00 0c 07 6c 07 6c 01 f7 0f 7f 4e 4f   .......l.l....NO
0040  54 49 46 59 20 2a 20 48 54 54 50 2f 31 2e 31 0d   TIFY * HTTP/1.1.
0050  0a 48 6f 73 74 3a 5b 46 46 30 32 3a 3a 43 5d 3a   .Host:[FF02::C]:
0060  31 39 30 30 0d 0a 4e 54 3a 75 72 6e 3a 73 63 68   1900..NT:urn:sch
0070  65 6d 61 73 2d 75 70 6e 70 2d 6f 72 67 3a 64 65   emas-upnp-org:de
0080  76 69 63 65 3a 4d 65 64 69 61 53 65 72 76 65 72   vice:MediaServer
0090  3a 31 0d 0a 4e 54 53 3a 73 73 64 70 3a 61 6c 69   :1..NTS:ssdp:ali
00a0  76 65 0d 0a 4c 6f 63 61 74 69 6f 6e 3a 68 74 74   ve..Location:htt
00b0  70 3a 2f 2f 5b 66 65 38 30 3a 3a 61 30 62 33 3a   p://[fe80::a0b3:
00c0  38 34 30 38 3a 36 34 64 38 3a 35 39 31 36 5d 3a   8408:64d8:5916]:
00d0  32 38 36 39 2f 75 70 6e 70 68 6f 73 74 2f 75 64   2869/upnphost/ud
00e0  68 69 73 61 70 69 2e 64 6c 6c 3f 63 6f 6e 74 65   hisapi.dll?conte
00f0  6e 74 3d 75 75 69 64 3a 31 38 33 63 61 38 65 35   nt=uuid:183ca8e5
0100  2d 37 65 36 65 2d 34 35 61 62 2d 38 36 39 62 2d   -7e6e-45ab-869b-
0110  64 32 39 33 63 30 62 61 64 39 66 38 0d 0a 55 53   d293c0bad9f8..US
0120  4e 3a 75 75 69 64 3a 31 38 33 63 61 38 65 35 2d   N:uuid:183ca8e5-
0130  37 65 36 65 2d 34 35 61 62 2d 38 36 39 62 2d 64   7e6e-45ab-869b-d
0140  32 39 33 63 30 62 61 64 39 66 38 3a 3a 75 72 6e   293c0bad9f8::urn
0150  3a 73 63 68 65 6d 61 73 2d 75 70 6e 70 2d 6f 72   :schemas-upnp-or
0160  67 3a 64 65 76 69 63 65 3a 4d 65 64 69 61 53 65   g:device:MediaSe
0170  72 76 65 72 3a 31 0d 0a 43 61 63 68 65 2d 43 6f   rver:1..Cache-Co
0180  6e 74 72 6f 6c 3a 6d 61 78 2d 61 67 65 3d 39 30   ntrol:max-age=90
0190  30 0d 0a 53 65 72 76 65 72 3a 4d 69 63 72 6f 73   0..Server:Micros
01a0  6f 66 74 2d 57 69 6e 64 6f 77 73 2d 4e 54 2f 35   oft-Windows-NT/5
01b0  2e 31 20 55 50 6e 50 2f 31 2e 30 20 55 50 6e 50   .1 UPnP/1.0 UPnP
01c0  2d 44 65 76 69 63 65 2d 48 6f 73 74 2f 31 2e 30   -Device-Host/1.0
01d0  0d 0a 4f 50 54 3a 22 68 74 74 70 3a 2f 2f 73 63   ..OPT:"http://sc
01e0  68 65 6d 61 73 2e 75 70 6e 70 2e 6f 72 67 2f 75   hemas.upnp.org/u
01f0  70 6e 70 2f 31 2f 30 2f 22 3b 20 6e 73 3d 30 31   pnp/1/0/"; ns=01
0200  0d 0a 30 31 2d 4e 4c 53 3a 64 31 32 62 30 38 36   ..01-NLS:d12b086
0210  38 39 66 32 34 35 37 32 65 34 30 63 63 39 34 64   89f24572e40cc94d
0220  34 34 37 64 36 65 30 30 39 0d 0a 0d 0a            447d6e009....

Frame 15: 216 bytes on wire (1728 bits), 216 bytes captured (1728 bits) on interface 0
    Interface id: 0 (\Device\NPF_{7E5A8EA0-1EDB-4812-B187-0955452C6E36})
        Interface name: \Device\NPF_{7E5A8EA0-1EDB-4812-B187-0955452C6E36}
    Encapsulation type: Ethernet (1)
    Arrival Time: Oct 11, 2016 10:35:55.614509000 CEST
    [Time shift for this packet: 0.000000000 seconds]
    Epoch Time: 1476174955.614509000 seconds
    [Time delta from previous captured frame: 0.003770000 seconds]
    [Time delta from previous displayed frame: 0.003770000 seconds]
    [Time since reference or first frame: 0.611024000 seconds]
    Frame Number: 15
    Frame Length: 216 bytes (1728 bits)
    Capture Length: 216 bytes (1728 bits)
    [Frame is marked: False]
    [Frame is ignored: False]
    [Protocols in frame: eth:ethertype:ip:udp:ssdp]
Ethernet II, Src: 00:ff:7e:5a:8e:a0 (00:ff:7e:5a:8e:a0), Dst: IPv4mcast_7f:ff:fa (01:00:5e:7f:ff:fa)
    Destination: IPv4mcast_7f:ff:fa (01:00:5e:7f:ff:fa)
        Address: IPv4mcast_7f:ff:fa (01:00:5e:7f:ff:fa)
        .... ..0. .... .... .... .... = LG bit: Globally unique address (factory default)
        .... ...1 .... .... .... .... = IG bit: Group address (multicast/broadcast)
    Source: 00:ff:7e:5a:8e:a0 (00:ff:7e:5a:8e:a0)
        Address: 00:ff:7e:5a:8e:a0 (00:ff:7e:5a:8e:a0)
        .... ..0. .... .... .... .... = LG bit: Globally unique address (factory default)
        .... ...0 .... .... .... .... = IG bit: Individual address (unicast)
    Type: IPv4 (0x0800)
Internet Protocol Version 4, Src: 128.93.101.51, Dst: 239.255.255.250
    0100 .... = Version: 4
    .... 0101 = Header Length: 20 bytes (5)
    Differentiated Services Field: 0x00 (DSCP: CS0, ECN: Not-ECT)
        0000 00.. = Differentiated Services Codepoint: Default (0)
        .... ..00 = Explicit Congestion Notification: Not ECN-Capable Transport (0)
    Total Length: 202
    Identification: 0x0a82 (2690)
    Flags: 0x00
        0... .... = Reserved bit: Not set
        .0.. .... = Don't fragment: Not set
        ..0. .... = More fragments: Not set
    Fragment offset: 0
    Time to live: 1
    Protocol: UDP (17)
    Header checksum: 0xd916 [validation disabled]
    [Header checksum status: Unverified]
    Source: 128.93.101.51
    Destination: 239.255.255.250
User Datagram Protocol, Src Port: 53509, Dst Port: 1900
    Source Port: 53509
    Destination Port: 1900
    Length: 182
    Checksum: 0x4dd2 [unverified]
    [Checksum Status: Unverified]
    [Stream index: 7]
Simple Service Discovery Protocol
    M-SEARCH * HTTP/1.1\r\n
        [Expert Info (Chat/Sequence): M-SEARCH * HTTP/1.1\r\n]
            [M-SEARCH * HTTP/1.1\r\n]
            [Severity level: Chat]
            [Group: Sequence]
        Request Method: M-SEARCH
        Request URI: *
        Request Version: HTTP/1.1
    HOST: 239.255.255.250:1900\r\n
    MAN: "ssdp:discover"\r\n
    MX: 1\r\n
    ST: urn:dial-multiscreen-org:service:dial:1\r\n
    USER-AGENT: Google Chrome/53.0.2785.143 Windows\r\n
    \r\n
    [Full request URI: http://239.255.255.250:1900*]
    [HTTP request 1/1]

0000  01 00 5e 7f ff fa 00 ff 7e 5a 8e a0 08 00 45 00   ..^.....~Z....E.
0010  00 ca 0a 82 00 00 01 11 d9 16 80 5d 65 33 ef ff   ...........]e3..
0020  ff fa d1 05 07 6c 00 b6 4d d2 4d 2d 53 45 41 52   .....l..M.M-SEAR
0030  43 48 20 2a 20 48 54 54 50 2f 31 2e 31 0d 0a 48   CH * HTTP/1.1..H
0040  4f 53 54 3a 20 32 33 39 2e 32 35 35 2e 32 35 35   OST: 239.255.255
0050  2e 32 35 30 3a 31 39 30 30 0d 0a 4d 41 4e 3a 20   .250:1900..MAN: 
0060  22 73 73 64 70 3a 64 69 73 63 6f 76 65 72 22 0d   "ssdp:discover".
0070  0a 4d 58 3a 20 31 0d 0a 53 54 3a 20 75 72 6e 3a   .MX: 1..ST: urn:
0080  64 69 61 6c 2d 6d 75 6c 74 69 73 63 72 65 65 6e   dial-multiscreen
0090  2d 6f 72 67 3a 73 65 72 76 69 63 65 3a 64 69 61   -org:service:dia
00a0  6c 3a 31 0d 0a 55 53 45 52 2d 41 47 45 4e 54 3a   l:1..USER-AGENT:
00b0  20 47 6f 6f 67 6c 65 20 43 68 72 6f 6d 65 2f 35    Google Chrome/5
00c0  33 2e 30 2e 32 37 38 35 2e 31 34 33 20 57 69 6e   3.0.2785.143 Win
00d0  64 6f 77 73 0d 0a 0d 0a                           dows....

Frame 16: 110 bytes on wire (880 bits), 110 bytes captured (880 bits) on interface 0
    Interface id: 0 (\Device\NPF_{7E5A8EA0-1EDB-4812-B187-0955452C6E36})
        Interface name: \Device\NPF_{7E5A8EA0-1EDB-4812-B187-0955452C6E36}
    Encapsulation type: Ethernet (1)
    Arrival Time: Oct 11, 2016 10:35:55.624487000 CEST
    [Time shift for this packet: 0.000000000 seconds]
    Epoch Time: 1476174955.624487000 seconds
    [Time delta from previous captured frame: 0.009978000 seconds]
    [Time delta from previous displayed frame: 0.009978000 seconds]
    [Time since reference or first frame: 0.621002000 seconds]
    Frame Number: 16
    Frame Length: 110 bytes (880 bits)
    Capture Length: 110 bytes (880 bits)
    [Frame is marked: False]
    [Frame is ignored: False]
    [Protocols in frame: eth:ethertype:ip:udp:nbns]
Ethernet II, Src: 00:ff:7e:5a:8e:a0 (00:ff:7e:5a:8e:a0), Dst: Broadcast (ff:ff:ff:ff:ff:ff)
    Destination: Broadcast (ff:ff:ff:ff:ff:ff)
        Address: Broadcast (ff:ff:ff:ff:ff:ff)
        .... ..1. .... .... .... .... = LG bit: Locally administered address (this is NOT the factory default)
        .... ...1 .... .... .... .... = IG bit: Group address (multicast/broadcast)
    Source: 00:ff:7e:5a:8e:a0 (00:ff:7e:5a:8e:a0)
        Address: 00:ff:7e:5a:8e:a0 (00:ff:7e:5a:8e:a0)
        .... ..0. .... .... .... .... = LG bit: Globally unique address (factory default)
        .... ...0 .... .... .... .... = IG bit: Individual address (unicast)
    Type: IPv4 (0x0800)
Internet Protocol Version 4, Src: 128.93.101.51, Dst: 128.93.101.63
    0100 .... = Version: 4
    .... 0101 = Header Length: 20 bytes (5)
    Differentiated Services Field: 0x00 (DSCP: CS0, ECN: Not-ECT)
        0000 00.. = Differentiated Services Codepoint: Default (0)
        .... ..00 = Explicit Congestion Notification: Not ECN-Capable Transport (0)
    Total Length: 96
    Identification: 0x0a83 (2691)
    Flags: 0x00
        0... .... = Reserved bit: Not set
        .0.. .... = Don't fragment: Not set
        ..0. .... = More fragments: Not set
    Fragment offset: 0
    Time to live: 128
    Protocol: UDP (17)
    Header checksum: 0x64dd [validation disabled]
    [Header checksum status: Unverified]
    Source: 128.93.101.51
    Destination: 128.93.101.63
User Datagram Protocol, Src Port: 137, Dst Port: 137
    Source Port: 137
    Destination Port: 137
    Length: 76
    Checksum: 0xe7a3 [unverified]
    [Checksum Status: Unverified]
    [Stream index: 8]
NetBIOS Name Service
    Transaction ID: 0x864b
    Flags: 0x2910, Opcode: Registration, Recursion desired, Broadcast
        0... .... .... .... = Response: Message is a query
        .010 1... .... .... = Opcode: Registration (5)
        .... ..0. .... .... = Truncated: Message is not truncated
        .... ...1 .... .... = Recursion desired: Do query recursively
        .... .... ...1 .... = Broadcast: Broadcast packet
    Questions: 1
    Answer RRs: 0
    Authority RRs: 0
    Additional RRs: 1
    Queries
        WORKGROUP<1e>: type NB, class IN
            Name: WORKGROUP<1e> (Browser Election Service)
            Type: NB (32)
            Class: IN (1)
    Additional records
        WORKGROUP<1e>: type NB, class IN
            Name: WORKGROUP<1e> (Browser Election Service)
            Type: NB (32)
            Class: IN (1)
            Time to live: 3 days, 11 hours, 20 minutes
            Data length: 6
            Name flags: 0xe000, Name type, ONT: Unknown (H-node, group)
                1... .... .... .... = Name type: Group name
                .11. .... .... .... = ONT: Unknown (3)
            Addr: 128.93.101.51

0000  ff ff ff ff ff ff 00 ff 7e 5a 8e a0 08 00 45 00   ........~Z....E.
0010  00 60 0a 83 00 00 80 11 64 dd 80 5d 65 33 80 5d   .`......d..]e3.]
0020  65 3f 00 89 00 89 00 4c e7 a3 86 4b 29 10 00 01   e?.....L...K)...
0030  00 00 00 00 00 01 20 46 48 45 50 46 43 45 4c 45   ...... FHEPFCELE
0040  48 46 43 45 50 46 46 46 41 43 41 43 41 43 41 43   HFCEPFFFACACACAC
0050  41 43 41 43 41 42 4f 00 00 20 00 01 c0 0c 00 20   ACACABO.. ..... 
0060  00 01 00 04 93 e0 00 06 e0 00 80 5d 65 33         ...........]e3

Frame 17: 92 bytes on wire (736 bits), 92 bytes captured (736 bits) on interface 0
    Interface id: 0 (\Device\NPF_{7E5A8EA0-1EDB-4812-B187-0955452C6E36})
        Interface name: \Device\NPF_{7E5A8EA0-1EDB-4812-B187-0955452C6E36}
    Encapsulation type: Ethernet (1)
    Arrival Time: Oct 11, 2016 10:35:55.680637000 CEST
    [Time shift for this packet: 0.000000000 seconds]
    Epoch Time: 1476174955.680637000 seconds
    [Time delta from previous captured frame: 0.056150000 seconds]
    [Time delta from previous displayed frame: 0.056150000 seconds]
    [Time since reference or first frame: 0.677152000 seconds]
    Frame Number: 17
    Frame Length: 92 bytes (736 bits)
    Capture Length: 92 bytes (736 bits)
    [Frame is marked: False]
    [Frame is ignored: False]
    [Protocols in frame: eth:ethertype:ip:udp:nbns]
Ethernet II, Src: 00:ff:7e:5a:8e:a0 (00:ff:7e:5a:8e:a0), Dst: Broadcast (ff:ff:ff:ff:ff:ff)
    Destination: Broadcast (ff:ff:ff:ff:ff:ff)
        Address: Broadcast (ff:ff:ff:ff:ff:ff)
        .... ..1. .... .... .... .... = LG bit: Locally administered address (this is NOT the factory default)
        .... ...1 .... .... .... .... = IG bit: Group address (multicast/broadcast)
    Source: 00:ff:7e:5a:8e:a0 (00:ff:7e:5a:8e:a0)
        Address: 00:ff:7e:5a:8e:a0 (00:ff:7e:5a:8e:a0)
        .... ..0. .... .... .... .... = LG bit: Globally unique address (factory default)
        .... ...0 .... .... .... .... = IG bit: Individual address (unicast)
    Type: IPv4 (0x0800)
Internet Protocol Version 4, Src: 128.93.101.51, Dst: 128.93.101.63
    0100 .... = Version: 4
    .... 0101 = Header Length: 20 bytes (5)
    Differentiated Services Field: 0x00 (DSCP: CS0, ECN: Not-ECT)
        0000 00.. = Differentiated Services Codepoint: Default (0)
        .... ..00 = Explicit Congestion Notification: Not ECN-Capable Transport (0)
    Total Length: 78
    Identification: 0x0a84 (2692)
    Flags: 0x00
        0... .... = Reserved bit: Not set
        .0.. .... = Don't fragment: Not set
        ..0. .... = More fragments: Not set
    Fragment offset: 0
    Time to live: 128
    Protocol: UDP (17)
    Header checksum: 0x64ee [validation disabled]
    [Header checksum status: Unverified]
    Source: 128.93.101.51
    Destination: 128.93.101.63
User Datagram Protocol, Src Port: 137, Dst Port: 137
    Source Port: 137
    Destination Port: 137
    Length: 58
    Checksum: 0x657a [unverified]
    [Checksum Status: Unverified]
    [Stream index: 8]
NetBIOS Name Service
    Transaction ID: 0x864d
    Flags: 0x0110, Opcode: Name query, Recursion desired, Broadcast
        0... .... .... .... = Response: Message is a query
        .000 0... .... .... = Opcode: Name query (0)
        .... ..0. .... .... = Truncated: Message is not truncated
        .... ...1 .... .... = Recursion desired: Do query recursively
        .... .... ...1 .... = Broadcast: Broadcast packet
    Questions: 1
    Answer RRs: 0
    Authority RRs: 0
    Additional RRs: 0
    Queries
        ISATAP<00>: type NB, class IN
            Name: ISATAP<00> (Workstation/Redirector)
            Type: NB (32)
            Class: IN (1)

0000  ff ff ff ff ff ff 00 ff 7e 5a 8e a0 08 00 45 00   ........~Z....E.
0010  00 4e 0a 84 00 00 80 11 64 ee 80 5d 65 33 80 5d   .N......d..]e3.]
0020  65 3f 00 89 00 89 00 3a 65 7a 86 4d 01 10 00 01   e?.....:ez.M....
0030  00 00 00 00 00 00 20 45 4a 46 44 45 42 46 45 45   ...... EJFDEBFEE
0040  42 46 41 43 41 43 41 43 41 43 41 43 41 43 41 43   BFACACACACACACAC
0050  41 43 41 43 41 41 41 00 00 20 00 01               ACACAAA.. ..

Frame 18: 70 bytes on wire (560 bits), 70 bytes captured (560 bits) on interface 0
    Interface id: 0 (\Device\NPF_{7E5A8EA0-1EDB-4812-B187-0955452C6E36})
        Interface name: \Device\NPF_{7E5A8EA0-1EDB-4812-B187-0955452C6E36}
    Encapsulation type: Ethernet (1)
    Arrival Time: Oct 11, 2016 10:35:56.048571000 CEST
    [Time shift for this packet: 0.000000000 seconds]
    Epoch Time: 1476174956.048571000 seconds
    [Time delta from previous captured frame: 0.367934000 seconds]
    [Time delta from previous displayed frame: 0.367934000 seconds]
    [Time since reference or first frame: 1.045086000 seconds]
    Frame Number: 18
    Frame Length: 70 bytes (560 bits)
    Capture Length: 70 bytes (560 bits)
    [Frame is marked: False]
    [Frame is ignored: False]
    [Protocols in frame: eth:ethertype:ipv6:icmpv6]
Ethernet II, Src: 00:ff:7e:5a:8e:a0 (00:ff:7e:5a:8e:a0), Dst: IPv6mcast_02 (33:33:00:00:00:02)
    Destination: IPv6mcast_02 (33:33:00:00:00:02)
        Address: IPv6mcast_02 (33:33:00:00:00:02)
        .... ..1. .... .... .... .... = LG bit: Locally administered address (this is NOT the factory default)
        .... ...1 .... .... .... .... = IG bit: Group address (multicast/broadcast)
    Source: 00:ff:7e:5a:8e:a0 (00:ff:7e:5a:8e:a0)
        Address: 00:ff:7e:5a:8e:a0 (00:ff:7e:5a:8e:a0)
        .... ..0. .... .... .... .... = LG bit: Globally unique address (factory default)
        .... ...0 .... .... .... .... = IG bit: Individual address (unicast)
    Type: IPv6 (0x86dd)
Internet Protocol Version 6, Src: fe80::a0b3:8408:64d8:5916, Dst: ff02::2
    0110 .... = Version: 6
    .... 0000 0000 .... .... .... .... .... = Traffic Class: 0x00 (DSCP: CS0, ECN: Not-ECT)
        .... 0000 00.. .... .... .... .... .... = Differentiated Services Codepoint: Default (0)
        .... .... ..00 .... .... .... .... .... = Explicit Congestion Notification: Not ECN-Capable Transport (0)
    .... .... .... 0000 0000 0000 0000 0000 = Flow Label: 0x00000
    Payload Length: 16
    Next Header: ICMPv6 (58)
    Hop Limit: 255
    Source: fe80::a0b3:8408:64d8:5916
    Destination: ff02::2
Internet Control Message Protocol v6
    Type: Router Solicitation (133)
    Code: 0
    Checksum: 0x8b89 [correct]
    [Checksum Status: Good]
    Reserved: 00000000
    ICMPv6 Option (Source link-layer address : 00:ff:7e:5a:8e:a0)
        Type: Source link-layer address (1)
        Length: 1 (8 bytes)
        Link-layer address: 00:ff:7e:5a:8e:a0 (00:ff:7e:5a:8e:a0)

0000  33 33 00 00 00 02 00 ff 7e 5a 8e a0 86 dd 60 00   33......~Z....`.
0010  00 00 00 10 3a ff fe 80 00 00 00 00 00 00 a0 b3   ....:...........
0020  84 08 64 d8 59 16 ff 02 00 00 00 00 00 00 00 00   ..d.Y...........
0030  00 00 00 00 00 02 85 00 8b 89 00 00 00 00 01 01   ................
0040  00 ff 7e 5a 8e a0                                 ..~Z..

Frame 19: 90 bytes on wire (720 bits), 90 bytes captured (720 bits) on interface 0
    Interface id: 0 (\Device\NPF_{7E5A8EA0-1EDB-4812-B187-0955452C6E36})
        Interface name: \Device\NPF_{7E5A8EA0-1EDB-4812-B187-0955452C6E36}
    Encapsulation type: Ethernet (1)
    Arrival Time: Oct 11, 2016 10:35:56.048589000 CEST
    [Time shift for this packet: 0.000000000 seconds]
    Epoch Time: 1476174956.048589000 seconds
    [Time delta from previous captured frame: 0.000018000 seconds]
    [Time delta from previous displayed frame: 0.000018000 seconds]
    [Time since reference or first frame: 1.045104000 seconds]
    Frame Number: 19
    Frame Length: 90 bytes (720 bits)
    Capture Length: 90 bytes (720 bits)
    [Frame is marked: False]
    [Frame is ignored: False]
    [Protocols in frame: eth:ethertype:ipv6:ipv6.hopopts:icmpv6]
Ethernet II, Src: 00:ff:7e:5a:8e:a0 (00:ff:7e:5a:8e:a0), Dst: IPv6mcast_16 (33:33:00:00:00:16)
    Destination: IPv6mcast_16 (33:33:00:00:00:16)
        Address: IPv6mcast_16 (33:33:00:00:00:16)
        .... ..1. .... .... .... .... = LG bit: Locally administered address (this is NOT the factory default)
        .... ...1 .... .... .... .... = IG bit: Group address (multicast/broadcast)
    Source: 00:ff:7e:5a:8e:a0 (00:ff:7e:5a:8e:a0)
        Address: 00:ff:7e:5a:8e:a0 (00:ff:7e:5a:8e:a0)
        .... ..0. .... .... .... .... = LG bit: Globally unique address (factory default)
        .... ...0 .... .... .... .... = IG bit: Individual address (unicast)
    Type: IPv6 (0x86dd)
Internet Protocol Version 6, Src: fe80::a0b3:8408:64d8:5916, Dst: ff02::16
    0110 .... = Version: 6
    .... 0000 0000 .... .... .... .... .... = Traffic Class: 0x00 (DSCP: CS0, ECN: Not-ECT)
        .... 0000 00.. .... .... .... .... .... = Differentiated Services Codepoint: Default (0)
        .... .... ..00 .... .... .... .... .... = Explicit Congestion Notification: Not ECN-Capable Transport (0)
    .... .... .... 0000 0000 0000 0000 0000 = Flow Label: 0x00000
    Payload Length: 36
    Next Header: IPv6 Hop-by-Hop Option (0)
    Hop Limit: 1
    Source: fe80::a0b3:8408:64d8:5916
    Destination: ff02::16
    IPv6 Hop-by-Hop Option
        Next Header: ICMPv6 (58)
        Length: 0
        [Length: 8 bytes]
        Router Alert
            Type: Router Alert (0x05)
                00.. .... = Action: Skip and continue (0)
                ..0. .... = May Change: No
                ...0 0101 = Low-Order Bits: 0x05
            Length: 2
            Router Alert: MLD (0)
        PadN
            Type: PadN (0x01)
                00.. .... = Action: Skip and continue (0)
                ..0. .... = May Change: No
                ...0 0001 = Low-Order Bits: 0x01
            Length: 0
            PadN: <none>
Internet Control Message Protocol v6
    Type: Multicast Listener Report Message v2 (143)
    Code: 0
    Checksum: 0x8c65 [correct]
    [Checksum Status: Good]
    Reserved: 0000
    Number of Multicast Address Records: 1
    Multicast Address Record Changed to exclude: ff02::fb
        Record Type: Changed to exclude (4)
        Aux Data Len: 0
        Number of Sources: 0
        Multicast Address: ff02::fb

0000  33 33 00 00 00 16 00 ff 7e 5a 8e a0 86 dd 60 00   33......~Z....`.
0010  00 00 00 24 00 01 fe 80 00 00 00 00 00 00 a0 b3   ...$............
0020  84 08 64 d8 59 16 ff 02 00 00 00 00 00 00 00 00   ..d.Y...........
0030  00 00 00 00 00 16 3a 00 05 02 00 00 01 00 8f 00   ......:.........
0040  8c 65 00 00 00 01 04 00 00 00 ff 02 00 00 00 00   .e..............
0050  00 00 00 00 00 00 00 00 00 fb                     ..........

Frame 20: 153 bytes on wire (1224 bits), 153 bytes captured (1224 bits) on interface 0
    Interface id: 0 (\Device\NPF_{7E5A8EA0-1EDB-4812-B187-0955452C6E36})
        Interface name: \Device\NPF_{7E5A8EA0-1EDB-4812-B187-0955452C6E36}
    Encapsulation type: Ethernet (1)
    Arrival Time: Oct 11, 2016 10:35:56.130544000 CEST
    [Time shift for this packet: 0.000000000 seconds]
    Epoch Time: 1476174956.130544000 seconds
    [Time delta from previous captured frame: 0.081955000 seconds]
    [Time delta from previous displayed frame: 0.081955000 seconds]
    [Time since reference or first frame: 1.127059000 seconds]
    Frame Number: 20
    Frame Length: 153 bytes (1224 bits)
    Capture Length: 153 bytes (1224 bits)
    [Frame is marked: False]
    [Frame is ignored: False]
    [Protocols in frame: eth:ethertype:ipv6:udp:ssdp]
Ethernet II, Src: 00:ff:7e:5a:8e:a0 (00:ff:7e:5a:8e:a0), Dst: IPv6mcast_0c (33:33:00:00:00:0c)
    Destination: IPv6mcast_0c (33:33:00:00:00:0c)
        Address: IPv6mcast_0c (33:33:00:00:00:0c)
        .... ..1. .... .... .... .... = LG bit: Locally administered address (this is NOT the factory default)
        .... ...1 .... .... .... .... = IG bit: Group address (multicast/broadcast)
    Source: 00:ff:7e:5a:8e:a0 (00:ff:7e:5a:8e:a0)
        Address: 00:ff:7e:5a:8e:a0 (00:ff:7e:5a:8e:a0)
        .... ..0. .... .... .... .... = LG bit: Globally unique address (factory default)
        .... ...0 .... .... .... .... = IG bit: Individual address (unicast)
    Type: IPv6 (0x86dd)
Internet Protocol Version 6, Src: fe80::a0b3:8408:64d8:5916, Dst: ff02::c
    0110 .... = Version: 6
    .... 0000 0000 .... .... .... .... .... = Traffic Class: 0x00 (DSCP: CS0, ECN: Not-ECT)
        .... 0000 00.. .... .... .... .... .... = Differentiated Services Codepoint: Default (0)
        .... .... ..00 .... .... .... .... .... = Explicit Congestion Notification: Not ECN-Capable Transport (0)
    .... .... .... 0000 0000 0000 0000 0000 = Flow Label: 0x00000
    Payload Length: 99
    Next Header: UDP (17)
    Hop Limit: 1
    Source: fe80::a0b3:8408:64d8:5916
    Destination: ff02::c
User Datagram Protocol, Src Port: 57301, Dst Port: 1900
    Source Port: 57301
    Destination Port: 1900
    Length: 99
    Checksum: 0x2e2f [unverified]
    [Checksum Status: Unverified]
    [Stream index: 3]
Simple Service Discovery Protocol
    M-SEARCH * HTTP/1.1\r\n
        [Expert Info (Chat/Sequence): M-SEARCH * HTTP/1.1\r\n]
            [M-SEARCH * HTTP/1.1\r\n]
            [Severity level: Chat]
            [Group: Sequence]
        Request Method: M-SEARCH
        Request URI: *
        Request Version: HTTP/1.1
    Host:[FF02::C]:1900\r\n
    ST:upnp:rootdevice\r\n
    Man:"ssdp:discover"\r\n
    MX:3\r\n
    \r\n
    [Full request URI: http://[FF02::C]:1900*]
    [HTTP request 2/2]
    [Prev request in frame: 4]

0000  33 33 00 00 00 0c 00 ff 7e 5a 8e a0 86 dd 60 00   33......~Z....`.
0010  00 00 00 63 11 01 fe 80 00 00 00 00 00 00 a0 b3   ...c............
0020  84 08 64 d8 59 16 ff 02 00 00 00 00 00 00 00 00   ..d.Y...........
0030  00 00 00 00 00 0c df d5 07 6c 00 63 2e 2f 4d 2d   .........l.c./M-
0040  53 45 41 52 43 48 20 2a 20 48 54 54 50 2f 31 2e   SEARCH * HTTP/1.
0050  31 0d 0a 48 6f 73 74 3a 5b 46 46 30 32 3a 3a 43   1..Host:[FF02::C
0060  5d 3a 31 39 30 30 0d 0a 53 54 3a 75 70 6e 70 3a   ]:1900..ST:upnp:
0070  72 6f 6f 74 64 65 76 69 63 65 0d 0a 4d 61 6e 3a   rootdevice..Man:
0080  22 73 73 64 70 3a 64 69 73 63 6f 76 65 72 22 0d   "ssdp:discover".
0090  0a 4d 58 3a 33 0d 0a 0d 0a                        .MX:3....

Frame 21: 139 bytes on wire (1112 bits), 139 bytes captured (1112 bits) on interface 0
    Interface id: 0 (\Device\NPF_{7E5A8EA0-1EDB-4812-B187-0955452C6E36})
        Interface name: \Device\NPF_{7E5A8EA0-1EDB-4812-B187-0955452C6E36}
    Encapsulation type: Ethernet (1)
    Arrival Time: Oct 11, 2016 10:35:56.130962000 CEST
    [Time shift for this packet: 0.000000000 seconds]
    Epoch Time: 1476174956.130962000 seconds
    [Time delta from previous captured frame: 0.000418000 seconds]
    [Time delta from previous displayed frame: 0.000418000 seconds]
    [Time since reference or first frame: 1.127477000 seconds]
    Frame Number: 21
    Frame Length: 139 bytes (1112 bits)
    Capture Length: 139 bytes (1112 bits)
    [Frame is marked: False]
    [Frame is ignored: False]
    [Protocols in frame: eth:ethertype:ip:udp:ssdp]
Ethernet II, Src: 00:ff:7e:5a:8e:a0 (00:ff:7e:5a:8e:a0), Dst: IPv4mcast_7f:ff:fa (01:00:5e:7f:ff:fa)
    Destination: IPv4mcast_7f:ff:fa (01:00:5e:7f:ff:fa)
        Address: IPv4mcast_7f:ff:fa (01:00:5e:7f:ff:fa)
        .... ..0. .... .... .... .... = LG bit: Globally unique address (factory default)
        .... ...1 .... .... .... .... = IG bit: Group address (multicast/broadcast)
    Source: 00:ff:7e:5a:8e:a0 (00:ff:7e:5a:8e:a0)
        Address: 00:ff:7e:5a:8e:a0 (00:ff:7e:5a:8e:a0)
        .... ..0. .... .... .... .... = LG bit: Globally unique address (factory default)
        .... ...0 .... .... .... .... = IG bit: Individual address (unicast)
    Type: IPv4 (0x0800)
Internet Protocol Version 4, Src: 128.93.101.51, Dst: 239.255.255.250
    0100 .... = Version: 4
    .... 0101 = Header Length: 20 bytes (5)
    Differentiated Services Field: 0x00 (DSCP: CS0, ECN: Not-ECT)
        0000 00.. = Differentiated Services Codepoint: Default (0)
        .... ..00 = Explicit Congestion Notification: Not ECN-Capable Transport (0)
    Total Length: 125
    Identification: 0x0a85 (2693)
    Flags: 0x00
        0... .... = Reserved bit: Not set
        .0.. .... = Don't fragment: Not set
        ..0. .... = More fragments: Not set
    Fragment offset: 0
    Time to live: 1
    Protocol: UDP (17)
    Header checksum: 0xd960 [validation disabled]
    [Header checksum status: Unverified]
    Source: 128.93.101.51
    Destination: 239.255.255.250
User Datagram Protocol, Src Port: 57307, Dst Port: 1900
    Source Port: 57307
    Destination Port: 1900
    Length: 105
    Checksum: 0x0763 [unverified]
    [Checksum Status: Unverified]
    [Stream index: 4]
Simple Service Discovery Protocol
    M-SEARCH * HTTP/1.1\r\n
        [Expert Info (Chat/Sequence): M-SEARCH * HTTP/1.1\r\n]
            [M-SEARCH * HTTP/1.1\r\n]
            [Severity level: Chat]
            [Group: Sequence]
        Request Method: M-SEARCH
        Request URI: *
        Request Version: HTTP/1.1
    Host:239.255.255.250:1900\r\n
    ST:upnp:rootdevice\r\n
    Man:"ssdp:discover"\r\n
    MX:3\r\n
    \r\n
    [Full request URI: http://239.255.255.250:1900*]
    [HTTP request 2/2]
    [Prev request in frame: 5]

0000  01 00 5e 7f ff fa 00 ff 7e 5a 8e a0 08 00 45 00   ..^.....~Z....E.
0010  00 7d 0a 85 00 00 01 11 d9 60 80 5d 65 33 ef ff   .}.......`.]e3..
0020  ff fa df db 07 6c 00 69 07 63 4d 2d 53 45 41 52   .....l.i.cM-SEAR
0030  43 48 20 2a 20 48 54 54 50 2f 31 2e 31 0d 0a 48   CH * HTTP/1.1..H
0040  6f 73 74 3a 32 33 39 2e 32 35 35 2e 32 35 35 2e   ost:239.255.255.
0050  32 35 30 3a 31 39 30 30 0d 0a 53 54 3a 75 70 6e   250:1900..ST:upn
0060  70 3a 72 6f 6f 74 64 65 76 69 63 65 0d 0a 4d 61   p:rootdevice..Ma
0070  6e 3a 22 73 73 64 70 3a 64 69 73 63 6f 76 65 72   n:"ssdp:discover
0080  22 0d 0a 4d 58 3a 33 0d 0a 0d 0a                  "..MX:3....

Frame 22: 181 bytes on wire (1448 bits), 181 bytes captured (1448 bits) on interface 0
    Interface id: 0 (\Device\NPF_{7E5A8EA0-1EDB-4812-B187-0955452C6E36})
        Interface name: \Device\NPF_{7E5A8EA0-1EDB-4812-B187-0955452C6E36}
    Encapsulation type: Ethernet (1)
    Arrival Time: Oct 11, 2016 10:35:56.155501000 CEST
    [Time shift for this packet: 0.000000000 seconds]
    Epoch Time: 1476174956.155501000 seconds
    [Time delta from previous captured frame: 0.024539000 seconds]
    [Time delta from previous displayed frame: 0.024539000 seconds]
    [Time since reference or first frame: 1.152016000 seconds]
    Frame Number: 22
    Frame Length: 181 bytes (1448 bits)
    Capture Length: 181 bytes (1448 bits)
    [Frame is marked: False]
    [Frame is ignored: False]
    [Protocols in frame: eth:ethertype:ipv6:udp:ssdp]
Ethernet II, Src: 00:ff:7e:5a:8e:a0 (00:ff:7e:5a:8e:a0), Dst: IPv6mcast_0c (33:33:00:00:00:0c)
    Destination: IPv6mcast_0c (33:33:00:00:00:0c)
        Address: IPv6mcast_0c (33:33:00:00:00:0c)
        .... ..1. .... .... .... .... = LG bit: Locally administered address (this is NOT the factory default)
        .... ...1 .... .... .... .... = IG bit: Group address (multicast/broadcast)
    Source: 00:ff:7e:5a:8e:a0 (00:ff:7e:5a:8e:a0)
        Address: 00:ff:7e:5a:8e:a0 (00:ff:7e:5a:8e:a0)
        .... ..0. .... .... .... .... = LG bit: Globally unique address (factory default)
        .... ...0 .... .... .... .... = IG bit: Individual address (unicast)
    Type: IPv6 (0x86dd)
Internet Protocol Version 6, Src: fe80::a0b3:8408:64d8:5916, Dst: ff02::c
    0110 .... = Version: 6
    .... 0000 0000 .... .... .... .... .... = Traffic Class: 0x00 (DSCP: CS0, ECN: Not-ECT)
        .... 0000 00.. .... .... .... .... .... = Differentiated Services Codepoint: Default (0)
        .... .... ..00 .... .... .... .... .... = Explicit Congestion Notification: Not ECN-Capable Transport (0)
    .... .... .... 0000 0000 0000 0000 0000 = Flow Label: 0x00000
    Payload Length: 127
    Next Header: UDP (17)
    Hop Limit: 1
    Source: fe80::a0b3:8408:64d8:5916
    Destination: ff02::c
User Datagram Protocol, Src Port: 57301, Dst Port: 1900
    Source Port: 57301
    Destination Port: 1900
    Length: 127
    Checksum: 0x65a8 [unverified]
    [Checksum Status: Unverified]
    [Stream index: 3]
Simple Service Discovery Protocol
    M-SEARCH * HTTP/1.1\r\n
        [Expert Info (Chat/Sequence): M-SEARCH * HTTP/1.1\r\n]
            [M-SEARCH * HTTP/1.1\r\n]
            [Severity level: Chat]
            [Group: Sequence]
        Request Method: M-SEARCH
        Request URI: *
        Request Version: HTTP/1.1
    Host:[FF02::C]:1900\r\n
    ST:urn:schemas-upnp-org:device:MediaRenderer:1\r\n
    Man:"ssdp:discover"\r\n
    MX:3\r\n
    \r\n
    [Full request URI: http://[FF02::C]:1900*]
    [HTTP request 3/3]
    [Prev request in frame: 20]

0000  33 33 00 00 00 0c 00 ff 7e 5a 8e a0 86 dd 60 00   33......~Z....`.
0010  00 00 00 7f 11 01 fe 80 00 00 00 00 00 00 a0 b3   ................
0020  84 08 64 d8 59 16 ff 02 00 00 00 00 00 00 00 00   ..d.Y...........
0030  00 00 00 00 00 0c df d5 07 6c 00 7f 65 a8 4d 2d   .........l..e.M-
0040  53 45 41 52 43 48 20 2a 20 48 54 54 50 2f 31 2e   SEARCH * HTTP/1.
0050  31 0d 0a 48 6f 73 74 3a 5b 46 46 30 32 3a 3a 43   1..Host:[FF02::C
0060  5d 3a 31 39 30 30 0d 0a 53 54 3a 75 72 6e 3a 73   ]:1900..ST:urn:s
0070  63 68 65 6d 61 73 2d 75 70 6e 70 2d 6f 72 67 3a   chemas-upnp-org:
0080  64 65 76 69 63 65 3a 4d 65 64 69 61 52 65 6e 64   device:MediaRend
0090  65 72 65 72 3a 31 0d 0a 4d 61 6e 3a 22 73 73 64   erer:1..Man:"ssd
00a0  70 3a 64 69 73 63 6f 76 65 72 22 0d 0a 4d 58 3a   p:discover"..MX:
00b0  33 0d 0a 0d 0a                                    3....

Frame 23: 167 bytes on wire (1336 bits), 167 bytes captured (1336 bits) on interface 0
    Interface id: 0 (\Device\NPF_{7E5A8EA0-1EDB-4812-B187-0955452C6E36})
        Interface name: \Device\NPF_{7E5A8EA0-1EDB-4812-B187-0955452C6E36}
    Encapsulation type: Ethernet (1)
    Arrival Time: Oct 11, 2016 10:35:56.155781000 CEST
    [Time shift for this packet: 0.000000000 seconds]
    Epoch Time: 1476174956.155781000 seconds
    [Time delta from previous captured frame: 0.000280000 seconds]
    [Time delta from previous displayed frame: 0.000280000 seconds]
    [Time since reference or first frame: 1.152296000 seconds]
    Frame Number: 23
    Frame Length: 167 bytes (1336 bits)
    Capture Length: 167 bytes (1336 bits)
    [Frame is marked: False]
    [Frame is ignored: False]
    [Protocols in frame: eth:ethertype:ip:udp:ssdp]
Ethernet II, Src: 00:ff:7e:5a:8e:a0 (00:ff:7e:5a:8e:a0), Dst: IPv4mcast_7f:ff:fa (01:00:5e:7f:ff:fa)
    Destination: IPv4mcast_7f:ff:fa (01:00:5e:7f:ff:fa)
        Address: IPv4mcast_7f:ff:fa (01:00:5e:7f:ff:fa)
        .... ..0. .... .... .... .... = LG bit: Globally unique address (factory default)
        .... ...1 .... .... .... .... = IG bit: Group address (multicast/broadcast)
    Source: 00:ff:7e:5a:8e:a0 (00:ff:7e:5a:8e:a0)
        Address: 00:ff:7e:5a:8e:a0 (00:ff:7e:5a:8e:a0)
        .... ..0. .... .... .... .... = LG bit: Globally unique address (factory default)
        .... ...0 .... .... .... .... = IG bit: Individual address (unicast)
    Type: IPv4 (0x0800)
Internet Protocol Version 4, Src: 128.93.101.51, Dst: 239.255.255.250
    0100 .... = Version: 4
    .... 0101 = Header Length: 20 bytes (5)
    Differentiated Services Field: 0x00 (DSCP: CS0, ECN: Not-ECT)
        0000 00.. = Differentiated Services Codepoint: Default (0)
