Frame 1: 39 bytes on wire (312 bits), 39 bytes captured (312 bits)
    Encapsulation type: IEEE 802.15.4 Wireless PAN (104)
    Arrival Time: Jun 29, 2017 19:08:50.061120000 CEST
    [Time shift for this packet: 0.000000000 seconds]
    Epoch Time: 1498756130.061120000 seconds
    [Time delta from previous captured frame: 0.000000000 seconds]
    [Time delta from previous displayed frame: 0.000000000 seconds]
    [Time since reference or first frame: 0.000000000 seconds]
    Frame Number: 1
    Frame Length: 39 bytes (312 bits)
    Capture Length: 39 bytes (312 bits)
    [Frame is marked: False]
    [Frame is ignored: False]
    [Protocols in frame: wpan]
IEEE 802.15.4 Enhanced Beacon, Dst: Broadcast, Src: EquipTra_01:00:01:00:01
    Frame Control Field: 0xeb00, Frame Type: Beacon, Sequence Number Suppression, Information Elements Present, Destination Addressing Mode: Short/16-bit, Frame Version: IEEE Std 802.15.4-2015, Source Addressing Mode: Long/64-bit
        .... .... .... .000 = Frame Type: Beacon (0x0)
        .... .... .... 0... = Security Enabled: False
        .... .... ...0 .... = Frame Pending: False
        .... .... ..0. .... = Acknowledge Request: False
        .... .... .0.. .... = PAN ID Compression: False
        .... ...1 .... .... = Sequence Number Suppression: True
        .... ..1. .... .... = Information Elements Present: True
        .... 10.. .... .... = Destination Addressing Mode: Short/16-bit (0x2)
        ..10 .... .... .... = Frame Version: IEEE Std 802.15.4-2015 (2)
        11.. .... .... .... = Source Addressing Mode: Long/64-bit (0x3)
    Destination PAN: 0xabcd
    Destination: 0xffff
    Source PAN: 0xabcd
    Extended Source: EquipTra_01:00:01:00:01 (00:01:00:01:00:01:00:01)
    Header IEs, Header Termination 1 IE
        Header Termination 1 IE (Payload IEs follow)
            IE Header: 0x3f00, Type: Header, Id: Header Termination 1 IE, Length: 0
                0... .... .... .... = Type: Header (0)
                .011 1111 0... .... = Id: Header Termination 1 IE (0x7e)
                .... .... .000 0000 = Length: 0
    Payload IEs, MLME IE
        MLME IE
            Payload IE TLV: 0x8811, Type: Payload, Id: MLME IE
                1... .... .... .... = Type: Payload (1)
                .000 1... .... .... = Id: MLME IE (0x1)
                .... .000 0001 0001 = Length: 17
            Time Synchronization IE
                Payload Sub IE (short): 0x1a06, Type: Short, Sub Id (Short): TSCH Synchronization IE
                    0... .... .... .... = Type: Short (0)
                    .001 1010 .... .... = Sub Id (Short): TSCH Synchronization IE (0x1a)
                    .... .... 0000 0110 = Length: 6
                Absolute Slot Number: 14
                Join Metric: 0
            TSCH Timeslot IE
                Payload IE TLV: 0x1c01, Type: Short, Sub Id (Short): TSCH Timeslot IE
                    0... .... .... .... = Type: Short (0)
                    .001 1100 .... .... = Sub Id (Short): TSCH Timeslot IE (0x1c)
                    .... .... 0000 0001 = Length: 1
                Data: 00
            Channel Hopping IE
                Payload Sub IE (long): 0xc801, Type: Long, Sub Id (Long): Channel Hopping IE
                    1... .... .... .... = Type: Long (1)
                    .100 1... .... .... = Sub Id (Long): Channel Hopping IE (0x9)
                    .... .000 0000 0001 = Length: 1
                Hopping Sequence ID: 0x00
            TSCH Slotframe and Link IE
                Payload Sub IE (short): 0x1b01, Type: Short, Sub Id (Short): TSCH Slotframe and Link IE
                    0... .... .... .... = Type: Short (0)
                    .001 1011 .... .... = Sub Id (Short): TSCH Slotframe and Link IE (0x1b)
                    .... .... 0000 0001 = Length: 1
                Number of Slotframes: 0
    FCS: 0xafc8 (Correct)

0000  00 eb cd ab ff ff cd ab 01 00 01 00 01 00 01 00   ................
0010  00 3f 11 88 06 1a 0e 00 00 00 00 00 01 1c 00 01   .?..............
0020  c8 00 01 1b 00 c8 af                              .......

Frame 2: 50 bytes on wire (400 bits), 50 bytes captured (400 bits)
    Encapsulation type: IEEE 802.15.4 Wireless PAN (104)
    Arrival Time: Jun 29, 2017 19:08:50.831120000 CEST
    [Time shift for this packet: 0.000000000 seconds]
    Epoch Time: 1498756130.831120000 seconds
    [Time delta from previous captured frame: 0.770000000 seconds]
    [Time delta from previous displayed frame: 0.770000000 seconds]
    [Time since reference or first frame: 0.770000000 seconds]
    Frame Number: 2
    Frame Length: 50 bytes (400 bits)
    Capture Length: 50 bytes (400 bits)
    [Frame is marked: False]
    [Frame is ignored: False]
    [Protocols in frame: wpan]
IEEE 802.15.4 Data, Dst: EquipTra_01:00:01:00:01, Src: NetSys_02:00:02:00:02
    Frame Control Field: 0xee21, Frame Type: Data, Acknowledge Request, Information Elements Present, Destination Addressing Mode: Long/64-bit, Frame Version: IEEE Std 802.15.4-2015, Source Addressing Mode: Long/64-bit
        .... .... .... .001 = Frame Type: Data (0x1)
        .... .... .... 0... = Security Enabled: False
        .... .... ...0 .... = Frame Pending: False
        .... .... ..1. .... = Acknowledge Request: True
        .... .... .0.. .... = PAN ID Compression: False
        .... ...0 .... .... = Sequence Number Suppression: False
        .... ..1. .... .... = Information Elements Present: True
        .... 11.. .... .... = Destination Addressing Mode: Long/64-bit (0x3)
        ..10 .... .... .... = Frame Version: IEEE Std 802.15.4-2015 (2)
        11.. .... .... .... = Source Addressing Mode: Long/64-bit (0x3)
    Sequence Number: 1
    Destination PAN: 0xabcd
    Destination: EquipTra_01:00:01:00:01 (00:01:00:01:00:01:00:01)
    Extended Source: NetSys_02:00:02:00:02 (00:02:00:02:00:02:00:02)
    Header IEs, Header Termination 1 IE
        Header Termination 1 IE (Payload IEs follow)
            IE Header: 0x3f00, Type: Header, Id: Header Termination 1 IE, Length: 0
                0... .... .... .... = Type: Header (0)
                .011 1111 0... .... = Id: Header Termination 1 IE (0x7e)
                .... .... .000 0000 = Length: 0
    Payload IEs, IETF IE, Payload Termination IE
        IETF Payload IE
            Payload IE TLV: 0xa815, Type: Payload, Id: IETF IE
                1... .... .... .... = Type: Payload (1)
                .010 1... .... .... = Id: IETF IE (0x5)
                .... .000 0001 0101 = Length: 21
            Sub-ID: 201
            6top IE
                .... 0000 = 6P Version: 0
                ..00 .... = Type: Request (0x0)
                00.. .... = Reserved: 0x0
                Code: 0x01 (ADD)
                SFID (6top Scheduling Function ID): 0x80
                .... 0000 = SeqNum: 0
                0000 .... = GEN: Clear (0)
                Metadata: 0xcafe
                Cell Options: TX|SHARED (0x05)
                    .... ...1 = Transmit (TX) Cell: 0x1
                    .... ..0. = Receive (RX) Cell: 0x0
                    .... .1.. = SHARED Cell: 0x1
                    0000 0... = Reserved: 0x00
                Number of Cells: 1
                CellList
                    Cell: efbeadde
                        Slot Offset: 0xbeef
                        Channel Offset: 0xdead
                    Cell: bebafeca
                        Slot Offset: 0xbabe
                        Channel Offset: 0xcafe
                    Cell: 0df0adba
                        Slot Offset: 0xf00d
                        Channel Offset: 0xbaad
        Payload Termination IE
            Payload IE TLV: 0xf800, Type: Payload, Id: Payload Termination IE
                1... .... .... .... = Type: Payload (1)
                .111 1... .... .... = Id: Payload Termination IE (0xf)
                .... .000 0000 0000 = Length: 0
    FCS: 0x2a48 (Correct)

0000  21 ee 01 cd ab 01 00 01 00 01 00 01 00 02 00 02   !...............
0010  00 02 00 02 00 00 3f 15 a8 c9 00 01 80 00 fe ca   ......?.........
0020  05 01 ef be ad de be ba fe ca 0d f0 ad ba 00 f8   ................
0030  48 2a                                             H*

Frame 3: 19 bytes on wire (152 bits), 19 bytes captured (152 bits)
    Encapsulation type: IEEE 802.15.4 Wireless PAN (104)
    Arrival Time: Jun 29, 2017 19:08:50.833752000 CEST
    [Time shift for this packet: 0.000000000 seconds]
    Epoch Time: 1498756130.833752000 seconds
    [Time delta from previous captured frame: 0.002632000 seconds]
    [Time delta from previous displayed frame: 0.002632000 seconds]
    [Time since reference or first frame: 0.772632000 seconds]
    Frame Number: 3
    Frame Length: 19 bytes (152 bits)
    Capture Length: 19 bytes (152 bits)
    [Frame is marked: False]
    [Frame is ignored: False]
    [Protocols in frame: wpan]
IEEE 802.15.4 Ack, Sequence Number: 1, Dst: NetSys_02:00:02:00:02
    Frame Control Field: 0x2e02, Frame Type: Ack, Information Elements Present, Destination Addressing Mode: Long/64-bit, Frame Version: IEEE Std 802.15.4-2015, Source Addressing Mode: None
        .... .... .... .010 = Frame Type: Ack (0x2)
        .... .... .... 0... = Security Enabled: False
        .... .... ...0 .... = Frame Pending: False
        .... .... ..0. .... = Acknowledge Request: False
        .... .... .0.. .... = PAN ID Compression: False
        .... ...0 .... .... = Sequence Number Suppression: False
        .... ..1. .... .... = Information Elements Present: True
        .... 11.. .... .... = Destination Addressing Mode: Long/64-bit (0x3)
        ..10 .... .... .... = Frame Version: IEEE Std 802.15.4-2015 (2)
        00.. .... .... .... = Source Addressing Mode: None (0x0)
    Sequence Number: 1
    Destination PAN: 0xabcd
    Destination: NetSys_02:00:02:00:02 (00:02:00:02:00:02:00:02)
    Header IEs, Time Correction IE
        Time Correction IE
            IE Header: 0x0f02, Type: Header, Id: Time Correction IE, Length: 2
                0... .... .... .... = Type: Header (0)
                .000 1111 0... .... = Id: Time Correction IE (0x1e)
                .... .... .000 0010 = Length: 2
            Time Sync Info: 0x0000, Time Correction: 0, Nack: Acknowledgement
                .... 0000 0000 0000 = Time Correction: 0µs
                0... .... .... .... = Nack: Acknowledgement
    FCS: 0x92c3 (Correct)

0000  02 2e 01 cd ab 02 00 02 00 02 00 02 00 02 0f 00   ................
0010  00 c3 92                                          ...

Frame 4: 38 bytes on wire (304 bits), 38 bytes captured (304 bits)
    Encapsulation type: IEEE 802.15.4 Wireless PAN (104)
    Arrival Time: Jun 29, 2017 19:08:50.901120000 CEST
    [Time shift for this packet: 0.000000000 seconds]
    Epoch Time: 1498756130.901120000 seconds
    [Time delta from previous captured frame: 0.067368000 seconds]
    [Time delta from previous displayed frame: 0.067368000 seconds]
    [Time since reference or first frame: 0.840000000 seconds]
    Frame Number: 4
    Frame Length: 38 bytes (304 bits)
    Capture Length: 38 bytes (304 bits)
    [Frame is marked: False]
    [Frame is ignored: False]
    [Protocols in frame: wpan]
IEEE 802.15.4 Data, Dst: NetSys_02:00:02:00:02, Src: EquipTra_01:00:01:00:01
    Frame Control Field: 0xee21, Frame Type: Data, Acknowledge Request, Information Elements Present, Destination Addressing Mode: Long/64-bit, Frame Version: IEEE Std 802.15.4-2015, Source Addressing Mode: Long/64-bit
        .... .... .... .001 = Frame Type: Data (0x1)
        .... .... .... 0... = Security Enabled: False
        .... .... ...0 .... = Frame Pending: False
        .... .... ..1. .... = Acknowledge Request: True
        .... .... .0.. .... = PAN ID Compression: False
        .... ...0 .... .... = Sequence Number Suppression: False
        .... ..1. .... .... = Information Elements Present: True
        .... 11.. .... .... = Destination Addressing Mode: Long/64-bit (0x3)
        ..10 .... .... .... = Frame Version: IEEE Std 802.15.4-2015 (2)
        11.. .... .... .... = Source Addressing Mode: Long/64-bit (0x3)
    Sequence Number: 1
    Destination PAN: 0xabcd
    Destination: NetSys_02:00:02:00:02 (00:02:00:02:00:02:00:02)
    Extended Source: EquipTra_01:00:01:00:01 (00:01:00:01:00:01:00:01)
    Header IEs, Header Termination 1 IE
        Header Termination 1 IE (Payload IEs follow)
            IE Header: 0x3f00, Type: Header, Id: Header Termination 1 IE, Length: 0
                0... .... .... .... = Type: Header (0)
                .011 1111 0... .... = Id: Header Termination 1 IE (0x7e)
                .... .... .000 0000 = Length: 0
    Payload IEs, IETF IE, Payload Termination IE
        IETF Payload IE
            Payload IE TLV: 0xa809, Type: Payload, Id: IETF IE
                1... .... .... .... = Type: Payload (1)
                .010 1... .... .... = Id: IETF IE (0x5)
                .... .000 0000 1001 = Length: 9
            Sub-ID: 201
            6top IE
                .... 0000 = 6P Version: 0
                ..01 .... = Type: Response (0x1)
                00.. .... = Reserved: 0x0
                Code: 0x00 (SUCCESS)
                SFID (6top Scheduling Function ID): 0x80
                .... 0000 = SeqNum: 0
                0000 .... = GEN: Clear (0)
                CellList
                    Cell: efbeadde
                        Slot Offset: 0xbeef
                        Channel Offset: 0xdead
        Payload Termination IE
            Payload IE TLV: 0xf800, Type: Payload, Id: Payload Termination IE
                1... .... .... .... = Type: Payload (1)
                .111 1... .... .... = Id: Payload Termination IE (0xf)
                .... .000 0000 0000 = Length: 0
    FCS: 0xb3d1 (Correct)

0000  21 ee 01 cd ab 02 00 02 00 02 00 02 00 01 00 01   !...............
0010  00 01 00 01 00 00 3f 09 a8 c9 10 00 80 00 ef be   ......?.........
0020  ad de 00 f8 d1 b3                                 ......

Frame 5: 19 bytes on wire (152 bits), 19 bytes captured (152 bits)
    Encapsulation type: IEEE 802.15.4 Wireless PAN (104)
    Arrival Time: Jun 29, 2017 19:08:50.903368000 CEST
    [Time shift for this packet: 0.000000000 seconds]
    Epoch Time: 1498756130.903368000 seconds
    [Time delta from previous captured frame: 0.002248000 seconds]
    [Time delta from previous displayed frame: 0.002248000 seconds]
    [Time since reference or first frame: 0.842248000 seconds]
    Frame Number: 5
    Frame Length: 19 bytes (152 bits)
    Capture Length: 19 bytes (152 bits)
    [Frame is marked: False]
    [Frame is ignored: False]
    [Protocols in frame: wpan]
IEEE 802.15.4 Ack, Sequence Number: 1, Dst: EquipTra_01:00:01:00:01
    Frame Control Field: 0x2e02, Frame Type: Ack, Information Elements Present, Destination Addressing Mode: Long/64-bit, Frame Version: IEEE Std 802.15.4-2015, Source Addressing Mode: None
        .... .... .... .010 = Frame Type: Ack (0x2)
        .... .... .... 0... = Security Enabled: False
        .... .... ...0 .... = Frame Pending: False
        .... .... ..0. .... = Acknowledge Request: False
        .... .... .0.. .... = PAN ID Compression: False
        .... ...0 .... .... = Sequence Number Suppression: False
        .... ..1. .... .... = Information Elements Present: True
        .... 11.. .... .... = Destination Addressing Mode: Long/64-bit (0x3)
        ..10 .... .... .... = Frame Version: IEEE Std 802.15.4-2015 (2)
        00.. .... .... .... = Source Addressing Mode: None (0x0)
    Sequence Number: 1
    Destination PAN: 0xabcd
    Destination: EquipTra_01:00:01:00:01 (00:01:00:01:00:01:00:01)
    Header IEs, Time Correction IE
        Time Correction IE
            IE Header: 0x0f02, Type: Header, Id: Time Correction IE, Length: 2
                0... .... .... .... = Type: Header (0)
                .000 1111 0... .... = Id: Time Correction IE (0x1e)
                .... .... .000 0010 = Length: 2
            Time Sync Info: 0x0000, Time Correction: 0, Nack: Acknowledgement
                .... 0000 0000 0000 = Time Correction: 0µs
                0... .... .... .... = Nack: Acknowledgement
    FCS: 0xe7e9 (Correct)

0000  02 2e 01 cd ab 01 00 01 00 01 00 01 00 02 0f 00   ................
0010  00 e9 e7                                          ...

Frame 6: 38 bytes on wire (304 bits), 38 bytes captured (304 bits)
    Encapsulation type: IEEE 802.15.4 Wireless PAN (104)
    Arrival Time: Jun 29, 2017 19:08:51.811120000 CEST
    [Time shift for this packet: 0.000000000 seconds]
    Epoch Time: 1498756131.811120000 seconds
    [Time delta from previous captured frame: 0.907752000 seconds]
    [Time delta from previous displayed frame: 0.907752000 seconds]
    [Time since reference or first frame: 1.750000000 seconds]
    Frame Number: 6
    Frame Length: 38 bytes (304 bits)
    Capture Length: 38 bytes (304 bits)
    [Frame is marked: False]
    [Frame is ignored: False]
    [Protocols in frame: wpan]
IEEE 802.15.4 Data, Dst: EquipTra_01:00:01:00:01, Src: NetSys_02:00:02:00:02
    Frame Control Field: 0xee21, Frame Type: Data, Acknowledge Request, Information Elements Present, Destination Addressing Mode: Long/64-bit, Frame Version: IEEE Std 802.15.4-2015, Source Addressing Mode: Long/64-bit
        .... .... .... .001 = Frame Type: Data (0x1)
        .... .... .... 0... = Security Enabled: False
        .... .... ...0 .... = Frame Pending: False
        .... .... ..1. .... = Acknowledge Request: True
        .... .... .0.. .... = PAN ID Compression: False
        .... ...0 .... .... = Sequence Number Suppression: False
        .... ..1. .... .... = Information Elements Present: True
        .... 11.. .... .... = Destination Addressing Mode: Long/64-bit (0x3)
        ..10 .... .... .... = Frame Version: IEEE Std 802.15.4-2015 (2)
        11.. .... .... .... = Source Addressing Mode: Long/64-bit (0x3)
    Sequence Number: 2
    Destination PAN: 0xabcd
    Destination: EquipTra_01:00:01:00:01 (00:01:00:01:00:01:00:01)
    Extended Source: NetSys_02:00:02:00:02 (00:02:00:02:00:02:00:02)
    Header IEs, Header Termination 1 IE
        Header Termination 1 IE (Payload IEs follow)
            IE Header: 0x3f00, Type: Header, Id: Header Termination 1 IE, Length: 0
                0... .... .... .... = Type: Header (0)
                .011 1111 0... .... = Id: Header Termination 1 IE (0x7e)
                .... .... .000 0000 = Length: 0
    Payload IEs, IETF IE, Payload Termination IE
        IETF Payload IE
            Payload IE TLV: 0xa809, Type: Payload, Id: IETF IE
                1... .... .... .... = Type: Payload (1)
                .010 1... .... .... = Id: IETF IE (0x5)
                .... .000 0000 1001 = Length: 9
            Sub-ID: 201
            6top IE
                .... 0000 = 6P Version: 0
                ..00 .... = Type: Request (0x0)
                00.. .... = Reserved: 0x0
                Code: 0x01 (ADD)
                SFID (6top Scheduling Function ID): 0x80
                .... 0001 = SeqNum: 1
                0001 .... = GEN: Lollipop Counter Value (1)
                Metadata: 0xcafe
                Cell Options: TX|SHARED (0x05)
                    .... ...1 = Transmit (TX) Cell: 0x1
                    .... ..0. = Receive (RX) Cell: 0x0
                    .... .1.. = SHARED Cell: 0x1
                    0000 0... = Reserved: 0x00
                Number of Cells: 1
        Payload Termination IE
            Payload IE TLV: 0xf800, Type: Payload, Id: Payload Termination IE
                1... .... .... .... = Type: Payload (1)
                .111 1... .... .... = Id: Payload Termination IE (0xf)
                .... .000 0000 0000 = Length: 0
    FCS: 0xf02f (Correct)

0000  21 ee 02 cd ab 01 00 01 00 01 00 01 00 02 00 02   !...............
0010  00 02 00 02 00 00 3f 09 a8 c9 00 01 80 11 fe ca   ......?.........
0020  05 01 00 f8 2f f0                                 ..../.

Frame 7: 19 bytes on wire (152 bits), 19 bytes captured (152 bits)
    Encapsulation type: IEEE 802.15.4 Wireless PAN (104)
    Arrival Time: Jun 29, 2017 19:08:51.813368000 CEST
    [Time shift for this packet: 0.000000000 seconds]
    Epoch Time: 1498756131.813368000 seconds
    [Time delta from previous captured frame: 0.002248000 seconds]
    [Time delta from previous displayed frame: 0.002248000 seconds]
    [Time since reference or first frame: 1.752248000 seconds]
    Frame Number: 7
    Frame Length: 19 bytes (152 bits)
    Capture Length: 19 bytes (152 bits)
    [Frame is marked: False]
    [Frame is ignored: False]
    [Protocols in frame: wpan]
IEEE 802.15.4 Ack, Sequence Number: 2, Dst: NetSys_02:00:02:00:02
    Frame Control Field: 0x2e02, Frame Type: Ack, Information Elements Present, Destination Addressing Mode: Long/64-bit, Frame Version: IEEE Std 802.15.4-2015, Source Addressing Mode: None
        .... .... .... .010 = Frame Type: Ack (0x2)
        .... .... .... 0... = Security Enabled: False
        .... .... ...0 .... = Frame Pending: False
        .... .... ..0. .... = Acknowledge Request: False
        .... .... .0.. .... = PAN ID Compression: False
        .... ...0 .... .... = Sequence Number Suppression: False
        .... ..1. .... .... = Information Elements Present: True
        .... 11.. .... .... = Destination Addressing Mode: Long/64-bit (0x3)
        ..10 .... .... .... = Frame Version: IEEE Std 802.15.4-2015 (2)
        00.. .... .... .... = Source Addressing Mode: None (0x0)
    Sequence Number: 2
    Destination PAN: 0xabcd
    Destination: NetSys_02:00:02:00:02 (00:02:00:02:00:02:00:02)
    Header IEs, Time Correction IE
        Time Correction IE
            IE Header: 0x0f02, Type: Header, Id: Time Correction IE, Length: 2
                0... .... .... .... = Type: Header (0)
                .000 1111 0... .... = Id: Time Correction IE (0x1e)
                .... .... .000 0010 = Length: 2
            Time Sync Info: 0x0000, Time Correction: 0, Nack: Acknowledgement
                .... 0000 0000 0000 = Time Correction: 0µs
                0... .... .... .... = Nack: Acknowledgement
    FCS: 0x4abd (Correct)

0000  02 2e 02 cd ab 02 00 02 00 02 00 02 00 02 0f 00   ................
0010  00 bd 4a                                          ..J

Frame 8: 46 bytes on wire (368 bits), 46 bytes captured (368 bits)
    Encapsulation type: IEEE 802.15.4 Wireless PAN (104)
    Arrival Time: Jun 29, 2017 19:08:51.881120000 CEST
    [Time shift for this packet: 0.000000000 seconds]
    Epoch Time: 1498756131.881120000 seconds
    [Time delta from previous captured frame: 0.067752000 seconds]
    [Time delta from previous displayed frame: 0.067752000 seconds]
    [Time since reference or first frame: 1.820000000 seconds]
    Frame Number: 8
    Frame Length: 46 bytes (368 bits)
    Capture Length: 46 bytes (368 bits)
    [Frame is marked: False]
    [Frame is ignored: False]
    [Protocols in frame: wpan]
IEEE 802.15.4 Data, Dst: NetSys_02:00:02:00:02, Src: EquipTra_01:00:01:00:01
    Frame Control Field: 0xee21, Frame Type: Data, Acknowledge Request, Information Elements Present, Destination Addressing Mode: Long/64-bit, Frame Version: IEEE Std 802.15.4-2015, Source Addressing Mode: Long/64-bit
        .... .... .... .001 = Frame Type: Data (0x1)
        .... .... .... 0... = Security Enabled: False
        .... .... ...0 .... = Frame Pending: False
        .... .... ..1. .... = Acknowledge Request: True
        .... .... .0.. .... = PAN ID Compression: False
        .... ...0 .... .... = Sequence Number Suppression: False
        .... ..1. .... .... = Information Elements Present: True
        .... 11.. .... .... = Destination Addressing Mode: Long/64-bit (0x3)
        ..10 .... .... .... = Frame Version: IEEE Std 802.15.4-2015 (2)
        11.. .... .... .... = Source Addressing Mode: Long/64-bit (0x3)
    Sequence Number: 2
    Destination PAN: 0xabcd
    Destination: NetSys_02:00:02:00:02 (00:02:00:02:00:02:00:02)
    Extended Source: EquipTra_01:00:01:00:01 (00:01:00:01:00:01:00:01)
    Header IEs, Header Termination 1 IE
        Header Termination 1 IE (Payload IEs follow)
            IE Header: 0x3f00, Type: Header, Id: Header Termination 1 IE, Length: 0
                0... .... .... .... = Type: Header (0)
                .011 1111 0... .... = Id: Header Termination 1 IE (0x7e)
                .... .... .000 0000 = Length: 0
    Payload IEs, IETF IE, Payload Termination IE
        IETF Payload IE
            Payload IE TLV: 0xa811, Type: Payload, Id: IETF IE
                1... .... .... .... = Type: Payload (1)
                .010 1... .... .... = Id: IETF IE (0x5)
                .... .000 0001 0001 = Length: 17
            Sub-ID: 201
            6top IE
                .... 0000 = 6P Version: 0
                ..01 .... = Type: Response (0x1)
                00.. .... = Reserved: 0x0
                Code: 0x00 (SUCCESS)
                SFID (6top Scheduling Function ID): 0x80
                .... 0001 = SeqNum: 1
                0001 .... = GEN: Lollipop Counter Value (1)
                CellList
                    Cell: efbeadde
                        Slot Offset: 0xbeef
                        Channel Offset: 0xdead
                    Cell: bebafeca
                        Slot Offset: 0xbabe
                        Channel Offset: 0xcafe
                    Cell: 0df0adba
                        Slot Offset: 0xf00d
                        Channel Offset: 0xbaad
        Payload Termination IE
            Payload IE TLV: 0xf800, Type: Payload, Id: Payload Termination IE
                1... .... .... .... = Type: Payload (1)
                .111 1... .... .... = Id: Payload Termination IE (0xf)
                .... .000 0000 0000 = Length: 0
    FCS: 0xaed9 (Correct)

0000  21 ee 02 cd ab 02 00 02 00 02 00 02 00 01 00 01   !...............
0010  00 01 00 01 00 00 3f 11 a8 c9 10 00 80 11 ef be   ......?.........
0020  ad de be ba fe ca 0d f0 ad ba 00 f8 d9 ae         ..............

Frame 9: 19 bytes on wire (152 bits), 19 bytes captured (152 bits)
    Encapsulation type: IEEE 802.15.4 Wireless PAN (104)
    Arrival Time: Jun 29, 2017 19:08:51.883624000 CEST
    [Time shift for this packet: 0.000000000 seconds]
    Epoch Time: 1498756131.883624000 seconds
    [Time delta from previous captured frame: 0.002504000 seconds]
    [Time delta from previous displayed frame: 0.002504000 seconds]
    [Time since reference or first frame: 1.822504000 seconds]
    Frame Number: 9
    Frame Length: 19 bytes (152 bits)
    Capture Length: 19 bytes (152 bits)
    [Frame is marked: False]
    [Frame is ignored: False]
    [Protocols in frame: wpan]
IEEE 802.15.4 Ack, Sequence Number: 2, Dst: EquipTra_01:00:01:00:01
    Frame Control Field: 0x2e02, Frame Type: Ack, Information Elements Present, Destination Addressing Mode: Long/64-bit, Frame Version: IEEE Std 802.15.4-2015, Source Addressing Mode: None
        .... .... .... .010 = Frame Type: Ack (0x2)
        .... .... .... 0... = Security Enabled: False
        .... .... ...0 .... = Frame Pending: False
        .... .... ..0. .... = Acknowledge Request: False
        .... .... .0.. .... = PAN ID Compression: False
        .... ...0 .... .... = Sequence Number Suppression: False
        .... ..1. .... .... = Information Elements Present: True
        .... 11.. .... .... = Destination Addressing Mode: Long/64-bit (0x3)
        ..10 .... .... .... = Frame Version: IEEE Std 802.15.4-2015 (2)
        00.. .... .... .... = Source Addressing Mode: None (0x0)
    Sequence Number: 2
    Destination PAN: 0xabcd
    Destination: EquipTra_01:00:01:00:01 (00:01:00:01:00:01:00:01)
    Header IEs, Time Correction IE
        Time Correction IE
            IE Header: 0x0f02, Type: Header, Id: Time Correction IE, Length: 2
                0... .... .... .... = Type: Header (0)
                .000 1111 0... .... = Id: Time Correction IE (0x1e)
                .... .... .000 0010 = Length: 2
            Time Sync Info: 0x0000, Time Correction: 0, Nack: Acknowledgement
                .... 0000 0000 0000 = Time Correction: 0µs
                0... .... .... .... = Nack: Acknowledgement
    FCS: 0x3f97 (Correct)

0000  02 2e 02 cd ab 01 00 01 00 01 00 01 00 02 0f 00   ................
0010  00 97 3f                                          ..?

Frame 10: 38 bytes on wire (304 bits), 38 bytes captured (304 bits)
    Encapsulation type: IEEE 802.15.4 Wireless PAN (104)
    Arrival Time: Jun 29, 2017 19:08:51.951120000 CEST
    [Time shift for this packet: 0.000000000 seconds]
    Epoch Time: 1498756131.951120000 seconds
    [Time delta from previous captured frame: 0.067496000 seconds]
    [Time delta from previous displayed frame: 0.067496000 seconds]
    [Time since reference or first frame: 1.890000000 seconds]
    Frame Number: 10
    Frame Length: 38 bytes (304 bits)
    Capture Length: 38 bytes (304 bits)
    [Frame is marked: False]
    [Frame is ignored: False]
    [Protocols in frame: wpan]
IEEE 802.15.4 Data, Dst: EquipTra_01:00:01:00:01, Src: NetSys_02:00:02:00:02
    Frame Control Field: 0xee21, Frame Type: Data, Acknowledge Request, Information Elements Present, Destination Addressing Mode: Long/64-bit, Frame Version: IEEE Std 802.15.4-2015, Source Addressing Mode: Long/64-bit
        .... .... .... .001 = Frame Type: Data (0x1)
        .... .... .... 0... = Security Enabled: False
        .... .... ...0 .... = Frame Pending: False
        .... .... ..1. .... = Acknowledge Request: True
        .... .... .0.. .... = PAN ID Compression: False
        .... ...0 .... .... = Sequence Number Suppression: False
        .... ..1. .... .... = Information Elements Present: True
        .... 11.. .... .... = Destination Addressing Mode: Long/64-bit (0x3)
        ..10 .... .... .... = Frame Version: IEEE Std 802.15.4-2015 (2)
        11.. .... .... .... = Source Addressing Mode: Long/64-bit (0x3)
    Sequence Number: 3
    Destination PAN: 0xabcd
    Destination: EquipTra_01:00:01:00:01 (00:01:00:01:00:01:00:01)
    Extended Source: NetSys_02:00:02:00:02 (00:02:00:02:00:02:00:02)
    Header IEs, Header Termination 1 IE
        Header Termination 1 IE (Payload IEs follow)
            IE Header: 0x3f00, Type: Header, Id: Header Termination 1 IE, Length: 0
                0... .... .... .... = Type: Header (0)
                .011 1111 0... .... = Id: Header Termination 1 IE (0x7e)
                .... .... .000 0000 = Length: 0
    Payload IEs, IETF IE, Payload Termination IE
        IETF Payload IE
            Payload IE TLV: 0xa809, Type: Payload, Id: IETF IE
                1... .... .... .... = Type: Payload (1)
                .010 1... .... .... = Id: IETF IE (0x5)
                .... .000 0000 1001 = Length: 9
            Sub-ID: 201
            6top IE
                .... 0000 = 6P Version: 0
                ..10 .... = Type: Confirmation (0x2)
                00.. .... = Reserved: 0x0
                Code: 0x00 (SUCCESS)
                SFID (6top Scheduling Function ID): 0x80
                .... 0001 = SeqNum: 1
                0001 .... = GEN: Lollipop Counter Value (1)
                CellList
                    Cell: efbeadde
                        Slot Offset: 0xbeef
                        Channel Offset: 0xdead
        Payload Termination IE
            Payload IE TLV: 0xf800, Type: Payload, Id: Payload Termination IE
                1... .... .... .... = Type: Payload (1)
                .111 1... .... .... = Id: Payload Termination IE (0xf)
                .... .000 0000 0000 = Length: 0
    FCS: 0xbcef (Correct)

0000  21 ee 03 cd ab 01 00 01 00 01 00 01 00 02 00 02   !...............
0010  00 02 00 02 00 00 3f 09 a8 c9 20 00 80 11 ef be   ......?... .....
0020  ad de 00 f8 ef bc                                 ......

Frame 11: 19 bytes on wire (152 bits), 19 bytes captured (152 bits)
    Encapsulation type: IEEE 802.15.4 Wireless PAN (104)
    Arrival Time: Jun 29, 2017 19:08:51.953368000 CEST
    [Time shift for this packet: 0.000000000 seconds]
    Epoch Time: 1498756131.953368000 seconds
    [Time delta from previous captured frame: 0.002248000 seconds]
    [Time delta from previous displayed frame: 0.002248000 seconds]
    [Time since reference or first frame: 1.892248000 seconds]
    Frame Number: 11
    Frame Length: 19 bytes (152 bits)
    Capture Length: 19 bytes (152 bits)
    [Frame is marked: False]
    [Frame is ignored: False]
    [Protocols in frame: wpan]
IEEE 802.15.4 Ack, Sequence Number: 3, Dst: NetSys_02:00:02:00:02
    Frame Control Field: 0x2e02, Frame Type: Ack, Information Elements Present, Destination Addressing Mode: Long/64-bit, Frame Version: IEEE Std 802.15.4-2015, Source Addressing Mode: None
        .... .... .... .010 = Frame Type: Ack (0x2)
        .... .... .... 0... = Security Enabled: False
        .... .... ...0 .... = Frame Pending: False
        .... .... ..0. .... = Acknowledge Request: False
        .... .... .0.. .... = PAN ID Compression: False
        .... ...0 .... .... = Sequence Number Suppression: False
        .... ..1. .... .... = Information Elements Present: True
        .... 11.. .... .... = Destination Addressing Mode: Long/64-bit (0x3)
        ..10 .... .... .... = Frame Version: IEEE Std 802.15.4-2015 (2)
        00.. .... .... .... = Source Addressing Mode: None (0x0)
    Sequence Number: 3
    Destination PAN: 0xabcd
    Destination: NetSys_02:00:02:00:02 (00:02:00:02:00:02:00:02)
    Header IEs, Time Correction IE
        Time Correction IE
            IE Header: 0x0f02, Type: Header, Id: Time Correction IE, Length: 2
                0... .... .... .... = Type: Header (0)
                .000 1111 0... .... = Id: Time Correction IE (0x1e)
                .... .... .000 0010 = Length: 2
            Time Sync Info: 0x0000, Time Correction: 0, Nack: Acknowledgement
                .... 0000 0000 0000 = Time Correction: 0µs
                0... .... .... .... = Nack: Acknowledgement
    FCS: 0x0297 (Correct)

0000  02 2e 03 cd ab 02 00 02 00 02 00 02 00 02 0f 00   ................
0010  00 97 02                                          ...

Frame 12: 50 bytes on wire (400 bits), 50 bytes captured (400 bits)
    Encapsulation type: IEEE 802.15.4 Wireless PAN (104)
    Arrival Time: Jun 29, 2017 19:08:52.791120000 CEST
    [Time shift for this packet: 0.000000000 seconds]
    Epoch Time: 1498756132.791120000 seconds
    [Time delta from previous captured frame: 0.837752000 seconds]
    [Time delta from previous displayed frame: 0.837752000 seconds]
    [Time since reference or first frame: 2.730000000 seconds]
    Frame Number: 12
    Frame Length: 50 bytes (400 bits)
    Capture Length: 50 bytes (400 bits)
    [Frame is marked: False]
    [Frame is ignored: False]
    [Protocols in frame: wpan]
IEEE 802.15.4 Data, Dst: EquipTra_01:00:01:00:01, Src: NetSys_02:00:02:00:02
    Frame Control Field: 0xee21, Frame Type: Data, Acknowledge Request, Information Elements Present, Destination Addressing Mode: Long/64-bit, Frame Version: IEEE Std 802.15.4-2015, Source Addressing Mode: Long/64-bit
        .... .... .... .001 = Frame Type: Data (0x1)
        .... .... .... 0... = Security Enabled: False
        .... .... ...0 .... = Frame Pending: False
        .... .... ..1. .... = Acknowledge Request: True
        .... .... .0.. .... = PAN ID Compression: False
        .... ...0 .... .... = Sequence Number Suppression: False
        .... ..1. .... .... = Information Elements Present: True
        .... 11.. .... .... = Destination Addressing Mode: Long/64-bit (0x3)
        ..10 .... .... .... = Frame Version: IEEE Std 802.15.4-2015 (2)
        11.. .... .... .... = Source Addressing Mode: Long/64-bit (0x3)
    Sequence Number: 4
    Destination PAN: 0xabcd
    Destination: EquipTra_01:00:01:00:01 (00:01:00:01:00:01:00:01)
    Extended Source: NetSys_02:00:02:00:02 (00:02:00:02:00:02:00:02)
    Header IEs, Header Termination 1 IE
        Header Termination 1 IE (Payload IEs follow)
            IE Header: 0x3f00, Type: Header, Id: Header Termination 1 IE, Length: 0
                0... .... .... .... = Type: Header (0)
                .011 1111 0... .... = Id: Header Termination 1 IE (0x7e)
                .... .... .000 0000 = Length: 0
    Payload IEs, IETF IE, Payload Termination IE
        IETF Payload IE
            Payload IE TLV: 0xa815, Type: Payload, Id: IETF IE
                1... .... .... .... = Type: Payload (1)
                .010 1... .... .... = Id: IETF IE (0x5)
                .... .000 0001 0101 = Length: 21
            Sub-ID: 201
            6top IE
                .... 0000 = 6P Version: 0
                ..00 .... = Type: Request (0x0)
                00.. .... = Reserved: 0x0
                Code: 0x02 (DELETE)
                SFID (6top Scheduling Function ID): 0x80
                .... 0010 = SeqNum: 2
                0010 .... = GEN: Lollipop Counter Value (2)
                Metadata: 0xcafe
                Cell Options: TX|SHARED (0x05)
                    .... ...1 = Transmit (TX) Cell: 0x1
                    .... ..0. = Receive (RX) Cell: 0x0
                    .... .1.. = SHARED Cell: 0x1
                    0000 0... = Reserved: 0x00
                Number of Cells: 1
                CellList
                    Cell: efbeadde
                        Slot Offset: 0xbeef
                        Channel Offset: 0xdead
                    Cell: bebafeca
                        Slot Offset: 0xbabe
                        Channel Offset: 0xcafe
                    Cell: 0df0adba
                        Slot Offset: 0xf00d
                        Channel Offset: 0xbaad
        Payload Termination IE
            Payload IE TLV: 0xf800, Type: Payload, Id: Payload Termination IE
                1... .... .... .... = Type: Payload (1)
                .111 1... .... .... = Id: Payload Termination IE (0xf)
                .... .000 0000 0000 = Length: 0
    FCS: 0x07b1 (Correct)

0000  21 ee 04 cd ab 01 00 01 00 01 00 01 00 02 00 02   !...............
0010  00 02 00 02 00 00 3f 15 a8 c9 00 02 80 22 fe ca   ......?......"..
0020  05 01 ef be ad de be ba fe ca 0d f0 ad ba 00 f8   ................
0030  b1 07                                             ..

Frame 13: 19 bytes on wire (152 bits), 19 bytes captured (152 bits)
    Encapsulation type: IEEE 802.15.4 Wireless PAN (104)
    Arrival Time: Jun 29, 2017 19:08:52.793752000 CEST
    [Time shift for this packet: 0.000000000 seconds]
    Epoch Time: 1498756132.793752000 seconds
    [Time delta from previous captured frame: 0.002632000 seconds]
    [Time delta from previous displayed frame: 0.002632000 seconds]
    [Time since reference or first frame: 2.732632000 seconds]
    Frame Number: 13
    Frame Length: 19 bytes (152 bits)
    Capture Length: 19 bytes (152 bits)
    [Frame is marked: False]
    [Frame is ignored: False]
    [Protocols in frame: wpan]
IEEE 802.15.4 Ack, Sequence Number: 4, Dst: NetSys_02:00:02:00:02
    Frame Control Field: 0x2e02, Frame Type: Ack, Information Elements Present, Destination Addressing Mode: Long/64-bit, Frame Version: IEEE Std 802.15.4-2015, Source Addressing Mode: None
        .... .... .... .010 = Frame Type: Ack (0x2)
        .... .... .... 0... = Security Enabled: False
        .... .... ...0 .... = Frame Pending: False
        .... .... ..0. .... = Acknowledge Request: False
        .... .... .0.. .... = PAN ID Compression: False
        .... ...0 .... .... = Sequence Number Suppression: False
        .... ..1. .... .... = Information Elements Present: True
        .... 11.. .... .... = Destination Addressing Mode: Long/64-bit (0x3)
        ..10 .... .... .... = Frame Version: IEEE Std 802.15.4-2015 (2)
        00.. .... .... .... = Source Addressing Mode: None (0x0)
    Sequence Number: 4
    Destination PAN: 0xabcd
    Destination: NetSys_02:00:02:00:02 (00:02:00:02:00:02:00:02)
    Header IEs, Time Correction IE
        Time Correction IE
            IE Header: 0x0f02, Type: Header, Id: Time Correction IE, Length: 2
                0... .... .... .... = Type: Header (0)
                .000 1111 0... .... = Id: Time Correction IE (0x1e)
                .... .... .000 0010 = Length: 2
            Time Sync Info: 0x0000, Time Correction: 0, Nack: Acknowledgement
                .... 0000 0000 0000 = Time Correction: 0µs
                0... .... .... .... = Nack: Acknowledgement
    FCS: 0xf250 (Correct)

0000  02 2e 04 cd ab 02 00 02 00 02 00 02 00 02 0f 00   ................
0010  00 50 f2                                          .P.

Frame 14: 38 bytes on wire (304 bits), 38 bytes captured (304 bits)
    Encapsulation type: IEEE 802.15.4 Wireless PAN (104)
    Arrival Time: Jun 29, 2017 19:08:52.861120000 CEST
    [Time shift for this packet: 0.000000000 seconds]
    Epoch Time: 1498756132.861120000 seconds
    [Time delta from previous captured frame: 0.067368000 seconds]
    [Time delta from previous displayed frame: 0.067368000 seconds]
    [Time since reference or first frame: 2.800000000 seconds]
    Frame Number: 14
    Frame Length: 38 bytes (304 bits)
    Capture Length: 38 bytes (304 bits)
    [Frame is marked: False]
    [Frame is ignored: False]
    [Protocols in frame: wpan]
IEEE 802.15.4 Data, Dst: NetSys_02:00:02:00:02, Src: EquipTra_01:00:01:00:01
    Frame Control Field: 0xee21, Frame Type: Data, Acknowledge Request, Information Elements Present, Destination Addressing Mode: Long/64-bit, Frame Version: IEEE Std 802.15.4-2015, Source Addressing Mode: Long/64-bit
        .... .... .... .001 = Frame Type: Data (0x1)
        .... .... .... 0... = Security Enabled: False
        .... .... ...0 .... = Frame Pending: False
        .... .... ..1. .... = Acknowledge Request: True
        .... .... .0.. .... = PAN ID Compression: False
        .... ...0 .... .... = Sequence Number Suppression: False
        .... ..1. .... .... = Information Elements Present: True
        .... 11.. .... .... = Destination Addressing Mode: Long/64-bit (0x3)
        ..10 .... .... .... = Frame Version: IEEE Std 802.15.4-2015 (2)
        11.. .... .... .... = Source Addressing Mode: Long/64-bit (0x3)
    Sequence Number: 3
    Destination PAN: 0xabcd
    Destination: NetSys_02:00:02:00:02 (00:02:00:02:00:02:00:02)
    Extended Source: EquipTra_01:00:01:00:01 (00:01:00:01:00:01:00:01)
    Header IEs, Header Termination 1 IE
        Header Termination 1 IE (Payload IEs follow)
            IE Header: 0x3f00, Type: Header, Id: Header Termination 1 IE, Length: 0
                0... .... .... .... = Type: Header (0)
                .011 1111 0... .... = Id: Header Termination 1 IE (0x7e)
                .... .... .000 0000 = Length: 0
    Payload IEs, IETF IE, Payload Termination IE
        IETF Payload IE
            Payload IE TLV: 0xa809, Type: Payload, Id: IETF IE
                1... .... .... .... = Type: Payload (1)
                .010 1... .... .... = Id: IETF IE (0x5)
                .... .000 0000 1001 = Length: 9
            Sub-ID: 201
            6top IE
                .... 0000 = 6P Version: 0
                ..01 .... = Type: Response (0x1)
                00.. .... = Reserved: 0x0
                Code: 0x00 (SUCCESS)
                SFID (6top Scheduling Function ID): 0x80
                .... 0010 = SeqNum: 2
                0010 .... = GEN: Lollipop Counter Value (2)
                CellList
                    Cell: efbeadde
                        Slot Offset: 0xbeef
                        Channel Offset: 0xdead
        Payload Termination IE
            Payload IE TLV: 0xf800, Type: Payload, Id: Payload Termination IE
                1... .... .... .... = Type: Payload (1)
                .111 1... .... .... = Id: Payload Termination IE (0xf)
                .... .000 0000 0000 = Length: 0
    FCS: 0x4453 (Correct)

0000  21 ee 03 cd ab 02 00 02 00 02 00 02 00 01 00 01   !...............
0010  00 01 00 01 00 00 3f 09 a8 c9 10 00 80 22 ef be   ......?......"..
0020  ad de 00 f8 53 44                                 ....SD

Frame 15: 19 bytes on wire (152 bits), 19 bytes captured (152 bits)
    Encapsulation type: IEEE 802.15.4 Wireless PAN (104)
    Arrival Time: Jun 29, 2017 19:08:52.863368000 CEST
    [Time shift for this packet: 0.000000000 seconds]
    Epoch Time: 1498756132.863368000 seconds
    [Time delta from previous captured frame: 0.002248000 seconds]
    [Time delta from previous displayed frame: 0.002248000 seconds]
    [Time since reference or first frame: 2.802248000 seconds]
    Frame Number: 15
    Frame Length: 19 bytes (152 bits)
    Capture Length: 19 bytes (152 bits)
    [Frame is marked: False]
    [Frame is ignored: False]
    [Protocols in frame: wpan]
IEEE 802.15.4 Ack, Sequence Number: 3, Dst: EquipTra_01:00:01:00:01
    Frame Control Field: 0x2e02, Frame Type: Ack, Information Elements Present, Destination Addressing Mode: Long/64-bit, Frame Version: IEEE Std 802.15.4-2015, Source Addressing Mode: None
        .... .... .... .010 = Frame Type: Ack (0x2)
        .... .... .... 0... = Security Enabled: False
        .... .... ...0 .... = Frame Pending: False
        .... .... ..0. .... = Acknowledge Request: False
        .... .... .0.. .... = PAN ID Compression: False
        .... ...0 .... .... = Sequence Number Suppression: False
        .... ..1. .... .... = Information Elements Present: True
        .... 11.. .... .... = Destination Addressing Mode: Long/64-bit (0x3)
        ..10 .... .... .... = Frame Version: IEEE Std 802.15.4-2015 (2)
        00.. .... .... .... = Source Addressing Mode: None (0x0)
    Sequence Number: 3
    Destination PAN: 0xabcd
    Destination: EquipTra_01:00:01:00:01 (00:01:00:01:00:01:00:01)
    Header IEs, Time Correction IE
        Time Correction IE
            IE Header: 0x0f02, Type: Header, Id: Time Correction IE, Length: 2
                0... .... .... .... = Type: Header (0)
                .000 1111 0... .... = Id: Time Correction IE (0x1e)
                .... .... .000 0010 = Length: 2
            Time Sync Info: 0x0000, Time Correction: 0, Nack: Acknowledgement
                .... 0000 0000 0000 = Time Correction: 0µs
                0... .... .... .... = Nack: Acknowledgement
    FCS: 0x77bd (Correct)

0000  02 2e 03 cd ab 01 00 01 00 01 00 01 00 02 0f 00   ................
0010  00 bd 77                                          ..w

Frame 16: 38 bytes on wire (304 bits), 38 bytes captured (304 bits)
    Encapsulation type: IEEE 802.15.4 Wireless PAN (104)
    Arrival Time: Jun 29, 2017 19:08:53.841120000 CEST
    [Time shift for this packet: 0.000000000 seconds]
    Epoch Time: 1498756133.841120000 seconds
    [Time delta from previous captured frame: 0.977752000 seconds]
    [Time delta from previous displayed frame: 0.977752000 seconds]
    [Time since reference or first frame: 3.780000000 seconds]
    Frame Number: 16
    Frame Length: 38 bytes (304 bits)
    Capture Length: 38 bytes (304 bits)
    [Frame is marked: False]
    [Frame is ignored: False]
    [Protocols in frame: wpan]
IEEE 802.15.4 Data, Dst: EquipTra_01:00:01:00:01, Src: NetSys_02:00:02:00:02
    Frame Control Field: 0xee21, Frame Type: Data, Acknowledge Request, Information Elements Present, Destination Addressing Mode: Long/64-bit, Frame Version: IEEE Std 802.15.4-2015, Source Addressing Mode: Long/64-bit
        .... .... .... .001 = Frame Type: Data (0x1)
        .... .... .... 0... = Security Enabled: False
        .... .... ...0 .... = Frame Pending: False
        .... .... ..1. .... = Acknowledge Request: True
        .... .... .0.. .... = PAN ID Compression: False
        .... ...0 .... .... = Sequence Number Suppression: False
        .... ..1. .... .... = Information Elements Present: True
        .... 11.. .... .... = Destination Addressing Mode: Long/64-bit (0x3)
        ..10 .... .... .... = Frame Version: IEEE Std 802.15.4-2015 (2)
        11.. .... .... .... = Source Addressing Mode: Long/64-bit (0x3)
    Sequence Number: 5
    Destination PAN: 0xabcd
    Destination: EquipTra_01:00:01:00:01 (00:01:00:01:00:01:00:01)
    Extended Source: NetSys_02:00:02:00:02 (00:02:00:02:00:02:00:02)
    Header IEs, Header Termination 1 IE
        Header Termination 1 IE (Payload IEs follow)
            IE Header: 0x3f00, Type: Header, Id: Header Termination 1 IE, Length: 0
                0... .... .... .... = Type: Header (0)
                .011 1111 0... .... = Id: Header Termination 1 IE (0x7e)
                .... .... .000 0000 = Length: 0
    Payload IEs, IETF IE, Payload Termination IE
        IETF Payload IE
            Payload IE TLV: 0xa809, Type: Payload, Id: IETF IE
                1... .... .... .... = Type: Payload (1)
                .010 1... .... .... = Id: IETF IE (0x5)
                .... .000 0000 1001 = Length: 9
            Sub-ID: 201
            6top IE
                .... 0000 = 6P Version: 0
                ..00 .... = Type: Request (0x0)
                00.. .... = Reserved: 0x0
                Code: 0x02 (DELETE)
                SFID (6top Scheduling Function ID): 0x80
                .... 0011 = SeqNum: 3
                0011 .... = GEN: Lollipop Counter Value (3)
                Metadata: 0xcafe
                Cell Options: TX|SHARED (0x05)
                    .... ...1 = Transmit (TX) Cell: 0x1
                    .... ..0. = Receive (RX) Cell: 0x0
                    .... .1.. = SHARED Cell: 0x1
                    0000 0... = Reserved: 0x00
                Number of Cells: 1
        Payload Termination IE
            Payload IE TLV: 0xf800, Type: Payload, Id: Payload Termination IE
                1... .... .... .... = Type: Payload (1)
                .111 1... .... .... = Id: Payload Termination IE (0xf)
                .... .000 0000 0000 = Length: 0
    FCS: 0xcf12 (Correct)

0000  21 ee 05 cd ab 01 00 01 00 01 00 01 00 02 00 02   !...............
0010  00 02 00 02 00 00 3f 09 a8 c9 00 02 80 33 fe ca   ......?......3..
0020  05 01 00 f8 12 cf                                 ......

Frame 17: 19 bytes on wire (152 bits), 19 bytes captured (152 bits)
    Encapsulation type: IEEE 802.15.4 Wireless PAN (104)
    Arrival Time: Jun 29, 2017 19:08:53.843368000 CEST
    [Time shift for this packet: 0.000000000 seconds]
    Epoch Time: 1498756133.843368000 seconds
    [Time delta from previous captured frame: 0.002248000 seconds]
    [Time delta from previous displayed frame: 0.002248000 seconds]
    [Time since reference or first frame: 3.782248000 seconds]
    Frame Number: 17
    Frame Length: 19 bytes (152 bits)
    Capture Length: 19 bytes (152 bits)
    [Frame is marked: False]
    [Frame is ignored: False]
    [Protocols in frame: wpan]
IEEE 802.15.4 Ack, Sequence Number: 5, Dst: NetSys_02:00:02:00:02
    Frame Control Field: 0x2e02, Frame Type: Ack, Information Elements Present, Destination Addressing Mode: Long/64-bit, Frame Version: IEEE Std 802.15.4-2015, Source Addressing Mode: None
        .... .... .... .010 = Frame Type: Ack (0x2)
        .... .... .... 0... = Security Enabled: False
        .... .... ...0 .... = Frame Pending: False
        .... .... ..0. .... = Acknowledge Request: False
        .... .... .0.. .... = PAN ID Compression: False
        .... ...0 .... .... = Sequence Number Suppression: False
        .... ..1. .... .... = Information Elements Present: True
        .... 11.. .... .... = Destination Addressing Mode: Long/64-bit (0x3)
        ..10 .... .... .... = Frame Version: IEEE Std 802.15.4-2015 (2)
        00.. .... .... .... = Source Addressing Mode: None (0x0)
    Sequence Number: 5
    Destination PAN: 0xabcd
    Destination: NetSys_02:00:02:00:02 (00:02:00:02:00:02:00:02)
    Header IEs, Time Correction IE
        Time Correction IE
            IE Header: 0x0f02, Type: Header, Id: Time Correction IE, Length: 2
                0... .... .... .... = Type: Header (0)
                .000 1111 0... .... = Id: Time Correction IE (0x1e)
                .... .... .000 0010 = Length: 2
            Time Sync Info: 0x0000, Time Correction: 0, Nack: Acknowledgement
                .... 0000 0000 0000 = Time Correction: 0µs
                0... .... .... .... = Nack: Acknowledgement
    FCS: 0xba7a (Correct)

0000  02 2e 05 cd ab 02 00 02 00 02 00 02 00 02 0f 00   ................
0010  00 7a ba                                          .z.

Frame 18: 46 bytes on wire (368 bits), 46 bytes captured (368 bits)
    Encapsulation type: IEEE 802.15.4 Wireless PAN (104)
    Arrival Time: Jun 29, 2017 19:08:53.911120000 CEST
    [Time shift for this packet: 0.000000000 seconds]
    Epoch Time: 1498756133.911120000 seconds
    [Time delta from previous captured frame: 0.067752000 seconds]
    [Time delta from previous displayed frame: 0.067752000 seconds]
    [Time since reference or first frame: 3.850000000 seconds]
    Frame Number: 18
    Frame Length: 46 bytes (368 bits)
    Capture Length: 46 bytes (368 bits)
    [Frame is marked: False]
    [Frame is ignored: False]
    [Protocols in frame: wpan]
IEEE 802.15.4 Data, Dst: NetSys_02:00:02:00:02, Src: EquipTra_01:00:01:00:01
    Frame Control Field: 0xee21, Frame Type: Data, Acknowledge Request, Information Elements Present, Destination Addressing Mode: Long/64-bit, Frame Version: IEEE Std 802.15.4-2015, Source Addressing Mode: Long/64-bit
        .... .... .... .001 = Frame Type: Data (0x1)
        .... .... .... 0... = Security Enabled: False
        .... .... ...0 .... = Frame Pending: False
        .... .... ..1. .... = Acknowledge Request: True
        .... .... .0.. .... = PAN ID Compression: False
        .... ...0 .... .... = Sequence Number Suppression: False
        .... ..1. .... .... = Information Elements Present: True
        .... 11.. .... .... = Destination Addressing Mode: Long/64-bit (0x3)
        ..10 .... .... .... = Frame Version: IEEE Std 802.15.4-2015 (2)
        11.. .... .... .... = Source Addressing Mode: Long/64-bit (0x3)
    Sequence Number: 4
    Destination PAN: 0xabcd
    Destination: NetSys_02:00:02:00:02 (00:02:00:02:00:02:00:02)
    Extended Source: EquipTra_01:00:01:00:01 (00:01:00:01:00:01:00:01)
    Header IEs, Header Termination 1 IE
        Header Termination 1 IE (Payload IEs follow)
            IE Header: 0x3f00, Type: Header, Id: Header Termination 1 IE, Length: 0
                0... .... .... .... = Type: Header (0)
                .011 1111 0... .... = Id: Header Termination 1 IE (0x7e)
                .... .... .000 0000 = Length: 0
    Payload IEs, IETF IE, Payload Termination IE
        IETF Payload IE
            Payload IE TLV: 0xa811, Type: Payload, Id: IETF IE
                1... .... .... .... = Type: Payload (1)
                .010 1... .... .... = Id: IETF IE (0x5)
                .... .000 0001 0001 = Length: 17
            Sub-ID: 201
            6top IE
                .... 0000 = 6P Version: 0
                ..01 .... = Type: Response (0x1)
                00.. .... = Reserved: 0x0
                Code: 0x00 (SUCCESS)
                SFID (6top Scheduling Function ID): 0x80
                .... 0011 = SeqNum: 3
                0011 .... = GEN: Lollipop Counter Value (3)
                CellList
                    Cell: efbeadde
                        Slot Offset: 0xbeef
                        Channel Offset: 0xdead
                    Cell: bebafeca
                        Slot Offset: 0xbabe
                        Channel Offset: 0xcafe
                    Cell: 0df0adba
                        Slot Offset: 0xf00d
                        Channel Offset: 0xbaad
        Payload Termination IE
            Payload IE TLV: 0xf800, Type: Payload, Id: Payload Termination IE
                1... .... .... .... = Type: Payload (1)
                .111 1... .... .... = Id: Payload Termination IE (0xf)
                .... .000 0000 0000 = Length: 0
    FCS: 0xa48f (Correct)

0000  21 ee 04 cd ab 02 00 02 00 02 00 02 00 01 00 01   !...............
0010  00 01 00 01 00 00 3f 11 a8 c9 10 00 80 33 ef be   ......?......3..
0020  ad de be ba fe ca 0d f0 ad ba 00 f8 8f a4         ..............

Frame 19: 19 bytes on wire (152 bits), 19 bytes captured (152 bits)
    Encapsulation type: IEEE 802.15.4 Wireless PAN (104)
    Arrival Time: Jun 29, 2017 19:08:53.913624000 CEST
    [Time shift for this packet: 0.000000000 seconds]
    Epoch Time: 1498756133.913624000 seconds
    [Time delta from previous captured frame: 0.002504000 seconds]
    [Time delta from previous displayed frame: 0.002504000 seconds]
    [Time since reference or first frame: 3.852504000 seconds]
    Frame Number: 19
    Frame Length: 19 bytes (152 bits)
    Capture Length: 19 bytes (152 bits)
    [Frame is marked: False]
    [Frame is ignored: False]
    [Protocols in frame: wpan]
IEEE 802.15.4 Ack, Sequence Number: 4, Dst: EquipTra_01:00:01:00:01
    Frame Control Field: 0x2e02, Frame Type: Ack, Information Elements Present, Destination Addressing Mode: Long/64-bit, Frame Version: IEEE Std 802.15.4-2015, Source Addressing Mode: None
        .... .... .... .010 = Frame Type: Ack (0x2)
        .... .... .... 0... = Security Enabled: False
        .... .... ...0 .... = Frame Pending: False
        .... .... ..0. .... = Acknowledge Request: False
        .... .... .0.. .... = PAN ID Compression: False
        .... ...0 .... .... = Sequence Number Suppression: False
        .... ..1. .... .... = Information Elements Present: True
        .... 11.. .... .... = Destination Addressing Mode: Long/64-bit (0x3)
        ..10 .... .... .... = Frame Version: IEEE Std 802.15.4-2015 (2)
        00.. .... .... .... = Source Addressing Mode: None (0x0)
    Sequence Number: 4
    Destination PAN: 0xabcd
    Destination: EquipTra_01:00:01:00:01 (00:01:00:01:00:01:00:01)
    Header IEs, Time Correction IE
        Time Correction IE
            IE Header: 0x0f02, Type: Header, Id: Time Correction IE, Length: 2
                0... .... .... .... = Type: Header (0)
                .000 1111 0... .... = Id: Time Correction IE (0x1e)
                .... .... .000 0010 = Length: 2
            Time Sync Info: 0x0000, Time Correction: 0, Nack: Acknowledgement
                .... 0000 0000 0000 = Time Correction: 0µs
                0... .... .... .... = Nack: Acknowledgement
    FCS: 0x877a (Correct)

0000  02 2e 04 cd ab 01 00 01 00 01 00 01 00 02 0f 00   ................
0010  00 7a 87                                          .z.

Frame 20: 38 bytes on wire (304 bits), 38 bytes captured (304 bits)
    Encapsulation type: IEEE 802.15.4 Wireless PAN (104)
    Arrival Time: Jun 29, 2017 19:08:53.981120000 CEST
    [Time shift for this packet: 0.000000000 seconds]
    Epoch Time: 1498756133.981120000 seconds
    [Time delta from previous captured frame: 0.067496000 seconds]
    [Time delta from previous displayed frame: 0.067496000 seconds]
    [Time since reference or first frame: 3.920000000 seconds]
    Frame Number: 20
    Frame Length: 38 bytes (304 bits)
    Capture Length: 38 bytes (304 bits)
    [Frame is marked: False]
    [Frame is ignored: False]
    [Protocols in frame: wpan]
IEEE 802.15.4 Data, Dst: EquipTra_01:00:01:00:01, Src: NetSys_02:00:02:00:02
    Frame Control Field: 0xee21, Frame Type: Data, Acknowledge Request, Information Elements Present, Destination Addressing Mode: Long/64-bit, Frame Version: IEEE Std 802.15.4-2015, Source Addressing Mode: Long/64-bit
        .... .... .... .001 = Frame Type: Data (0x1)
        .... .... .... 0... = Security Enabled: False
        .... .... ...0 .... = Frame Pending: False
        .... .... ..1. .... = Acknowledge Request: True
        .... .... .0.. .... = PAN ID Compression: False
        .... ...0 .... .... = Sequence Number Suppression: False
        .... ..1. .... .... = Information Elements Present: True
        .... 11.. .... .... = Destination Addressing Mode: Long/64-bit (0x3)
        ..10 .... .... .... = Frame Version: IEEE Std 802.15.4-2015 (2)
        11.. .... .... .... = Source Addressing Mode: Long/64-bit (0x3)
    Sequence Number: 6
    Destination PAN: 0xabcd
    Destination: EquipTra_01:00:01:00:01 (00:01:00:01:00:01:00:01)
    Extended Source: NetSys_02:00:02:00:02 (00:02:00:02:00:02:00:02)
    Header IEs, Header Termination 1 IE
        Header Termination 1 IE (Payload IEs follow)
            IE Header: 0x3f00, Type: Header, Id: Header Termination 1 IE, Length: 0
                0... .... .... .... = Type: Header (0)
                .011 1111 0... .... = Id: Header Termination 1 IE (0x7e)
                .... .... .000 0000 = Length: 0
    Payload IEs, IETF IE, Payload Termination IE
        IETF Payload IE
            Payload IE TLV: 0xa809, Type: Payload, Id: IETF IE
                1... .... .... .... = Type: Payload (1)
                .010 1... .... .... = Id: IETF IE (0x5)
                .... .000 0000 1001 = Length: 9
            Sub-ID: 201
            6top IE
                .... 0000 = 6P Version: 0
                ..10 .... = Type: Confirmation (0x2)
                00.. .... = Reserved: 0x0
                Code: 0x00 (SUCCESS)
                SFID (6top Scheduling Function ID): 0x80
                .... 0011 = SeqNum: 3
                0011 .... = GEN: Lollipop Counter Value (3)
                CellList
                    Cell: efbeadde
                        Slot Offset: 0xbeef
                        Channel Offset: 0xdead
        Payload Termination IE
            Payload IE TLV: 0xf800, Type: Payload, Id: Payload Termination IE
                1... .... .... .... = Type: Payload (1)
                .111 1... .... .... = Id: Payload Termination IE (0xf)
                .... .000 0000 0000 = Length: 0
    FCS: 0xf66f (Correct)

0000  21 ee 06 cd ab 01 00 01 00 01 00 01 00 02 00 02   !...............
0010  00 02 00 02 00 00 3f 09 a8 c9 20 00 80 33 ef be   ......?... ..3..
0020  ad de 00 f8 6f f6                                 ....o.

Frame 21: 19 bytes on wire (152 bits), 19 bytes captured (152 bits)
    Encapsulation type: IEEE 802.15.4 Wireless PAN (104)
    Arrival Time: Jun 29, 2017 19:08:53.983368000 CEST
    [Time shift for this packet: 0.000000000 seconds]
    Epoch Time: 1498756133.983368000 seconds
    [Time delta from previous captured frame: 0.002248000 seconds]
    [Time delta from previous displayed frame: 0.002248000 seconds]
    [Time since reference or first frame: 3.922248000 seconds]
    Frame Number: 21
    Frame Length: 19 bytes (152 bits)
    Capture Length: 19 bytes (152 bits)
    [Frame is marked: False]
    [Frame is ignored: False]
    [Protocols in frame: wpan]
IEEE 802.15.4 Ack, Sequence Number: 6, Dst: NetSys_02:00:02:00:02
    Frame Control Field: 0x2e02, Frame Type: Ack, Information Elements Present, Destination Addressing Mode: Long/64-bit, Frame Version: IEEE Std 802.15.4-2015, Source Addressing Mode: None
        .... .... .... .010 = Frame Type: Ack (0x2)
        .... .... .... 0... = Security Enabled: False
        .... .... ...0 .... = Frame Pending: False
        .... .... ..0. .... = Acknowledge Request: False
        .... .... .0.. .... = PAN ID Compression: False
        .... ...0 .... .... = Sequence Number Suppression: False
        .... ..1. .... .... = Information Elements Present: True
        .... 11.. .... .... = Destination Addressing Mode: Long/64-bit (0x3)
        ..10 .... .... .... = Frame Version: IEEE Std 802.15.4-2015 (2)
        00.. .... .... .... = Source Addressing Mode: None (0x0)
    Sequence Number: 6
    Destination PAN: 0xabcd
    Destination: NetSys_02:00:02:00:02 (00:02:00:02:00:02:00:02)
    Header IEs, Time Correction IE
        Time Correction IE
            IE Header: 0x0f02, Type: Header, Id: Time Correction IE, Length: 2
                0... .... .... .... = Type: Header (0)
                .000 1111 0... .... = Id: Time Correction IE (0x1e)
                .... .... .000 0010 = Length: 2
            Time Sync Info: 0x0000, Time Correction: 0, Nack: Acknowledgement
                .... 0000 0000 0000 = Time Correction: 0µs
                0... .... .... .... = Nack: Acknowledgement
    FCS: 0x6204 (Correct)

0000  02 2e 06 cd ab 02 00 02 00 02 00 02 00 02 0f 00   ................
0010  00 04 62                                          ..b

Frame 22: 62 bytes on wire (496 bits), 62 bytes captured (496 bits)
    Encapsulation type: IEEE 802.15.4 Wireless PAN (104)
    Arrival Time: Jun 29, 2017 19:08:54.821120000 CEST
    [Time shift for this packet: 0.000000000 seconds]
    Epoch Time: 1498756134.821120000 seconds
    [Time delta from previous captured frame: 0.837752000 seconds]
    [Time delta from previous displayed frame: 0.837752000 seconds]
    [Time since reference or first frame: 4.760000000 seconds]
    Frame Number: 22
    Frame Length: 62 bytes (496 bits)
    Capture Length: 62 bytes (496 bits)
    [Frame is marked: False]
    [Frame is ignored: False]
    [Protocols in frame: wpan]
IEEE 802.15.4 Data, Dst: EquipTra_01:00:01:00:01, Src: NetSys_02:00:02:00:02
    Frame Control Field: 0xee21, Frame Type: Data, Acknowledge Request, Information Elements Present, Destination Addressing Mode: Long/64-bit, Frame Version: IEEE Std 802.15.4-2015, Source Addressing Mode: Long/64-bit
        .... .... .... .001 = Frame Type: Data (0x1)
        .... .... .... 0... = Security Enabled: False
        .... .... ...0 .... = Frame Pending: False
        .... .... ..1. .... = Acknowledge Request: True
        .... .... .0.. .... = PAN ID Compression: False
        .... ...0 .... .... = Sequence Number Suppression: False
        .... ..1. .... .... = Information Elements Present: True
        .... 11.. .... .... = Destination Addressing Mode: Long/64-bit (0x3)
        ..10 .... .... .... = Frame Version: IEEE Std 802.15.4-2015 (2)
        11.. .... .... .... = Source Addressing Mode: Long/64-bit (0x3)
    Sequence Number: 7
    Destination PAN: 0xabcd
    Destination: EquipTra_01:00:01:00:01 (00:01:00:01:00:01:00:01)
    Extended Source: NetSys_02:00:02:00:02 (00:02:00:02:00:02:00:02)
    Header IEs, Header Termination 1 IE
        Header Termination 1 IE (Payload IEs follow)
            IE Header: 0x3f00, Type: Header, Id: Header Termination 1 IE, Length: 0
                0... .... .... .... = Type: Header (0)
                .011 1111 0... .... = Id: Header Termination 1 IE (0x7e)
                .... .... .000 0000 = Length: 0
    Payload IEs, IETF IE, Payload Termination IE
        IETF Payload IE
            Payload IE TLV: 0xa821, Type: Payload, Id: IETF IE
                1... .... .... .... = Type: Payload (1)
                .010 1... .... .... = Id: IETF IE (0x5)
                .... .000 0010 0001 = Length: 33
            Sub-ID: 201
            6top IE
                .... 0000 = 6P Version: 0
                ..00 .... = Type: Request (0x0)
                00.. .... = Reserved: 0x0
                Code: 0x03 (RELOCATE)
                SFID (6top Scheduling Function ID): 0x80
                .... 0100 = SeqNum: 4
                0100 .... = GEN: Lollipop Counter Value (4)
                Metadata: 0xcafe
                Cell Options: TX|SHARED (0x05)
                    .... ...1 = Transmit (TX) Cell: 0x1
                    .... ..0. = Receive (RX) Cell: 0x0
                    .... .1.. = SHARED Cell: 0x1
                    0000 0... = Reserved: 0x00
                Number of Cells: 3
                Rel. CellList
                    Cell: efbeadde
                        Slot Offset: 0xbeef
                        Channel Offset: 0xdead
                    Cell: bebafeca
                        Slot Offset: 0xbabe
                        Channel Offset: 0xcafe
                    Cell: 0df0adba
                        Slot Offset: 0xf00d
                        Channel Offset: 0xbaad
                Cand. CellList
                    Cell: fecaadba
                        Slot Offset: 0xcafe
                        Channel Offset: 0xbaad
                    Cell: edfecefa
                        Slot Offset: 0xfeed
                        Channel Offset: 0xface
                    Cell: 1eabdcba
                        Slot Offset: 0xab1e
                        Channel Offset: 0xbadc
        Payload Termination IE
            Payload IE TLV: 0xf800, Type: Payload, Id: Payload Termination IE
                1... .... .... .... = Type: Payload (1)
                .111 1... .... .... = Id: Payload Termination IE (0xf)
                .... .000 0000 0000 = Length: 0
    FCS: 0xbdee (Correct)

0000  21 ee 07 cd ab 01 00 01 00 01 00 01 00 02 00 02   !...............
0010  00 02 00 02 00 00 3f 21 a8 c9 00 03 80 44 fe ca   ......?!.....D..
0020  05 03 ef be ad de be ba fe ca 0d f0 ad ba fe ca   ................
0030  ad ba ed fe ce fa 1e ab dc ba 00 f8 ee bd         ..............

Frame 23: 19 bytes on wire (152 bits), 19 bytes captured (152 bits)
    Encapsulation type: IEEE 802.15.4 Wireless PAN (104)
    Arrival Time: Jun 29, 2017 19:08:54.824136000 CEST
    [Time shift for this packet: 0.000000000 seconds]
    Epoch Time: 1498756134.824136000 seconds
    [Time delta from previous captured frame: 0.003016000 seconds]
    [Time delta from previous displayed frame: 0.003016000 seconds]
    [Time since reference or first frame: 4.763016000 seconds]
    Frame Number: 23
    Frame Length: 19 bytes (152 bits)
    Capture Length: 19 bytes (152 bits)
    [Frame is marked: False]
    [Frame is ignored: False]
    [Protocols in frame: wpan]
IEEE 802.15.4 Ack, Sequence Number: 7, Dst: NetSys_02:00:02:00:02
    Frame Control Field: 0x2e02, Frame Type: Ack, Information Elements Present, Destination Addressing Mode: Long/64-bit, Frame Version: IEEE Std 802.15.4-2015, Source Addressing Mode: None
        .... .... .... .010 = Frame Type: Ack (0x2)
        .... .... .... 0... = Security Enabled: False
        .... .... ...0 .... = Frame Pending: False
        .... .... ..0. .... = Acknowledge Request: False
        .... .... .0.. .... = PAN ID Compression: False
        .... ...0 .... .... = Sequence Number Suppression: False
        .... ..1. .... .... = Information Elements Present: True
        .... 11.. .... .... = Destination Addressing Mode: Long/64-bit (0x3)
        ..10 .... .... .... = Frame Version: IEEE Std 802.15.4-2015 (2)
        00.. .... .... .... = Source Addressing Mode: None (0x0)
    Sequence Number: 7
    Destination PAN: 0xabcd
    Destination: NetSys_02:00:02:00:02 (00:02:00:02:00:02:00:02)
    Header IEs, Time Correction IE
        Time Correction IE
            IE Header: 0x0f02, Type: Header, Id: Time Correction IE, Length: 2
                0... .... .... .... = Type: Header (0)
                .000 1111 0... .... = Id: Time Correction IE (0x1e)
                .... .... .000 0010 = Length: 2
            Time Sync Info: 0x0000, Time Correction: 0, Nack: Acknowledgement
                .... 0000 0000 0000 = Time Correction: 0µs
                0... .... .... .... = Nack: Acknowledgement
    FCS: 0x2a2e (Correct)

0000  02 2e 07 cd ab 02 00 02 00 02 00 02 00 02 0f 00   ................
0010  00 2e 2a                                          ..*

Frame 24: 38 bytes on wire (304 bits), 38 bytes captured (304 bits)
    Encapsulation type: IEEE 802.15.4 Wireless PAN (104)
    Arrival Time: Jun 29, 2017 19:08:54.891120000 CEST
    [Time shift for this packet: 0.000000000 seconds]
    Epoch Time: 1498756134.891120000 seconds
    [Time delta from previous captured frame: 0.066984000 seconds]
    [Time delta from previous displayed frame: 0.066984000 seconds]
    [Time since reference or first frame: 4.830000000 seconds]
    Frame Number: 24
    Frame Length: 38 bytes (304 bits)
    Capture Length: 38 bytes (304 bits)
    [Frame is marked: False]
    [Frame is ignored: False]
    [Protocols in frame: wpan]
IEEE 802.15.4 Data, Dst: NetSys_02:00:02:00:02, Src: EquipTra_01:00:01:00:01
    Frame Control Field: 0xee21, Frame Type: Data, Acknowledge Request, Information Elements Present, Destination Addressing Mode: Long/64-bit, Frame Version: IEEE Std 802.15.4-2015, Source Addressing Mode: Long/64-bit
        .... .... .... .001 = Frame Type: Data (0x1)
        .... .... .... 0... = Security Enabled: False
        .... .... ...0 .... = Frame Pending: False
        .... .... ..1. .... = Acknowledge Request: True
        .... .... .0.. .... = PAN ID Compression: False
        .... ...0 .... .... = Sequence Number Suppression: False
        .... ..1. .... .... = Information Elements Present: True
        .... 11.. .... .... = Destination Addressing Mode: Long/64-bit (0x3)
        ..10 .... .... .... = Frame Version: IEEE Std 802.15.4-2015 (2)
        11.. .... .... .... = Source Addressing Mode: Long/64-bit (0x3)
    Sequence Number: 5
    Destination PAN: 0xabcd
    Destination: NetSys_02:00:02:00:02 (00:02:00:02:00:02:00:02)
    Extended Source: EquipTra_01:00:01:00:01 (00:01:00:01:00:01:00:01)
    Header IEs, Header Termination 1 IE
        Header Termination 1 IE (Payload IEs follow)
            IE Header: 0x3f00, Type: Header, Id: Header Termination 1 IE, Length: 0
                0... .... .... .... = Type: Header (0)
                .011 1111 0... .... = Id: Header Termination 1 IE (0x7e)
                .... .... .000 0000 = Length: 0
    Payload IEs, IETF IE, Payload Termination IE
        IETF Payload IE
            Payload IE TLV: 0xa809, Type: Payload, Id: IETF IE
                1... .... .... .... = Type: Payload (1)
                .010 1... .... .... = Id: IETF IE (0x5)
                .... .000 0000 1001 = Length: 9
            Sub-ID: 201
            6top IE
                .... 0000 = 6P Version: 0
                ..01 .... = Type: Response (0x1)
                00.. .... = Reserved: 0x0
                Code: 0x00 (SUCCESS)
                SFID (6top Scheduling Function ID): 0x80
                .... 0100 = SeqNum: 4
                0100 .... = GEN: Lollipop Counter Value (4)
                CellList
                    Cell: fecaadba
                        Slot Offset: 0xcafe
                        Channel Offset: 0xbaad
        Payload Termination IE
            Payload IE TLV: 0xf800, Type: Payload, Id: Payload Termination IE
                1... .... .... .... = Type: Payload (1)
                .111 1... .... .... = Id: Payload Termination IE (0xf)
                .... .000 0000 0000 = Length: 0
    FCS: 0x4c90 (Correct)

0000  21 ee 05 cd ab 02 00 02 00 02 00 02 00 01 00 01   !...............
0010  00 01 00 01 00 00 3f 09 a8 c9 10 00 80 44 fe ca   ......?......D..
0020  ad ba 00 f8 90 4c                                 .....L

Frame 25: 19 bytes on wire (152 bits), 19 bytes captured (152 bits)
    Encapsulation type: IEEE 802.15.4 Wireless PAN (104)
    Arrival Time: Jun 29, 2017 19:08:54.893368000 CEST
    [Time shift for this packet: 0.000000000 seconds]
    Epoch Time: 1498756134.893368000 seconds
    [Time delta from previous captured frame: 0.002248000 seconds]
    [Time delta from previous displayed frame: 0.002248000 seconds]
    [Time since reference or first frame: 4.832248000 seconds]
    Frame Number: 25
    Frame Length: 19 bytes (152 bits)
    Capture Length: 19 bytes (152 bits)
    [Frame is marked: False]
    [Frame is ignored: False]
    [Protocols in frame: wpan]
IEEE 802.15.4 Ack, Sequence Number: 5, Dst: EquipTra_01:00:01:00:01
    Frame Control Field: 0x2e02, Frame Type: Ack, Information Elements Present, Destination Addressing Mode: Long/64-bit, Frame Version: IEEE Std 802.15.4-2015, Source Addressing Mode: None
        .... .... .... .010 = Frame Type: Ack (0x2)
        .... .... .... 0... = Security Enabled: False
        .... .... ...0 .... = Frame Pending: False
        .... .... ..0. .... = Acknowledge Request: False
        .... .... .0.. .... = PAN ID Compression: False
        .... ...0 .... .... = Sequence Number Suppression: False
        .... ..1. .... .... = Information Elements Present: True
        .... 11.. .... .... = Destination Addressing Mode: Long/64-bit (0x3)
        ..10 .... .... .... = Frame Version: IEEE Std 802.15.4-2015 (2)
        00.. .... .... .... = Source Addressing Mode: None (0x0)
    Sequence Number: 5
    Destination PAN: 0xabcd
    Destination: EquipTra_01:00:01:00:01 (00:01:00:01:00:01:00:01)
    Header IEs, Time Correction IE
        Time Correction IE
            IE Header: 0x0f02, Type: Header, Id: Time Correction IE, Length: 2
                0... .... .... .... = Type: Header (0)
                .000 1111 0... .... = Id: Time Correction IE (0x1e)
                .... .... .000 0010 = Length: 2
            Time Sync Info: 0x0000, Time Correction: 0, Nack: Acknowledgement
                .... 0000 0000 0000 = Time Correction: 0µs
                0... .... .... .... = Nack: Acknowledgement
    FCS: 0xcf50 (Correct)

0000  02 2e 05 cd ab 01 00 01 00 01 00 01 00 02 0f 00   ................
0010  00 50 cf                                          .P.

Frame 26: 37 bytes on wire (296 bits), 37 bytes captured (296 bits)
    Encapsulation type: IEEE 802.15.4 Wireless PAN (104)
    Arrival Time: Jun 29, 2017 19:08:55.801120000 CEST
    [Time shift for this packet: 0.000000000 seconds]
    Epoch Time: 1498756135.801120000 seconds
    [Time delta from previous captured frame: 0.907752000 seconds]
    [Time delta from previous displayed frame: 0.907752000 seconds]
    [Time since reference or first frame: 5.740000000 seconds]
    Frame Number: 26
    Frame Length: 37 bytes (296 bits)
    Capture Length: 37 bytes (296 bits)
    [Frame is marked: False]
    [Frame is ignored: False]
    [Protocols in frame: wpan]
IEEE 802.15.4 Data, Dst: EquipTra_01:00:01:00:01, Src: NetSys_02:00:02:00:02
    Frame Control Field: 0xee21, Frame Type: Data, Acknowledge Request, Information Elements Present, Destination Addressing Mode: Long/64-bit, Frame Version: IEEE Std 802.15.4-2015, Source Addressing Mode: Long/64-bit
        .... .... .... .001 = Frame Type: Data (0x1)
        .... .... .... 0... = Security Enabled: False
        .... .... ...0 .... = Frame Pending: False
        .... .... ..1. .... = Acknowledge Request: True
        .... .... .0.. .... = PAN ID Compression: False
        .... ...0 .... .... = Sequence Number Suppression: False
        .... ..1. .... .... = Information Elements Present: True
        .... 11.. .... .... = Destination Addressing Mode: Long/64-bit (0x3)
        ..10 .... .... .... = Frame Version: IEEE Std 802.15.4-2015 (2)
        11.. .... .... .... = Source Addressing Mode: Long/64-bit (0x3)
    Sequence Number: 8
    Destination PAN: 0xabcd
    Destination: EquipTra_01:00:01:00:01 (00:01:00:01:00:01:00:01)
    Extended Source: NetSys_02:00:02:00:02 (00:02:00:02:00:02:00:02)
    Header IEs, Header Termination 1 IE
        Header Termination 1 IE (Payload IEs follow)
            IE Header: 0x3f00, Type: Header, Id: Header Termination 1 IE, Length: 0
                0... .... .... .... = Type: Header (0)
                .011 1111 0... .... = Id: Header Termination 1 IE (0x7e)
                .... .... .000 0000 = Length: 0
    Payload IEs, IETF IE, Payload Termination IE
        IETF Payload IE
            Payload IE TLV: 0xa808, Type: Payload, Id: IETF IE
                1... .... .... .... = Type: Payload (1)
                .010 1... .... .... = Id: IETF IE (0x5)
                .... .000 0000 1000 = Length: 8
            Sub-ID: 201
            6top IE
                .... 0000 = 6P Version: 0
                ..00 .... = Type: Request (0x0)
                00.. .... = Reserved: 0x0
                Code: 0x04 (COUNT)
                SFID (6top Scheduling Function ID): 0x80
                .... 0101 = SeqNum: 5
                0101 .... = GEN: Lollipop Counter Value (5)
                Metadata: 0xcafe
                Cell Options: TX|RX|SHARED (0x07)
                    .... ...1 = Transmit (TX) Cell: 0x1
                    .... ..1. = Receive (RX) Cell: 0x1
                    .... .1.. = SHARED Cell: 0x1
                    0000 0... = Reserved: 0x00
        Payload Termination IE
            Payload IE TLV: 0xf800, Type: Payload, Id: Payload Termination IE
                1... .... .... .... = Type: Payload (1)
                .111 1... .... .... = Id: Payload Termination IE (0xf)
                .... .000 0000 0000 = Length: 0
    FCS: 0xdc6d (Correct)

0000  21 ee 08 cd ab 01 00 01 00 01 00 01 00 02 00 02   !...............
0010  00 02 00 02 00 00 3f 08 a8 c9 00 04 80 55 fe ca   ......?......U..
0020  07 00 f8 6d dc                                    ...m.

Frame 27: 19 bytes on wire (152 bits), 19 bytes captured (152 bits)
    Encapsulation type: IEEE 802.15.4 Wireless PAN (104)
    Arrival Time: Jun 29, 2017 19:08:55.803336000 CEST
    [Time shift for this packet: 0.000000000 seconds]
    Epoch Time: 1498756135.803336000 seconds
    [Time delta from previous captured frame: 0.002216000 seconds]
    [Time delta from previous displayed frame: 0.002216000 seconds]
    [Time since reference or first frame: 5.742216000 seconds]
    Frame Number: 27
    Frame Length: 19 bytes (152 bits)
    Capture Length: 19 bytes (152 bits)
    [Frame is marked: False]
    [Frame is ignored: False]
    [Protocols in frame: wpan]
IEEE 802.15.4 Ack, Sequence Number: 8, Dst: NetSys_02:00:02:00:02
    Frame Control Field: 0x2e02, Frame Type: Ack, Information Elements Present, Destination Addressing Mode: Long/64-bit, Frame Version: IEEE Std 802.15.4-2015, Source Addressing Mode: None
        .... .... .... .010 = Frame Type: Ack (0x2)
        .... .... .... 0... = Security Enabled: False
        .... .... ...0 .... = Frame Pending: False
        .... .... ..0. .... = Acknowledge Request: False
        .... .... .0.. .... = PAN ID Compression: False
        .... ...0 .... .... = Sequence Number Suppression: False
        .... ..1. .... .... = Information Elements Present: True
        .... 11.. .... .... = Destination Addressing Mode: Long/64-bit (0x3)
        ..10 .... .... .... = Frame Version: IEEE Std 802.15.4-2015 (2)
        00.. .... .... .... = Source Addressing Mode: None (0x0)
    Sequence Number: 8
    Destination PAN: 0xabcd
    Destination: NetSys_02:00:02:00:02 (00:02:00:02:00:02:00:02)
    Header IEs, Time Correction IE
        Time Correction IE
            IE Header: 0x0f02, Type: Header, Id: Time Correction IE, Length: 2
                0... .... .... .... = Type: Header (0)
                .000 1111 0... .... = Id: Time Correction IE (0x1e)
                .... .... .000 0010 = Length: 2
            Time Sync Info: 0x0000, Time Correction: 0, Nack: Acknowledgement
                .... 0000 0000 0000 = Time Correction: 0µs
                0... .... .... .... = Nack: Acknowledgement
    FCS: 0x8b9b (Correct)

0000  02 2e 08 cd ab 02 00 02 00 02 00 02 00 02 0f 00   ................
0010  00 9b 8b                                          ...

Frame 28: 36 bytes on wire (288 bits), 36 bytes captured (288 bits)
    Encapsulation type: IEEE 802.15.4 Wireless PAN (104)
    Arrival Time: Jun 29, 2017 19:08:55.871120000 CEST
    [Time shift for this packet: 0.000000000 seconds]
    Epoch Time: 1498756135.871120000 seconds
    [Time delta from previous captured frame: 0.067784000 seconds]
    [Time delta from previous displayed frame: 0.067784000 seconds]
    [Time since reference or first frame: 5.810000000 seconds]
    Frame Number: 28
    Frame Length: 36 bytes (288 bits)
    Capture Length: 36 bytes (288 bits)
    [Frame is marked: False]
    [Frame is ignored: False]
    [Protocols in frame: wpan]
IEEE 802.15.4 Data, Dst: NetSys_02:00:02:00:02, Src: EquipTra_01:00:01:00:01
    Frame Control Field: 0xee21, Frame Type: Data, Acknowledge Request, Information Elements Present, Destination Addressing Mode: Long/64-bit, Frame Version: IEEE Std 802.15.4-2015, Source Addressing Mode: Long/64-bit
        .... .... .... .001 = Frame Type: Data (0x1)
        .... .... .... 0... = Security Enabled: False
        .... .... ...0 .... = Frame Pending: False
        .... .... ..1. .... = Acknowledge Request: True
        .... .... .0.. .... = PAN ID Compression: False
        .... ...0 .... .... = Sequence Number Suppression: False
        .... ..1. .... .... = Information Elements Present: True
        .... 11.. .... .... = Destination Addressing Mode: Long/64-bit (0x3)
        ..10 .... .... .... = Frame Version: IEEE Std 802.15.4-2015 (2)
        11.. .... .... .... = Source Addressing Mode: Long/64-bit (0x3)
    Sequence Number: 6
    Destination PAN: 0xabcd
    Destination: NetSys_02:00:02:00:02 (00:02:00:02:00:02:00:02)
    Extended Source: EquipTra_01:00:01:00:01 (00:01:00:01:00:01:00:01)
    Header IEs, Header Termination 1 IE
        Header Termination 1 IE (Payload IEs follow)
            IE Header: 0x3f00, Type: Header, Id: Header Termination 1 IE, Length: 0
                0... .... .... .... = Type: Header (0)
                .011 1111 0... .... = Id: Header Termination 1 IE (0x7e)
                .... .... .000 0000 = Length: 0
    Payload IEs, IETF IE, Payload Termination IE
        IETF Payload IE
            Payload IE TLV: 0xa807, Type: Payload, Id: IETF IE
                1... .... .... .... = Type: Payload (1)
                .010 1... .... .... = Id: IETF IE (0x5)
                .... .000 0000 0111 = Length: 7
            Sub-ID: 201
            6top IE
                .... 0000 = 6P Version: 0
                ..01 .... = Type: Response (0x1)
                00.. .... = Reserved: 0x0
                Code: 0x00 (SUCCESS)
                SFID (6top Scheduling Function ID): 0x80
                .... 0101 = SeqNum: 5
                0101 .... = GEN: Lollipop Counter Value (5)
                Total Number of Cells: 240
        Payload Termination IE
            Payload IE TLV: 0xf800, Type: Payload, Id: Payload Termination IE
                1... .... .... .... = Type: Payload (1)
                .111 1... .... .... = Id: Payload Termination IE (0xf)
                .... .000 0000 0000 = Length: 0
    FCS: 0x869f (Correct)

0000  21 ee 06 cd ab 02 00 02 00 02 00 02 00 01 00 01   !...............
0010  00 01 00 01 00 00 3f 07 a8 c9 10 00 80 55 f0 00   ......?......U..
0020  00 f8 9f 86                                       ....

Frame 29: 19 bytes on wire (152 bits), 19 bytes captured (152 bits)
    Encapsulation type: IEEE 802.15.4 Wireless PAN (104)
    Arrival Time: Jun 29, 2017 19:08:55.873304000 CEST
    [Time shift for this packet: 0.000000000 seconds]
    Epoch Time: 1498756135.873304000 seconds
    [Time delta from previous captured frame: 0.002184000 seconds]
    [Time delta from previous displayed frame: 0.002184000 seconds]
    [Time since reference or first frame: 5.812184000 seconds]
    Frame Number: 29
    Frame Length: 19 bytes (152 bits)
    Capture Length: 19 bytes (152 bits)
    [Frame is marked: False]
    [Frame is ignored: False]
    [Protocols in frame: wpan]
IEEE 802.15.4 Ack, Sequence Number: 6, Dst: EquipTra_01:00:01:00:01
    Frame Control Field: 0x2e02, Frame Type: Ack, Information Elements Present, Destination Addressing Mode: Long/64-bit, Frame Version: IEEE Std 802.15.4-2015, Source Addressing Mode: None
        .... .... .... .010 = Frame Type: Ack (0x2)
        .... .... .... 0... = Security Enabled: False
        .... .... ...0 .... = Frame Pending: False
        .... .... ..0. .... = Acknowledge Request: False
        .... .... .0.. .... = PAN ID Compression: False
        .... ...0 .... .... = Sequence Number Suppression: False
        .... ..1. .... .... = Information Elements Present: True
        .... 11.. .... .... = Destination Addressing Mode: Long/64-bit (0x3)
        ..10 .... .... .... = Frame Version: IEEE Std 802.15.4-2015 (2)
        00.. .... .... .... = Source Addressing Mode: None (0x0)
    Sequence Number: 6
    Destination PAN: 0xabcd
    Destination: EquipTra_01:00:01:00:01 (00:01:00:01:00:01:00:01)
    Header IEs, Time Correction IE
        Time Correction IE
            IE Header: 0x0f02, Type: Header, Id: Time Correction IE, Length: 2
                0... .... .... .... = Type: Header (0)
                .000 1111 0... .... = Id: Time Correction IE (0x1e)
                .... .... .000 0010 = Length: 2
            Time Sync Info: 0x0000, Time Correction: 0, Nack: Acknowledgement
                .... 0000 0000 0000 = Time Correction: 0µs
                0... .... .... .... = Nack: Acknowledgement
    FCS: 0x172e (Correct)

0000  02 2e 06 cd ab 01 00 01 00 01 00 01 00 02 0f 00   ................
0010  00 2e 17                                          ...

Frame 30: 42 bytes on wire (336 bits), 42 bytes captured (336 bits)
    Encapsulation type: IEEE 802.15.4 Wireless PAN (104)
    Arrival Time: Jun 29, 2017 19:08:56.781120000 CEST
    [Time shift for this packet: 0.000000000 seconds]
    Epoch Time: 1498756136.781120000 seconds
    [Time delta from previous captured frame: 0.907816000 seconds]
    [Time delta from previous displayed frame: 0.907816000 seconds]
    [Time since reference or first frame: 6.720000000 seconds]
    Frame Number: 30
    Frame Length: 42 bytes (336 bits)
    Capture Length: 42 bytes (336 bits)
    [Frame is marked: False]
    [Frame is ignored: False]
    [Protocols in frame: wpan]
IEEE 802.15.4 Data, Dst: EquipTra_01:00:01:00:01, Src: NetSys_02:00:02:00:02
    Frame Control Field: 0xee21, Frame Type: Data, Acknowledge Request, Information Elements Present, Destination Addressing Mode: Long/64-bit, Frame Version: IEEE Std 802.15.4-2015, Source Addressing Mode: Long/64-bit
        .... .... .... .001 = Frame Type: Data (0x1)
        .... .... .... 0... = Security Enabled: False
        .... .... ...0 .... = Frame Pending: False
        .... .... ..1. .... = Acknowledge Request: True
        .... .... .0.. .... = PAN ID Compression: False
        .... ...0 .... .... = Sequence Number Suppression: False
        .... ..1. .... .... = Information Elements Present: True
        .... 11.. .... .... = Destination Addressing Mode: Long/64-bit (0x3)
        ..10 .... .... .... = Frame Version: IEEE Std 802.15.4-2015 (2)
        11.. .... .... .... = Source Addressing Mode: Long/64-bit (0x3)
    Sequence Number: 9
    Destination PAN: 0xabcd
    Destination: EquipTra_01:00:01:00:01 (00:01:00:01:00:01:00:01)
    Extended Source: NetSys_02:00:02:00:02 (00:02:00:02:00:02:00:02)
    Header IEs, Header Termination 1 IE
        Header Termination 1 IE (Payload IEs follow)
            IE Header: 0x3f00, Type: Header, Id: Header Termination 1 IE, Length: 0
                0... .... .... .... = Type: Header (0)
                .011 1111 0... .... = Id: Header Termination 1 IE (0x7e)
                .... .... .000 0000 = Length: 0
    Payload IEs, IETF IE, Payload Termination IE
        IETF Payload IE
            Payload IE TLV: 0xa80d, Type: Payload, Id: IETF IE
                1... .... .... .... = Type: Payload (1)
                .010 1... .... .... = Id: IETF IE (0x5)
                .... .000 0000 1101 = Length: 13
            Sub-ID: 201
            6top IE
                .... 0000 = 6P Version: 0
                ..00 .... = Type: Request (0x0)
                00.. .... = Reserved: 0x0
                Code: 0x05 (LIST)
                SFID (6top Scheduling Function ID): 0x80
                .... 0110 = SeqNum: 6
                0101 .... = GEN: Lollipop Counter Value (5)
                Metadata: 0xcafe
                Cell Options: TX|RX|SHARED (0x07)
                    .... ...1 = Transmit (TX) Cell: 0x1
                    .... ..1. = Receive (RX) Cell: 0x1
                    .... .1.. = SHARED Cell: 0x1
                    0000 0... = Reserved: 0x00
                Reserved: 0x00
                Offset: 15
                Maximum Number of Requested Cells: 240
        Payload Termination IE
            Payload IE TLV: 0xf800, Type: Payload, Id: Payload Termination IE
                1... .... .... .... = Type: Payload (1)
                .111 1... .... .... = Id: Payload Termination IE (0xf)
                .... .000 0000 0000 = Length: 0
    FCS: 0x63f0 (Correct)

0000  21 ee 09 cd ab 01 00 01 00 01 00 01 00 02 00 02   !...............
0010  00 02 00 02 00 00 3f 0d a8 c9 00 05 80 56 fe ca   ......?......V..
0020  07 00 0f 00 f0 00 00 f8 f0 63                     .........c

Frame 31: 19 bytes on wire (152 bits), 19 bytes captured (152 bits)
    Encapsulation type: IEEE 802.15.4 Wireless PAN (104)
    Arrival Time: Jun 29, 2017 19:08:56.783496000 CEST
    [Time shift for this packet: 0.000000000 seconds]
    Epoch Time: 1498756136.783496000 seconds
    [Time delta from previous captured frame: 0.002376000 seconds]
    [Time delta from previous displayed frame: 0.002376000 seconds]
    [Time since reference or first frame: 6.722376000 seconds]
    Frame Number: 31
    Frame Length: 19 bytes (152 bits)
    Capture Length: 19 bytes (152 bits)
    [Frame is marked: False]
    [Frame is ignored: False]
    [Protocols in frame: wpan]
IEEE 802.15.4 Ack, Sequence Number: 9, Dst: NetSys_02:00:02:00:02
    Frame Control Field: 0x2e02, Frame Type: Ack, Information Elements Present, Destination Addressing Mode: Long/64-bit, Frame Version: IEEE Std 802.15.4-2015, Source Addressing Mode: None
        .... .... .... .010 = Frame Type: Ack (0x2)
        .... .... .... 0... = Security Enabled: False
        .... .... ...0 .... = Frame Pending: False
        .... .... ..0. .... = Acknowledge Request: False
        .... .... .0.. .... = PAN ID Compression: False
        .... ...0 .... .... = Sequence Number Suppression: False
        .... ..1. .... .... = Information Elements Present: True
        .... 11.. .... .... = Destination Addressing Mode: Long/64-bit (0x3)
        ..10 .... .... .... = Frame Version: IEEE Std 802.15.4-2015 (2)
        00.. .... .... .... = Source Addressing Mode: None (0x0)
    Sequence Number: 9
    Destination PAN: 0xabcd
    Destination: NetSys_02:00:02:00:02 (00:02:00:02:00:02:00:02)
    Header IEs, Time Correction IE
        Time Correction IE
            IE Header: 0x0f02, Type: Header, Id: Time Correction IE, Length: 2
                0... .... .... .... = Type: Header (0)
                .000 1111 0... .... = Id: Time Correction IE (0x1e)
                .... .... .000 0010 = Length: 2
            Time Sync Info: 0x0000, Time Correction: 0, Nack: Acknowledgement
                .... 0000 0000 0000 = Time Correction: 0µs
                0... .... .... .... = Nack: Acknowledgement
    FCS: 0xc3b1 (Correct)

0000  02 2e 09 cd ab 02 00 02 00 02 00 02 00 02 0f 00   ................
0010  00 b1 c3                                          ...

Frame 32: 58 bytes on wire (464 bits), 58 bytes captured (464 bits)
    Encapsulation type: IEEE 802.15.4 Wireless PAN (104)
    Arrival Time: Jun 29, 2017 19:08:56.851120000 CEST
    [Time shift for this packet: 0.000000000 seconds]
    Epoch Time: 1498756136.851120000 seconds
    [Time delta from previous captured frame: 0.067624000 seconds]
    [Time delta from previous displayed frame: 0.067624000 seconds]
    [Time since reference or first frame: 6.790000000 seconds]
    Frame Number: 32
    Frame Length: 58 bytes (464 bits)
    Capture Length: 58 bytes (464 bits)
    [Frame is marked: False]
    [Frame is ignored: False]
    [Protocols in frame: wpan]
IEEE 802.15.4 Data, Dst: NetSys_02:00:02:00:02, Src: EquipTra_01:00:01:00:01
    Frame Control Field: 0xee21, Frame Type: Data, Acknowledge Request, Information Elements Present, Destination Addressing Mode: Long/64-bit, Frame Version: IEEE Std 802.15.4-2015, Source Addressing Mode: Long/64-bit
        .... .... .... .001 = Frame Type: Data (0x1)
        .... .... .... 0... = Security Enabled: False
        .... .... ...0 .... = Frame Pending: False
        .... .... ..1. .... = Acknowledge Request: True
        .... .... .0.. .... = PAN ID Compression: False
        .... ...0 .... .... = Sequence Number Suppression: False
        .... ..1. .... .... = Information Elements Present: True
        .... 11.. .... .... = Destination Addressing Mode: Long/64-bit (0x3)
        ..10 .... .... .... = Frame Version: IEEE Std 802.15.4-2015 (2)
        11.. .... .... .... = Source Addressing Mode: Long/64-bit (0x3)
    Sequence Number: 7
    Destination PAN: 0xabcd
    Destination: NetSys_02:00:02:00:02 (00:02:00:02:00:02:00:02)
    Extended Source: EquipTra_01:00:01:00:01 (00:01:00:01:00:01:00:01)
    Header IEs, Header Termination 1 IE
        Header Termination 1 IE (Payload IEs follow)
            IE Header: 0x3f00, Type: Header, Id: Header Termination 1 IE, Length: 0
                0... .... .... .... = Type: Header (0)
                .011 1111 0... .... = Id: Header Termination 1 IE (0x7e)
                .... .... .000 0000 = Length: 0
    Payload IEs, IETF IE, Payload Termination IE
        IETF Payload IE
            Payload IE TLV: 0xa81d, Type: Payload, Id: IETF IE
                1... .... .... .... = Type: Payload (1)
                .010 1... .... .... = Id: IETF IE (0x5)
                .... .000 0001 1101 = Length: 29
            Sub-ID: 201
            6top IE
                .... 0000 = 6P Version: 0
                ..01 .... = Type: Response (0x1)
                00.. .... = Reserved: 0x0
                Code: 0x00 (SUCCESS)
                SFID (6top Scheduling Function ID): 0x80
                .... 0110 = SeqNum: 6
                0101 .... = GEN: Lollipop Counter Value (5)
                CellList
                    Cell: efbeadde
                        Slot Offset: 0xbeef
                        Channel Offset: 0xdead
                    Cell: bebafeca
                        Slot Offset: 0xbabe
                        Channel Offset: 0xcafe
                    Cell: 0df0adba
                        Slot Offset: 0xf00d
                        Channel Offset: 0xbaad
                    Cell: fecaadba
                        Slot Offset: 0xcafe
                        Channel Offset: 0xbaad
                    Cell: edfecefa
                        Slot Offset: 0xfeed
                        Channel Offset: 0xface
                    Cell: 1eabdcba
                        Slot Offset: 0xab1e
                        Channel Offset: 0xbadc
        Payload Termination IE
            Payload IE TLV: 0xf800, Type: Payload, Id: Payload Termination IE
                1... .... .... .... = Type: Payload (1)
                .111 1... .... .... = Id: Payload Termination IE (0xf)
                .... .000 0000 0000 = Length: 0
    FCS: 0xf252 (Correct)

0000  21 ee 07 cd ab 02 00 02 00 02 00 02 00 01 00 01   !...............
0010  00 01 00 01 00 00 3f 1d a8 c9 10 00 80 56 ef be   ......?......V..
0020  ad de be ba fe ca 0d f0 ad ba fe ca ad ba ed fe   ................
0030  ce fa 1e ab dc ba 00 f8 52 f2                     ........R.

Frame 33: 19 bytes on wire (152 bits), 19 bytes captured (152 bits)
    Encapsulation type: IEEE 802.15.4 Wireless PAN (104)
    Arrival Time: Jun 29, 2017 19:08:56.854008000 CEST
    [Time shift for this packet: 0.000000000 seconds]
    Epoch Time: 1498756136.854008000 seconds
    [Time delta from previous captured frame: 0.002888000 seconds]
    [Time delta from previous displayed frame: 0.002888000 seconds]
    [Time since reference or first frame: 6.792888000 seconds]
    Frame Number: 33
    Frame Length: 19 bytes (152 bits)
    Capture Length: 19 bytes (152 bits)
    [Frame is marked: False]
    [Frame is ignored: False]
    [Protocols in frame: wpan]
IEEE 802.15.4 Ack, Sequence Number: 7, Dst: EquipTra_01:00:01:00:01
    Frame Control Field: 0x2e02, Frame Type: Ack, Information Elements Present, Destination Addressing Mode: Long/64-bit, Frame Version: IEEE Std 802.15.4-2015, Source Addressing Mode: None
        .... .... .... .010 = Frame Type: Ack (0x2)
        .... .... .... 0... = Security Enabled: False
        .... .... ...0 .... = Frame Pending: False
        .... .... ..0. .... = Acknowledge Request: False
        .... .... .0.. .... = PAN ID Compression: False
        .... ...0 .... .... = Sequence Number Suppression: False
        .... ..1. .... .... = Information Elements Present: True
        .... 11.. .... .... = Destination Addressing Mode: Long/64-bit (0x3)
        ..10 .... .... .... = Frame Version: IEEE Std 802.15.4-2015 (2)
        00.. .... .... .... = Source Addressing Mode: None (0x0)
